:020000040800F2
:10000000A0CF022075030008E1B200088362000857
:10001000D7A60008E30C0008D5E6000800000000A1
:10002000000000000000000000000000BD02000809
:10003000F11000080000000011030008A5CB000823
:100040008F0300088F0300088F03000879B90008A8
:100050008F0300088F0300088F0300088F03000838
:100060008F0300088F0300088F0300088F03000828
:100070008F0300088F0300088F0300088F03000818
:100080008F0300088F0300088F0300088F03000808
:100090008F0300088F0300088F0300088F030008F8
:1000A0008F0300088F0300088F0300088F030008E8
:1000B0008F0300088F0300081DCC00088F03000881
:1000C0008F0300088F0300088F0300088F030008C8
:1000D0008F030008F1E5000841E6000889E6000802
:1000E0008F0300089DB700088F0300088F030008E6
:1000F0008F0300088F0300088F0300088F03000898
:100100008F0300088F0300088F0300088F03000887
:100110008F0300088F0300088F0300088F03000877
:100120008F0300088F0300088F0300088F03000867
:100130008F0300088F0300088F0300088F03000857
:100140008F0300088F0300088F0300088F03000847
:100150008F0300088F0300088F0300088F03000837
:100160008F0300088F0300088F0300088F03000827
:100170008F0300088F0300088F03000800000000B1
:100180008F0300088F0300088F0300088F03000807
:100190008F0300088F0300088F0300088F030008F7
:1001A0008F0300088F0300088F03000800F002F897
:1001B00000F06DF80AA090E8000C82448344AAF194
:1001C0000107DA4501D100F062F8AFF2090EBAE892
:1001D0000F0013F0010F18BFFB1A43F0010318477B
:1001E000145E0100345E01000A444FF0000C10F868
:1001F000013B13F0070408BF10F8014B1D1108BFA5
:1002000010F8015B641E05D010F8016B641E01F844
:10021000016BF9D113F0080F1EBF10F8014BAD1C94
:100220000C1B09D16D1E58BF01F801CBFAD505E0B2
:1002300014F8016B01F8016B6D1EF9D59142D6D30C
:10024000704700000023002400250026103A28BF34
:1002500078C1FBD8520728BF30C148BF0B60704738
:10026000642900F08F81752900F08C81782900F0D5
:10027000C581632900F06184732900F06684002041
:1002800070471FB511F017F91FBD10B510BD00F074
:100290007FFC1146FFF7F5FF0FF0AAF800F09DFC78
:1002A00003B4FFF7F2FF03BC0EF020FC30BF72B6C0
:1002B000704762B6704780F3088870472A4B196808
:1002C0000868B0E8F04F80F30988BFF36F8F4FF0F4
:1002D000000080F3118870470000000006480068A5
:1002E000006880F3088862B661B6BFF34F8FBFF332
:1002F0006F8F00DF00BF00BF08ED00E0DFF80C00EB
:10030000016841F470010160704700BF88ED00E0B2
:10031000EFF30980BFF36F8F134B1A681EF0100FB5
:1003200008BF20ED108A20E9F04F106008B44FF0AC
:10033000500080F31188BFF34F8FBFF36F8F10F021
:10034000CFFA4FF0000080F3118808BC19680868E4
:10035000B0E8F04F1EF0100F08BFB0EC108A80F329
:100360000988BFF36F8F704738020020EFF30580D4
:10037000704700000948804709480047FEE7FEE74C
:10038000FEE7FEE7FEE7FEE7FEE7FEE7FEE7FEE745
:1003900004480549054A064B70470000B9CB0008E0
:1003A000AD010008A0C90220A0CF0220A0CB0220EE
:1003B000A0CB0220704753EA020C00F069802DE9BF
:1003C000F04B4FF00006002B1FBFB3FA83F503FA82
:1003D00005F424FA05F65E4012BF1643B2FA82F520
:1003E00002FA05F4C5F120051EBF22FA05FC44EA15
:1003F0000C04203556EA044C4FEA144418BF641C20
:100400004FF000084FF00009904271EB030C39D314
:10041000002919BFB1FA81F701FA07F6B0FA80F79F
:1004200000FA07F6C7F120071EBF20FA07FC46EACC
:100430000C062037B6FBF4FCA7EB0507103F07F0CE
:100440001F0BCBF120060CFA0BFB2CFA06F644BF6F
:10045000B3460026202FA4BF5E464FF0000B5BEA98
:10046000060C08BF4FF0010B19EB0B09ABFB027C2C
:1004700048EB0608C01B06FB02CC0BFB03CC71EB60
:100480000C01C1E70B46024641464846BDE8F08BE9
:1004900013B54FF000004FF00001AFF30080BDE84E
:1004A0001C4070470FB4044910B503AA029800F02D
:1004B00051FB10BC5DF814FB1C0000200FB41CB5F0
:1004C000074B06AA7B4469460090059800F013FB91
:1004D0000020694600F022FB1CBC5DF814FB000004
:1004E0005506000070B5044685690068C10601D54F
:1004F000302600E02026C00707D070BDD4E90121D6
:1005000030469047206A401C20626D1EF6D570BDB3
:1005100070B5044685690078C00707D170BDD4E97D
:10052000012120209047206A401C20626D1EF6D5D4
:1005300070BD70B50C460546012A05D028788006A6
:1005400000D5EA69002302E0012305E05B1C934229
:1005500002D2E05C0028F9D1A869E618C01AA861A7
:10056000286A184428622846FFF7BCFF04E0D5E952
:10057000012114F8010B9047B442F8D32846FFF745
:10058000C7FF70BD2DE9F0410646002410687529AB
:10059000314616A510D0AFF30080002802DA4042A1
:1005A00013A507E031688A0701D512A502E04907C3
:1005B00004D511A5012401E0AFF3008000210A2237
:1005C00006F1240709E0B0FBF2FCB0FBF2F302FBFA
:1005D0001C00303078541846491C0028F3D12346BB
:1005E0002A463046BDE8F04100F027BA000000007E
:1005F0002D0000002B0000002000000070B5044614
:100600000D4621461068AFF300802188090502D508
:100610000F4A7A4402E00E4A7A440E32002104F175
:10062000240305E000F00F060009965D5E54491CA6
:100630000028F7D120780023000704D5702D02D0C0
:1006400009B1022311322046BDE8704000F0F5B92F
:10065000D25701002DE9F05F894604464FF0000AA9
:10066000DFF874B1FB44C0F820A02046E168884759
:10067000002874D0252806D0D4E901219047206AAB
:10068000401C2062F1E700265F462046E16888476B
:100690002028054607DB312D05D2781910F8200CEB
:1006A00008B10643F1E7B00701D526F00406C4F807
:1006B0001CA00027C4F818A02A2D09D028460EF047
:1006C0000EFA38B304EB8708303DC8F8185019E02B
:1006D00059F8041B204604EB87029161E1688847C2
:1006E000012F054618D1E069002820DA26F02006FF
:1006F0001DE0D8F8180000EB800005EB4000303812
:10070000C8F818002046E168884705460EF0E7F96A
:100710000028EED1012F0AD02E2D08D12046E16805
:1007200088477F1C0546022F46F02006C4DBA069DF
:10073000002803DA404246F00106A061F00701D02C
:1007400026F010066C2D0BD0682D09D04C2D39D019
:100750006A2D35D0742D35D07A2D33D016E038E09F
:10076000E1682F4620468847B842054609D16C2FDC
:1007700026D04FF48060E16806432046884705464E
:1007800004E06C2F1AD04FF4807006430DB3A5F12E
:100790004100192802D8203546F400664A46294609
:1007A000204626604E46FFF75BFD80B101280BD046
:1007B000F61D26F0070000F1080956E74020E4E79F
:1007C0008020D8E70020D6E706F104094DE7284647
:1007D00052E7206ABDE8F09FA857010010B5431CFE
:1007E00002E010F8011B71B18107FAD14FF001321C
:1007F00002C88C1A8C4314EAC211F9D0C01A0A0636
:1008000003D0C01E10BDC01A10BD0A0401D0801E46
:1008100010BD0902FCD0401E10BD032A40F23080FA
:1008200010F0030C00F0158011F8013BBCF1020F31
:10083000624498BF11F801CB00F8013B38BF11F8B2
:10084000013BA2F1040298BF00F801CB38BF00F8C9
:10085000013B11F0030300F02580083AC0F0088046
:1008600051F8043B083A51F804CBA0E80810F5E72A
:10087000121D5CBF51F8043B40F8043BAFF300800D
:10088000D20724BF11F8013B11F801CB48BF11F882
:10089000012B24BF00F8013B00F801CB48BF00F852
:1008A000012B704710B5203AC0F00B80B1E818500A
:1008B000203AA0E81850B1E81850A0E81850BFF44A
:1008C000F5AF5FEA027C24BFB1E81850A0E81850E9
:1008D00044BF18C918C0BDE810405FEA827C24BF3D
:1008E00051F8043B40F8043B08BF7047D20728BFCB
:1008F00031F8023B48BF11F8012B28BF20F8023B1A
:1009000048BF00F8012B70474FF000020429C0F0E7
:10091000128010F0030C00F01B80CCF1040CBCF131
:10092000020F18BF00F8012BA8BF20F8022BA1EB83
:100930000C0100F00DB85FEAC17C24BF00F8012B68
:1009400000F8012B48BF00F8012B70474FF0000260
:1009500000B5134694469646203922BFA0E80C50B5
:10096000A0E80C50B1F12001BFF4F7AF090728BF90
:10097000A0E80C5048BF0CC05DF804EB890028BF0C
:1009800040F8042B08BF704748BF20F8022B11F035
:10099000804F18BF00F8012B704700004FF0013C5A
:1009A00050F8042B51F8043B9A4221D1A2EB0C03DE
:1009B000934313EACC1317D150F8042B51F8043B9E
:1009C0009A4215D1A2EB0C03934313EACC130BD13B
:1009D00050F8042B51F8043B9A4209D1A2EB0C03C6
:1009E000934313EACC13DBD04FF00000704700BFF5
:1009F000D01A01BAB1FA81F101F0180122FA01F01E
:100A0000CB40C1F12001DBB2C0B2C01A2CFA01F315
:100A1000D11A914311EAC311E6D17047704770476C
:100A20007047704710B500F0A7F8006810BD10B50A
:100A3000044600F0A1F8046010BD2DE9F0470D4612
:100A400099469246044600F124080168880604D5B8
:100A5000E06921F01001216000E00120A84201DDE1
:100A6000471B00E00027A1697A1902EB0900081A68
:100A7000A0612078C00602D42046FFF733FD00268F
:100A800008E0D4E901211AF806009047206A401CCA
:100A9000761C20624E45F4DB2078C0060AD520463D
:100AA000FFF720FD06E0D4E9012130209047206ABD
:100AB000401C2062381EA7F10107F4DC07E0D4E9EE
:100AC000012118F805009047206A401C2062281E6A
:100AD000A5F10105F3DC2046FFF71AFD207800069A
:100AE00002D50220BDE8F0870120FBE701694A1C1E
:100AF00002610878704700B58FB0CDE9013100215F
:100B0000059105497944CDE9031011466846FFF780
:100B1000A1FD0FB000BD0000E5FFFFFF0A6802F86D
:100B2000010B0A60704710B5436913B1AFF3008041
:100B300001E0FFF7FEFC012010BD127800F1240156
:100B40000A7000224A700122EDE711684FF0FF326F
:100B5000E9E70000074B70B50D467B44FFF7CBFF7C
:100B60000446284600F00CF810B14FF0FF3070BD7D
:100B7000204670BDA7E700000048704740C902202A
:100B8000007B00F0800070470048704740C9022099
:100B90007546FFF7F9FFAE4605006946534620F05B
:100BA0000700854618B020B5FFF7F2FBBDE82040EE
:100BB0004FF000064FF000074FF000084FF0000B19
:100BC00021F00701AC46ACE8C009ACE8C009ACE8CC
:100BD000C009ACE8C0098D46704710B50446AFF3B4
:100BE00000802046BDE81040FFF75ABB10B505F065
:100BF00073FB10BD70B506460C46154608E030463E
:100C0000721C96B200F007F804F8010B681E85B25A
:100C1000002DF4D170BD70B50446002605F01CFC13
:100C20002546E11704EB11610912A02202EB4101F4
:100C3000C8B205F0DDFB05F05BFCE11704EB1161C8
:100C40000912A4EB0121C8B205F0D2FB05F050FC5B
:100C500005F002FCA12005F0CBFB05F049FC0020CB
:100C600005F090FB064605F01DFC304670BD70B5E2
:100C700005460C46164606E02178284600F009F89D
:100C8000681C85B2641C301EA6F101018EB2F3D13E
:100C900070BD70B504460E4605F0DEFB2546E11733
:100CA00004EB11610912A02202EB4101C8B205F068
:100CB0009FFB05F01DFCE11704EB11610912A4EB89
:100CC0000121C8B205F094FB05F012FC304605F096
:100CD0008FFB05F00DFC05F0E5FB0A200DF074FF1D
:100CE00070BD00BFFEE710B502200DF079FF10BD0A
:100CF00010B500200A490860FFF7F5FF01200949F7
:100D0000C1F89802FFF7EFFF002007490860FFF7DE
:100D1000EAFF01200549C1F88C02FFF7E4FF10BD8E
:100D20008C02444200804342988243420000444285
:100D300000B587B000BF002001901B48006840F05C
:100D40008000194908600846006800F080000190A2
:100D500000BF00BF00BF002001900846006840F4BB
:100D6000807008600846006800F48070019000BF41
:100D700000BF402002901120039001200490032026
:100D8000059002A9094802F007F90820029002A97B
:100D9000074802F001F90120064908600649C1F838
:100DA000980207B000BD000030380240001C02402D
:100DB000002002408C0244420080434210B50120D2
:100DC00007490860FFF78FFF01200649C1F8980224
:100DD000FFF789FF002004490860FFF784FF10BD7A
:100DE0008C024442008043429882434270B50546DB
:100DF0000024002613E06006040E01200D4908605F
:100E0000FFF771FF0C48D0F80C0208B1601CC4B2A7
:100E1000002008490860FFF766FF701CC6B2082E64
:100E2000E9DB15B9FFF7CAFF01E0FFF761FF2046D4
:100E300070BD0000988243420000444270B50446F1
:100E4000002511E0E0090B490860FFF74CFF012085
:100E50000949C1F89802FFF746FF002007490860DA
:100E60006006040E681CC5B2082DEBDB01200149A9
:100E7000086070BD8C024442008043429882434225
:100E800010B50120094908600949C1F89802FFF727
:100E90002AFF002005490860FFF725FF00200449CC
:100EA000C1F89802FFF71FFF10BD00008C024442FA
:100EB0000080434210B5002007490860FFF713FF88
:100EC00001200649C1F89802FFF70DFF01200249F1
:100ED0000860FFF708FF10BD8C02444200804342C7
:100EE00070B500240025012010490860FFF7FBFEC3
:100EF00001200F49C1F89802FFF7F5FE09E0601CD8
:100F0000C4B2FA2C03DDFFF7D5FF012506E0FFF799
:100F1000EAFE0648803800680028F0D100BF0020B3
:100F200004490860FFF7DFFE284670BD8C0244428A
:100F3000008043429882434210B500241448006860
:100F400020F040701249086008460068086004E01C
:100F5000601CC4B201200DF043FE0E48006808B1C9
:100F6000642CF5DB642C01DB012010BD002404E0BF
:100F7000601CC4B201200DF033FE0648006808B9B9
:100F8000642CF5DB642C01DB0120EEE70020ECE7AC
:100F9000000402403082404200B587B000BF00200C
:100FA00001900F48006840F002000D4908600846B3
:100FB000006800F00200019000BF00BF881402909A
:100FC0000120039004900320059002A9054801F038
:100FD000E3FF00F06DF8FFF7AFFF07B000BD0000C2
:100FE000303802400004024010B5002404E0601CC8
:100FF000C4B201200DF0F4FD0D48006808B1642C66
:10100000F5DB002404E0601CC4B201200DF0E8FD13
:101010000748006808B9642CF5DB28200DF0E0FDD6
:101020000348006808B1012010BD0020FCE7000063
:101030003082404270B50024002506E06006040EB0
:10104000FFF7D2FF0443681CC5B2082DF6DB20462B
:1010500070BD7CB505460E4600200AF06DFB00F021
:1010600027F8FFF769FFF8B9002405E0FFF7E2FF72
:101070000DF80400601CC4B2052CF7DB9DF80000DD
:101080009DF8011008449DF8021008449DF80310D3
:1010900008449DF80410884208D19DF80000307083
:1010A0009DF80200287001E001207CBD0020FCE7D3
:1010B00010B50C48006820F040700A4908600846E6
:1010C000006840F080700860002007490860142024
:1010D0000DF07AFD01200549C1F8B0021E200DF087
:1010E0007FFD10BD00040240B082404200804042BB
:1010F0007047000010B586B0044600BF0020009085
:101100002A48006840F00200284908600846006844
:1011100000F00200009000BF00BF00BF0020009060
:1011200022481030006840F48020204910310860C7
:101130000846006800F48020009000BF00BF4FF414
:10114000406001900220029001200390032004904F
:101150000720059001A9164801F01EFF1548164901
:1011600008600846446000218160C16001618161BE
:101170000C21416104F0FBFE0F480068C06820F0BC
:1011800040000D490968C8600B480068C06840F01D
:10119000200009490968C860272002F0E9FA032203
:1011A0001146272002F0F1FA06B010BD3038024097
:1011B0000004024000480040101A002030B50346E9
:1011C0000024102A01D1DC6800E0DC6A0024D1E9A7
:1011D000000540EA05200D8940EA05400D7B40EA04
:1011E00005600443102A01D1DC6000E0DC620020CD
:1011F00030BD30B503460024102A01D19C6800E0C0
:101200009C6A0024D1E9000540EA05200D8940EAE6
:1012100005400D7B40EA05600443102A01D19C6023
:1012200000E09C62002030BD10B502460023086833
:10123000102801D1136800E0136A0D480340486884
:1012400040F008008C682043CC6820430C692043A0
:101250004C6940EA44208C6940EA44300343086802
:10126000102801D1136000E01362002010BD0000BF
:101270008101F0FF70B504461D460023B5F5804F8F
:1012800013D154F822300C480340D1E9000640EA5B
:1012900006108E6840EA06208E8940EA06408E6974
:1012A0003043034344F8223003E06FF0704044F8C9
:1012B0002200002070BD00000000F0CF10B50246F3
:1012C0000023086852F820301B480340D1E901048C
:1012D0002043CC6820430C6920434C6920438C692F
:1012E0002043CC6920430C6A20434C6A20438C6A1B
:1012F0002043CC6A2043CC6B20430C6B20434C6BC7
:10130000204303438868082801D143F0400308685C
:1013100042F82030486BB0F5801F0AD1086840B110
:101320004FF4807008614C6B0869204314682043B7
:101330001060002010BD00008000E0FF30B50346C3
:1013400014460022601C53F8202002F04042D1E9EC
:10135000000540EA05108D6840EA05208D8940EAC5
:101360000545088A401E45EA0055087D801E45EA6D
:1013700000608D6928430243601C43F820201868F0
:1013800000F4801038B1586820F47002088A401EBA
:1013900042EA00525A60002030BD30B502460023B8
:1013A00000240868012816D013686FF30E03D1E9F2
:1013B00001052843CD6828430D6928434D6928431A
:1013C0008D692843CD6928430D6A28434D6A284317
:1013D0000343136019E013686FF30E03D1E90705A7
:1013E00028434D6A2843034354686FF30E04D1E940
:1013F00001052843CD6828430D6928434D692843DA
:101400008D692843044313605460002030BD0246B8
:10141000506940EA4100506100207047F8B5064627
:101420000C461546002000900027D4E9000108432F
:10143000A168491E40EA4110E16840EA412000905D
:101440000098306101F0C4FE074609E0681C38B11D
:1014500025B101F0BDFEC01BA84201D90320F8BD93
:10146000B06900F020000028F0D100BFF7E770B5A8
:101470000346154600220024012D1FD09A6802F071
:1014800070420868401E4E68761E40EA061688685C
:10149000401E46EA0026C868401E46EA0036088A12
:1014A000401E46EA0046888A401E46EA0056087EEC
:1014B000401E46EA006002439A6022E0DA6802F0C9
:1014C00070420868401E4E68761E40EA061688681C
:1014D000401E46EA0026088A401E46EA0046087E6C
:1014E000401E46EA006002439C6804F07044C868ED
:1014F000401E0603888A401E46EA00500443DA6014
:101500009C60002070BD000010B588B0012400BFB1
:10151000002000905548006840F080005349086062
:101520000846006800F08000009000BF00BF00BFC8
:10153000002000900846006840F48070086008466B
:10154000006800F48070009000BF00BF8020019010
:1015500000200290012003900320049001A9444838
:1015600001F01AFD200201900120029001A94148DA
:1015700001F012FDFFF7DCFB00203F49086014205A
:101580000DF022FB01203D49C1F8A00232200DF0F0
:101590001BFB00208DF81800022206A9A12000F0F4
:1015A0007DF89DF81800302803D19DF81900032814
:1015B00007D09DF81900012803D09DF819000228D2
:1015C00024D19DF819009DF8182000EB02212CA0D1
:1015D000FEF768FF012206A9002000F03FFA012271
:1015E00006A9A42000F03AFA16208DF8180001226E
:1015F00006A9802000F032FA0C208DF81800012294
:1016000006A9882000F02AFA00242BE0042206A96B
:1016100048F2401000F0B6FF00208DF81C0006A92B
:101620001AA0FEF73FFF1C480699016002208DF8C2
:101630001800012206A948F2400001F0B1F9012288
:1016400006A948F2470000F09DFF0A200DF0BCFA01
:1016500000208DF81800012206A948F2400001F090
:101660009FF90024204608B010BD00003038024029
:10167000001C024000200240A002444200004442FC
:101680004354502049443A25780D0A0043545020D1
:1016900049443A25730D0A00440000202DE9F04129
:1016A00006460F461546FFF7EBFB7020FFF7C6FB1B
:1016B000FFF716FCF0B2FFF7C1FBFFF711FCFFF7D5
:1016C000DFFB7120FFF7BAFBFFF70AFC00240BE0F9
:1016D000691EA14201D0012100E000210846FFF768
:1016E00085FB3855601CC4B2AC42F1DBFFF7E2FB6E
:1016F000BDE8F08171B583B0002001900026CF488D
:101700000078401CCD490870084600780A2190FBFB
:10171000F1F201FB120018B1C84800780A287DDAFE
:10172000C7A1C848FFF73AF9D8B9012203A948F27E
:101730004E1000F027FF9DF80C0000F08000A8B1CB
:101740009DF80C0000F00F00BF49097888420DDCBD
:1017500000200190012201A948F24E1001F020F969
:1017600004E0012203A90220FFF798FF9DF80C0076
:1017700000F00F00002851D09DF80C0000F00F0081
:10178000B1490978884249DC9DF80C0000F00F014E
:10179000FF208840C4B2AD48858EE04380B240F05F
:1017A000C000AA49888608468289A7480078401E5A
:1017B0000C3121F81020A548028CA3480078401E67
:1017C000143121F8102004200DF0FEF900200190C2
:1017D000AAE09E48808E9DF8042001219140084097
:1017E00000282FD096A19748FFF7D8F8E8BB984972
:1017F0009DF8042031F81200042202A900F0C2FE74
:10180000924890F8440000F00100E0B19DF8080013
:101810009DF8091000EB012081B200E0C2E08B4886
:101820000C309DF8042020F812109DF80A009DF855
:101830000B1000EB012081B2844820309DF8042079
:1018400020F812106BE09DF808009DF8091000EBDD
:10185000012081B27D4820309DF8042020F812102C
:101860009DF80A009DF80B1000E00CE000EB012051
:1018700078490988081A81B274480C309DF8042010
:1018800020F812104BE074499DF8042031F8120042
:10189000042202A9FFF702FF6C4890F8440000F010
:1018A0000100E0B19DF809009DF8081001F00F015A
:1018B00000EB0120654920319DF8042021F8120039
:1018C0009DF80B009DF80A1001F00F0100EB0120BC
:1018D0005E490C319DF8042021F812001FE09DF8AC
:1018E00009009DF8081001F00F0100EB0120594993
:1018F0000988081A81B255480C309DF8042020F858
:1019000012109DF80B009DF80A1001F00F0100EB7A
:1019100001204E4920319DF8042021F812009DF845
:101920000400401CC0B201909DF8040046490978AB
:101930008842FFF64EAF0126444880894549098810
:10194000884205DC4148008C42494988884226DDAE
:101950009DF80C0000F00F0001280ADD3B48C0890B
:101960003A4988810846408C088400203349087031
:1019700018E035480078401E34490C3131F8100029
:101980000C39888130480078401E203131F8100031
:1019900020390884802003900846858602E00020D4
:1019A0002649087026A12748FEF7F8FFF0B99DF8F0
:1019B0000C0000F08F00802835D1244890F83400C6
:1019C00000F0800030B12148808E20F080001F4957
:1019D000888628E04FF6FF701C49888108840846F5
:1019E00090F8340000F0E00088861CE09DF80C00C0
:1019F00000F01F00B8B9154890F8340000F08000DE
:101A000030B11248808E20F08000104988860AE0AC
:101A10004FF6FF700D4988810884084690F834001D
:101A200000F0E000888605480078F02802DD0A20F2
:101A300002490870304604B070BD00004A00002022
:101A40003931310044000020490000204C000020C2
:101A50001A5C01084C040020105C01082DE9F041DB
:101A600005460E4617464FF00008FFF709FA7020AA
:101A7000FFF7E4F9FFF734FAE8B2FFF7DFF9FFF711
:101A80002FFA00240BE0305DFFF7D8F9FFF728FAB2
:101A90008046B8F1000F00D003E0601CC4B2BC4225
:101AA000F1DB00BFFFF706FA4046BDE8F081000019
:101AB00038B504464FF0AA3000900949897901FBF6
:101AC00004F004236A46002109F0EAFB04498979FD
:101AD0006143481C04236A46002109F0E1FB38BD3C
:101AE000D00500202DE9FC4704460D4600275DE0A7
:101AF0004FF0000820E001A830490090B1F80290B2
:101B00004FEAE97109EB91718B102C49897901FB3E
:101B100004F02A46002109F00DFA28494888C11727
:101B200000EB9171BDF80420B2EBA10F00D007E0EB
:101B300008F101001FFA80F8204880794045DADC7E
:101B400000BF1E488079404502D10020BDE8FC87D7
:101B5000204608F0B7FF064626B1394618A0FEF722
:101B6000A1FC21E0681CF8B10020019016E01349A7
:101B7000B1F802904FEAE97109EB91718B100F49AE
:101B80008979BDF8042004FB01200022114609F0E8
:101B900051FBBDF80400401C80B2019007488079D9
:101BA000BDF804108842E2DC781C87B2032F9FDB6B
:101BB000214609A0FEF776FC0120C7E7D0050020EA
:101BC0006572726F7220657261736520626C6F63FB
:101BD0006B3A25640D0A000062616420626C6F63D9
:101BE0006B20636865636B65643A25640D0A0000C9
:101BF00038B50446002000900F49897901FB04F0B4
:101C000001236A46002109F0DDF99DF80000FF2854
:101C100010D1094989796143481C01236A46002192
:101C200009F0D0F99DF80000FF2801D1002038BD4F
:101C30000120FCE70220FAE7D00500202DE9FE4F45
:101C400081460F4692461D460024002002908046A1
:101C5000019000263B488079B9FBF0F8394880793B
:101C6000B9FBF0F100FB1190019000BF404600F07D
:101C7000E1F8064633484089B04202D20120BDE86F
:101C8000FE8F00243AE00198844221D305B32D4809
:101C90004088C01BA84205D22A484088C01B1FFAB2
:101CA00080FB01E01FFA85FB264ACDF800B092794F
:101CB00006FB0241234A927908FB024053463A460A
:101CC00008F00CFD02900027DA44A5EB0B050AE0B2
:101CD0001C4A927906FB02411A4A927908FB02409B
:101CE00008F002FE0290029830B13046FFF7E0FEA5
:101CF000012000F029F8B9E7601C84B2114880790E
:101D0000A042C0DC0F488079A04219D1304600F0D3
:101D100099FA404608F0D6FE00240CE009484069D4
:101D200030F81400404504D10649496921F814608F
:101D300005E0601C84B203484089A042EEDC00BF8D
:101D400000209CE7D0050020F8B5054600260024B9
:101D500006E04FF6FF703049496921F81400641C11
:101D60002D484089A042F4D800202B4988810024C6
:101D700033E02949897901FB04F004236A460021F4
:101D800009F020F99DF80000FF2809D145B122494A
:101D900089796143481C01236A46002109F012F940
:101DA0009DF80000FF2813D19DF802009DF8031054
:101DB00000EB012618484089B04203D91649496909
:101DC00021F8164014488089401C1349888103E09B
:101DD000214612A0FEF766FB641C0F484089A04212
:101DE000C7D800240BE00C48406930F814000A49B9
:101DF0004989884202DB0849CC8104E0641C06481A
:101E00004089A042EFD800BF0348C089642801DAA6
:101E10000220F8BD0020FCE7D005002062616420AC
:101E2000626C6F636B20696E6465783A25640D0A95
:101E30000000000070B50546002418484089401E87
:101E400017490968884204D214484089401E144941
:101E5000086005F001011248006800F023F804460C
:101E6000601C90B90D484089401E0D4909688842A0
:101E70000BD90A484089401E0949086005F0010154
:101E80000748006800F00EF80446601C10B94FF0D7
:101E9000FF3070BD024804602046FAE7D0050020FC
:101EA000A4000020F8B505460E460020009000244E
:101EB0006C1C14E0601E00F00100B0420ED1611EE7
:101EC000094A927901FB02F004236A46002109F0D5
:101ED00079F80098401C08B9601EF8BD641E002CFB
:101EE000E8D1601EF9E70000D0050020F8B5002613
:101EF00000202D498881002417E02046FFF778FE56
:101F000005468DB9204608F0DDFD05463DB1214668
:101F100026A0FEF7C7FA2046FFF7CAFD04E02248D4
:101F20008089401C20498881641C1F484089A04248
:101F3000E3D81D48818921A0FEF7B4FA1A488089A8
:101F4000642801DA0120F8BD17488089C0EB4010F1
:101F500000EB4000642190FBF1F60020009000248B
:101F600015E02046FFF744FE05467DB90E49897904
:101F700001FB04F002236A46194609F091F9009822
:101F8000401C00900098B04200D104E0641C064858
:101F90004089A042E5D800BF0120FFF7D5FE08B177
:101FA0000220D0E70020CEE7D00500204261642067
:101FB000626C6F636B3A25640D0A0000676F6F6493
:101FC0005F626C6F636B6E756D3A25640D0A00007D
:101FD00010B508F0A7FD08B1012010BD1F484069E9
:101FE00020B11E48416900200DF044FB1B48408988
:101FF000410000200DF050FB184948610A46528903
:102000005100164A5069FEF77FFC1448406908B930
:102010000120E2E70120FFF797FE044664B110A01B
:10202000FEF740FAFFF762FF0446002C13D012A01F
:10203000FEF738FA0220D0E70848418913A0FEF7DE
:1020400031FA0648818917A0FEF72CFA0348C189A6
:1020500019A0FEF727FA0020BFE70000D0050020F6
:10206000666F726D6174206E616E6420666C617360
:10207000682E2E2E0D0A0000666F726D6174206648
:1020800061696C6564210D0A00000000746F746161
:102090006C20626C6F636B206E756D3A25640D0A5F
:1020A00000000000676F6F6420626C6F636B206ECE
:1020B000756D3A25640D0A0076616C696420626C66
:1020C0006F636B206E756D3A25640D0A0000000089
:1020D000014600220648C089884202D24FF6FF70AE
:1020E00070470348406930F811201046F8E70000B7
:1020F000D00500202DE9FF4F83B014469A460026F4
:10210000002500BF97E04E48408890FBF4F04C4912
:102110008979484304992944B1FBF0F00290029870
:10212000FFF7D6FF834646484189594503D8012029
:1021300007B0BDE8F08F4248408890FBF4F040497A
:102140008979484304992944B1FBF0F200FB12104D
:10215000604301903A4841880198B0FBF1F038495A
:1021600089790BFB0108364841880198B0FBF1F2F0
:1021700001FB120932484088A0EB0900B0FBF4F0E3
:1021800087B2AAEB0500B84202D2AAEB050087B2DB
:1021900007FB04F083B21FFA89F14046039A08F066
:1021A0007BFD0646032E39D107FB04F083B21FFAEC
:1021B00089F14046039A08F06FFD0646032E2DD1A3
:1021C00007FB04F31FFA89F14046039AFFF736FD37
:1021D0001B488079B8FBF0F0311F0090FFF782FCBC
:1021E00006467EB916488079B8FBF0F000210090D1
:1021F000FFF778FC064612488079B8FBF0F00090B3
:1022000008F060FC4EB10E488079B8FBF0F0009009
:10221000FFF74EFC0120FFF797FD0026042E00D1AA
:1022200000260EB1022083E7039804FB0700039009
:10223000781E05446D1C5545FFF465AF002077E717
:10224000D005002038B50446CC2000900025064972
:10225000897901FB04F001236A46194609F020F848
:102260000546284638BD0000D00500202DE9FF4F67
:1022700087B014469A464FF0000B0025681E029066
:1022800000BFA7E05648408890FBF4F05449897994
:10229000484308992944B1FBF0F005900598FFF7F1
:1022A00017FF06464E484189B14203D801200BB0C2
:1022B000BDE8F08F4A48408890FBF4F0484989799E
:1022C000484308992944B1FBF0F200FB1210604327
:1022D0000390434841880398B0FBF1F04049897965
:1022E00006FB010004903E4841880398B0FBF1F2E0
:1022F00001FB12093A484088A0EB090080B2069021
:10230000BDF8180090FBF4F080B20690AAEB05002F
:1023100087B2BDF81800874201DBBDF8187007FBD3
:1023200004F806A81FFA89F1C8F38F034FF0FF32B3
:102330000090049808F0FEFD8346BBF1000F01D029
:102340000220B4E7BDF81800B0EB980F09D11FFACE
:1023500088F31FFA89F1079A049808F0A7FE8346CC
:1023600001E04FF0010BBBF1000F07D10298B04222
:1023700004D03046FFF766FF83460296BBF1000F9C
:1023800022D0174880791649498848430399401A52
:10239000B0FBF4F080B20690AAEB050087B2BDF85E
:1023A0001800874201DBBDF8187007FB04F81FFA1C
:1023B00089F14346079A0498FFF740FC8346BBF136
:1023C000000F01D0032072E7781E054407984044AF
:1023D00007906D1C5545FFF455AF002067E70000DE
:1023E000D005002000B589B000BF00200190514801
:1023F000006840F080004F4908600846006800F01F
:102400008000019000BF00BF00BF0020019008467F
:10241000006840F4807008600846006800F480702E
:10242000019000BF00BF8020029000200390012097
:1024300004900320059002A93F4800F0ADFD4FF441
:10244000807002900120039002A93C4800F0A4FD96
:10245000FEF76EFC00203A4908600A200CF0B4FB3D
:1024600001203849C1F8A0020A200CF0ADFB802001
:1024700002900020039004900320059002A92E48AA
:1024800000F08AFD64200CF09FFB042207A948F2AB
:10249000401000F077F800208DF8200007A92AA04E
:1024A000FEF700F82BA107A8FEF778FA88B12AA159
:1024B00007A8FEF773FA60B129A107A8FEF76EFA24
:1024C00038B129A107A8FEF769FA10B1012009B0B7
:1024D00000BD21A107A8FEF761FA40BB02208DF8DC
:1024E0001C00012207A948F2400000F059FA01221D
:1024F00007A948F2470000F045F89DF81C00602845
:1025000007DA9DF81C101AA0FDF7CCFF012000F09F
:1025100019FA0A200CF058FB00208DF81C0001224B
:1025200007A948F2400000F03BFA0020CFE7002066
:10253000CDE7000030380240001C0240002002407D
:10254000A0024442000044424354502049443A25EA
:10255000730D0A0039313100393134370000000081
:1025600031313538000000003932373100000000C9
:1025700044656661756C74205665723A25640D0A6F
:10258000000000002DE9F04105460F461646FEF713
:1025900077FC2820FEF752FCFEF7A2FC2812FEF77B
:1025A0004DFCFEF79DFCE8B2FEF748FCFEF798FCF8
:1025B000FEF766FC2920FEF741FCFEF791FC0024A3
:1025C0000BE0711EA14201D0012100E0002108466C
:1025D000FEF70CFC3855601CC4B2B442F1DBFEF7C8
:1025E00069FCBDE8F081000071B583B000240026CD
:1025F000D0480078401CCF490870084600780A216E
:1026000090FBF1F201FB120018B1CA4800780A28C9
:1026100071DA012203A948F24E10FFF7B3FF9DF8CB
:102620000C0000F0800068B19DF80C0000F00F0075
:10263000062807DA00200190012201A948F24E1075
:1026400000F0AEF99DF80C0000F00F00002852D009
:102650009DF80C0000F00F000628D9DA9DF80C0058
:1026600000F00F01FF208840C0B20190B24890F8FE
:1026700034509DF80400C04380B240F0C000AE4921
:102680008886084681898182018C01850024F9E0D1
:10269000A948808E0121A140084000282AD0A749DE
:1026A00031F81400042202A9FFF76CFFA4488088C7
:1026B00045F21051884236D19F4890F8440000F00E
:1026C0000100C8B19DF808009DF8091000EB012039
:1026D00081B29948203020F814109DF80A009DF826
:1026E0000B1000EB0120C0F5487081B292480C300D
:1026F00020F81410C4E0F5E09DF808009DF80910DA
:1027000000EB012081B28C480C3020F814109DF8A9
:102710000A009DF80B1000EB012081B286482030A2
:1027200020F81410ACE08648808844F24231884298
:1027300035D1814890F8440000F00100B0B19DF817
:1027400008009DF8091000EB012081B27A480C3096
:1027500020F814109DF80A009DF80B1000EB0120E2
:1027600081B27548203020F8141089E09DF80800E7
:102770009DF8091000EB012081B26F48203020F84D
:1027800014109DF80A009DF80B1000EB0120C0F515
:10279000887081B268480C3020F8141070E06848E6
:1027A000808844F28431884235D1634890F84400EF
:1027B00000F00100B0B19DF808009DF8091000EB91
:1027C000012081B25C480C3020F814109DF80A00FA
:1027D0009DF80B1000EB012081B25748203020F803
:1027E00014104DE09DF808009DF8091000EB012041
:1027F00081B25148203020F814109DF80A009DF84D
:102800000B1000EB0120C0F5F07081B24A480C308B
:1028100020F8141034E0484890F8440000F001001B
:10282000C0B19DF808009DF8091000EB012081B2AD
:102830004148203020F814109DF80A009DF80B1034
:1028400000EB0120C0F5487081B23B480C3020F805
:10285000141015E09DF808009DF8091000EB012008
:1028600081B235480C3020F814109DF80A009DF80C
:102870000B1000EB012081B22F48203020F81410FB
:10288000601CC4B2052CFFF603AF01262A488089DC
:102890002B490988884205DC2748008C284949884B
:1028A00088421CDD9DF80C0000F00F0001280ADDB5
:1028B0002148C089204988810846408C088400202E
:1028C0001C4908700EE01C48808A1B498881084614
:1028D000008D0884802003900846858602E0002051
:1028E000144908709DF80C0000F08F00802817D163
:1028F000114890F8340000F0800030B10E48808E0E
:1029000020F080000C4988860AE04FF6FF700A49E3
:1029100088810884084690F8340000F0E00088863A
:1029200004480078F02802DD0A2002490870304689
:1029300004B070BDA00000204C000020E05C010845
:102940004C04002038B50546002400208DF8000016
:102950008DF8015000BF09E09DF800000F49095DA6
:102960000844C0B28DF80000601CC4B2B82CF3D388
:102970009DF80000C043401CC0B28DF80000B82292
:10298000064948F2470000F00BF80222694648F277
:10299000FF0000F005F8002038BD0000285C0108A9
:1029A0002DE9F04104460E4617464FF00008FEF7A9
:1029B00067FA2820FEF742FAFEF792FA2012FEF795
:1029C0003DFAFEF78DFAE0B2FEF738FAFEF788FA24
:1029D00000250BE0705DFEF731FAFEF781FA8046C4
:1029E000B8F1000F00D003E0681CC5B2BD42F1DBB6
:1029F00000BFFEF75FFA4046BDE8F08100B589B040
:102A000000BF002001904848006840F0800046491F
:102A100008600846006800F08000019000BF00BF19
:102A200000BF002001900846006840F480700860F4
:102A30000846006800F48070019000BF00BF80204D
:102A4000029000200390012004900320059002A929
:102A5000364800F0A1FA4FF48070029001200390F4
:102A600002A9334800F098FAFEF762F900224FF409
:102A700080712F4800F0A6FB0A200CF0A5F8012277
:102A800011022B4800F09EFB0A200CF09DF88020DC
:102A900002900020039004900320059002A923488F
:102AA00000F07AFA64200CF08FF8042207A948F2AB
:102AB000401000F055F800208DF8200007A91DA057
:102AC000FDF7F0FC1FA107A8FDF768FF48BB022037
:102AD0008DF81C00012207A948F24000FFF760FFB3
:102AE000012207A948F24700FFF74CFD9DF81C00A2
:102AF000412807DA9DF81C1014A0FDF7D3FC012033
:102B000000F068F90A200CF05FF800208DF81C0036
:102B1000012207A948F24000FFF742FF002009B058
:102B200000BD0120FBE7000030380240001C0240DD
:102B3000002002404354502049443A25730D0A0DA9
:102B40000A00000039323731000000004465666138
:102B5000756C74205665723A25640D0A00000000F9
:102B60002DE9F04105460F461646FEF789F9282063
:102B7000FEF764F9FEF7B4F92812FEF75FF9FEF7E5
:102B8000AFF9E8B2FEF75AF9FEF7AAF9FEF778F9BD
:102B90002920FEF753F9FEF7A3F900240BE0711E7C
:102BA000A14201D0012100E000210846FEF71EF9F4
:102BB0003855601CC4B2B442F1DBFEF77BF9BDE8C6
:102BC000F081000071B583B00020019000267D489F
:102BD0000078401C7B490870084600780A2190FB69
:102BE000F1F201FB120018B1764800780A286EDA7B
:102BF000012203A948F24E10FFF7B2FF9DF80C0026
:102C000000F0800068B19DF80C0000F00F000B2868
:102C100007DA00200190012201A948F24E1000F0CD
:102C200007F99DF80C0000F00F0000284FD09DF828
:102C30000C0000F00F000B28D9DA9DF80C0000F012
:102C40000F014FF6FF70884084B25F48858EE043E5
:102C500080B240F0C0005C49888608468189C18303
:102C6000018C41860020019053E05748808E9DF8EA
:102C7000042001219140084040B354499DF80420AC
:102C800031F81200062202A9FFF76AFF4E4890F8B9
:102C9000440000F00100D8B19DF80A009DF80B1027
:102CA00000EB012081B2484820309DF8042020F834
:102CB00012109DF808009DF8091000EB012081B268
:102CC00041480C309DF8042020F812101CE051E01F
:102CD0009DF80A009DF80B1000EB0120C0F548702C
:102CE00081B239480C309DF8042020F812109DF86C
:102CF00008009DF8091000EB012081B23248203015
:102D00009DF8042020F812109DF80400401CC0B269
:102D100001909DF804000A28A7DB01262A48808933
:102D20002B490988884205DC2748008C28494988B6
:102D300088421CDD9DF80C0000F00F0001280ADD20
:102D40002148C089204988810846408C0884002099
:102D50001C4908700EE01C48C08B1B49888108463E
:102D6000408E0884802003900846858602E000207B
:102D7000144908709DF80C0000F08F00802816D1CF
:102D8000114890F8340000F0800030B10E48808E79
:102D900020F080000C49888609E04FF6FF700A4950
:102DA000888108840846808E00F460408886054843
:102DB0000078F02802DD0A2002490870304604B08D
:102DC00070BD0000A10000204C000020A45D01089F
:102DD0004C04002038B50546002400208DF8000082
:102DE0008DF8015000BF09E09DF800000F49095D12
:102DF0000844C0B28DF80000601CC4B2B82CF3D3F4
:102E00009DF80000C043401CC0B28DF80000BA22FB
:102E1000064948F2470000F00BF80222694648F2E2
:102E2000FF0000F005F8002038BD0000EA5C010852
:102E30002DE9F04104460E4617464FF00008FEF714
:102E40001FF82820FDF7FAFFFEF74AF82012FDF7D9
:102E5000F5FFFEF745F8E0B2FDF7F0FFFEF740F8AA
:102E600000250BE0705DFDF7E9FFFEF739F88046BD
:102E7000B8F1000F00D003E0681CC5B2BD42F1DB21
:102E800000BFFEF717F84046BDE8F0812DE9F05F7E
:102E90008246884614462046E21704EB5272D2104E
:102EA0002146E31704EB5373DB10A4EBC3030BB110
:102EB000012300E000231A44624302F0FF099AF85C
:102EC00000600AF1010082460578812E05DB402D65
:102ED00003DBFF2D01D0FF2E0DD14FF0000B06E0DC
:102EE000002008F8010B0BF1010000F0FF0BCB45AF
:102EF000F6DBBDE8F09F7F2D03DAA5F14000C5B2F7
:102F000002E0A5F14100C5B2A6F18100C6B2BE2023
:102F100010FB065000FB09F70C2C06D0102C0DD02E
:102F2000182C14D0202C24D11AE01348D0F8090012
:102F3000C1194A4640460BF047FC1AE00E48D0F84B
:102F40001100C1194A4640460BF03EFC11E00A4808
:102F5000D0F81900C1194A4640460BF035FC08E08C
:102F60000548D0F82100C1194A4640460BF02CFC18
:102F700000BF00BF00BFBCE7501C002031B50024DB
:102F800000F026F9044600BF00F022F9001B00996A
:102F90008842F9D338BD0000F8B502460B4600253B
:102FA000002400200021E6E0012606FA01F51E6853
:102FB00006EA0504AC4273D15E68022E02D05E6858
:102FC000122E13D1CF0802F1200656F827004E0723
:102FD000F70E0F26BE40B0434F07FF0E1E69BE40DE
:102FE0003043CF0802F1200646F8270010684F0052
:102FF0000326BE40B0431E7906F003064F00BE40D4
:10300000304310605E68012E08D05E68022E05D045
:103010005E68112E02D05E68122E13D190684F00A8
:103020000326BE40B0434F00DE68BE403043906090
:10303000506801268E40B0431E79C6F300168E40BC
:1030400030435060D0684F000326BE40B0434F006D
:103050009E68BE403043D0605E6806F08056B6F190
:10306000805FA8D100BF00260096454E366846F422
:103070008046434F3E603E46366806F480460096E2
:1030800000BF00BF3F4E8F0856F827008E07370F4E
:103090000F26BE40B0433C4EB24202D100262EE085
:1030A00068E03A4EB24201D1012628E0384EB242E1
:1030B00001D1022623E0374EB24201D103261EE0A1
:1030C000354EB24201D1042619E0344EB24201D14C
:1030D000052614E0324EB24201D106260FE0314EF1
:1030E000B24201D107260AE02F4EB24201D1082692
:1030F00005E02E4EB24201D1092600E00A268F07D4
:103100003F0FBE4030431F4E8F0846F82700284E21
:103110003068A0435E6806F48036B6F5803F00D183
:103120002043234E3060361D3068A0435E6806F4AD
:103130000036B6F5003F00D120431D4E361D3060ED
:10314000361D3068A0435E6806F48016B6F5801F11
:1031500000D12043164E08363060361D3068A0433B
:103160005E6806F40016B6F5001F00D12043104E2D
:103170000C363060491C1029FFF416AFF8BD000072
:103180004438024008380140000002400004024078
:1031900000080240000C02400010024000140240EF
:1031A00000180240001C024000200240002402409F
:1031B000003C0140024613690B400BB1012000E0C6
:1031C000002070470AB1816101E00B048361704700
:1031D00001480068704700001400002002480068A1
:1031E000401C0149086070471400002010B50D48CC
:1031F000006840F400700B4908600846006840F41D
:10320000806008600846006840F48070086005200F
:1032100000F0FAFA0F2000F007F800F0F9F90020AA
:1032200010BD0000003C024070B5044600F06AFE8C
:103230004FF47A71B0FBF1F5284602F0B7FD002299
:103240002146501E00F0A1FA002070BD70B5044662
:103250000E46154600BF94F8A000012801D10220B7
:1032600070BD012084F8A00000BF022084F8A100F6
:1032700005EB850101EBC50204F1380101EB820089
:1032800034223146FDF70EFB2A463146204607F030
:1032900019F901202168486284F8A10000BF0020CC
:1032A00084F8A00000BF00BFDAE7000070B5044654
:1032B000002500260CB9012070BD94F8A10028B9A2
:1032C000002084F8A000204600F084F8022084F852
:1032D000A1002068806920F0704021688861D4E9ED
:1032E00001010843E16808432169084321688969AD
:1032F0000843216888612068806835490840216852
:103300008860A08A050420688068A1692943084371
:10331000216888602068C0682D4908402168C8601D
:10332000A08B05042068C068216A294308432168EE
:10333000C860206800692649084021680861A08C9F
:10334000050420680069A16A2943084321680861CF
:10335000206840691E49084021684861A08D050425
:1033600020684069216B294308432168486194F82B
:103370003500050294F8360006042068C06A00F0A3
:103380007F402168C86246EA050094F8341008437B
:103390002168C96A08432168C8622068406B40F010
:1033A0000400216848632068406B40F002002168F7
:1033B00048632068806940F001002168886100202E
:1033C000C4F8A400012084F8A100002074E70000E4
:1033D00000F800F010B586B0044600BF0020009051
:1033E0004D48006840F080604B490860084600681E
:1033F00000F08060009000BF00BF00BF0020009080
:1034000045481438006840F4000043491439086006
:103410000846006800F40000009000BF00BF00BF35
:10342000002000900846006840F00200086008464E
:10343000006800F00200009000BF00BF00BF002045
:1034400000900846006840F02000086008460068C8
:1034500000F02000009000BF00BF00BF00200090DF
:103460000846006840F0400008600846006800F028
:103470004000009000BF00BF00BF00200090084641
:10348000006840F0800008600846006800F0800096
:10349000009000BF00BF00BF0020009008460068F9
:1034A00040F4807008600846006800F48070009066
:1034B00000BF00BF20200190012002900390032054
:1034C000049001A91548FFF767FD4FF48060019053
:1034D0000220029000200390032004900E2005900B
:1034E00001A90F48FFF758FD4FF40C60019001A9A6
:1034F0000C48FFF751FD4FF47E40019001A90A48A6
:10350000FFF74AFD40F2F760019001A90748FFF775
:1035100043FD06B010BD00004438024000040240E4
:103520000014024000180240001C0240002002402B
:103530002DE9F04104460E461746984600BF94F820
:10354000A000012802D10220BDE8F081012084F80A
:10355000A00000BF022084F8A10008EB880000EB67
:10356000C80104F1380000EB81052E60A86A3044E0
:103570006860AF60E86A3844E86042462946204601
:1035800006F0A0FF01202168486284F8A10000BF76
:10359000002084F8A00000BF00BFD5E72DE9F0416E
:1035A00005460E461746984600BF95F8A00001282C
:1035B00002D10220BDE8F081012085F8A00000BF03
:1035C000022085F8A10008EB880000EBC80105F196
:1035D000380000EB810400202060206830446060E7
:1035E0000020A060A0683844E060A662E76242461E
:1035F0002146284606F066FF01202968486285F8C2
:10360000A10000BF002085F8A00000BF00BFD1E7E7
:1036100008B50020009000BF08BD70B504460E46F6
:1036200015460CB9012070BD94F8210028B900207E
:1036300084F82000204600F023F8211D2068FDF7C3
:10364000F3FD3146D4E90002FDF7D3FD2946D4E964
:103650000002FDF7B3FD6068102806D120680068FD
:1036600040F004002168086005E02068006A40F02E
:10367000040021680862012084F821000020D2E7BC
:1036800010B586B0044600BF0020009034480068A2
:1036900040F00100324908600846006800F001006F
:1036A000009000BF00BF00BF002000902C480838E9
:1036B000006840F008002A49083908600846006898
:1036C00000F00800009000BF00BF00BF0020009085
:1036D0000846006840F0100008600846006800F0E6
:1036E0001000009000BF00BF00BF002000900846FF
:1036F000006840F0400008600846006800F04000A4
:10370000009000BF00BF40200190002002900120E7
:1037100003900320049001A91248FFF73DFC4FF4E9
:10372000007001900220029000200390032004907A
:103730000C20059001A90C48FFF72EFC4DF6330034
:1037400001900020039001A90648FFF725FC4FF4E3
:10375000F060019001A90548FFF71EFC06B010BDFE
:1037600038380240000C02400018024000100240AD
:1037700000BF00F01F02012191404209920002F1B6
:10378000E022C2F8001100BF70472DE9F05F8046CB
:103790000D461646002707F0A5FD074639462A467E
:1037A000334601F00700C0F1070ABAF1040F02D94D
:1037B0004FF0040A01E0C0F1070AD14600F1040A03
:1037C000BAF1070F02D24FF0000A01E0A0F1030A9C
:1037D000D4464FF0010A0AFA09FAAAF1010A0AEAE4
:1037E000020A0AFA0CFA4FF0010B0BFA0CFBABF1D0
:1037F000010B0BEA030B4AEA0B042146404607F093
:1038000079FDBDE8F09F000000BF00F00702064B05
:1038100019684FF6FF031940044B0B4343EA02219A
:10382000014B196000BF70470CED00E00000FA0585
:1038300038B5002400BF002000902348006840F005
:103840008050214908600846006800F080500090D0
:1038500000BF00BF0120010491FAA1F1B1FA81F18A
:103860001A4A42F82100FFF7B3FC044607E0FFF7CD
:10387000AFFC001BB0F57A7F01D9032038BD144896
:10388000406800F48030B0F5803FF0D10120410461
:1038900091FAA1F1B1FA81F10C4A42F82100FFF747
:1038A00097FC044607E0FFF793FC001BB0F57A7F16
:1038B00001D90320E2E70648406800F40030B0F583
:1038C000003FF0D10020D9E74038024000000E420E
:1038D000007000400120010291FAA1F1B1FA81F1DA
:1038E000014A42F82100704700000E42F8B5044634
:1038F00000250026207800F0010020B9207800F093
:103900000200022866D10020CC498866FFF760FCDF
:10391000054606E0FFF75CFC401B642801D9032044
:10392000F8BDC7480068C0F3C0600028F2D1207815
:1039300000F0010098B147F6C07191FAA1F1B1FA17
:1039400081F1606888404FF0E04292FAA2F2B2FA48
:1039500082F2A16891400843B94984310860207817
:1039600000F00200022821D1B5488430006800F040
:10397000E0404FF0E04191FAA1F1B1FA81F120FA73
:1039800001F660688101207B41EA006040EA067030
:10399000AB4984310860AA488C30006820F01F00D1
:1039A000E169491E0843A6498C3108600120A349FA
:1039B0008866FFF70DFC054606E0FFF709FC401B93
:1039C000642801D90320ABE79D480068C0F3C060BC
:1039D0000028F2D0207800F00400042804D02078D9
:1039E00000F0080008287DD1002094490867FFF7FF
:1039F000EFFB054606E0FFF7EBFB401B642801D90F
:103A000003208DE78E480068C0F340700028F2D193
:103A1000207800F00400042834D1894888300068F8
:103A200000F0E0404FF0E04191FAA1F1B1FA81F1EC
:103A300020FA01F647F6C07191FAA1F1B1FA81F1CD
:103A4000206988404FF0706292FAA2F2B2FA82F2D4
:103A50006169914008434FF0E04191FAA1F1B1FA58
:103A600081F106FA01F10843754988310860081DA3
:103A7000006820F4F851206A401E41EA0020704995
:103A80008C310860207800F00800082834D16C4898
:103A90008830006800F070604FF0706191FAA1F119
:103AA000B1FA81F120FA01F647F6C07191FAA1F15D
:103AB000B1FA81F1206988404FF0706191FAA1F16B
:103AC000B1FA81F106FA01F108434FF0E04292FAAF
:103AD000A2F2B2FA82F2A1699140084358498831B2
:103AE000086000E01CE0081D006820F44030616AB6
:103AF000084353498C310860012050490867FFF79B
:103B000067FB054606E0FFF763FB401B642801D90D
:103B1000032005E74A480068C0F340700028F2D04F
:103B2000207800F0200020287DD100BF00200090E8
:103B300043484030006840F08050414940310860BF
:103B40000846006800F08050009000BF00BF3D486C
:103B5000006840F480703B490860FFF739FB054678
:103B600006E0FFF735FB401B642801D90320D7E6A8
:103B70003448006800F480700028F2D0304870307B
:103B8000006800F44070218D01F4407188424AD0F1
:103B90002B487030006820F4407601202A490860E4
:103BA0000020086026487030066006F0020098B1D8
:103BB000FFF70EFB054608E0FFF70AFB401B41F24A
:103BC0008831884201D90320AAE61D487030006878
:103BD000C0F340000028EFD000BF208D00F44070FB
:103BE000B0F5407F0CD116480830006820F4F8107A
:103BF000164AA16A1140084311490831086007E0DC
:103C00000F480830006820F4F8100D4908310860AA
:103C10000B4870300068218DC1F30B01084308493F
:103C20007031086000BF207800F01000102803D128
:103C300094F82C0006490860002071E60000474215
:103C40000038024000700040400E4742FFFCFF0F6A
:103C5000E011474270B504460E460025A7480068AB
:103C600000F00F00B0426FD2A4490E700846006801
:103C700000F00F00B04201D0012070BD207800F0AC
:103C80000200022807D19E48006820F0F000A168D9
:103C900008439B490860207800F0010000283ED0CE
:103CA0006068012807D1964808380068C0F3404092
:103CB000B8B90120E1E76068022802D060680328F3
:103CC00007D18F4808380068C0F3406048B9012028
:103CD000D3E78B4808380068C0F3400008B90120DA
:103CE000CBE78748006820F00300616808438449F7
:103CF0000860FFF76DFA05466068012810D108E0FA
:103D0000FFF766FA401B41F28831884201D903204F
:103D1000B3E77B48006800F00C000428F0D1CDE048
:103D20006068022811D108E0FFF752FA401B41F207
:103D30008831884201D903209FE77148006800F06C
:103D40000C000828F0D1B9E024E06068032810D105
:103D500008E0FFF73DFA401B41F28831884201D963
:103D600003208AE76648006800F00C000328F0D1C1
:103D7000A4E008E0FFF72CFA401B41F288318842AA
:103D800001D9032079E75E48006800F00C000028A4
:103D9000F0D193E0207800F00200022807D15848C3
:103DA000006820F0F000A1680843554908602078B9
:103DB00000F00100002877D06068012807D1504842
:103DC00008380068C0F34040B8B9012055E7606882
:103DD000022802D06068032807D1494808380068E3
:103DE000C0F3406048B9012047E7454808380068FB
:103DF000C0F3400008B901203FE74148006820F0C7
:103E00000300616808433E490860FFF7E1F9054691
:103E10006068012810D108E0FFF7DAF9401B41F291
:103E20008831884201D9032027E73548006800F02F
:103E30000C000428F0D137E06068022810D108E0B7
:103E4000FFF7C6F9401B41F28831884201D90320AF
:103E500013E72B48006800F00C000828F0D123E09D
:103E60006068032810D108E0FFF7B2F9401B41F267
:103E70008831884201D90320FFE62148006800F01C
:103E80000C000328F0D10FE008E0FFF7A1F9401B78
:103E900041F28831884201D90320EEE618480068D3
:103EA00000F00C000028F0D114490E70084600689C
:103EB00000F00F00B04201D00120DEE6207800F0D3
:103EC0000400042807D10E48006820F4E050E1689F
:103ED00008430B490860207800F00800082808D142
:103EE0000748006820F46040216940EAC1000449A5
:103EF00008600F20FFF798F90020BEE6003C024062
:103F00000838024010B500F045F80949096801F089
:103F1000F001F02292FAA2F2B2FA82F2D140054AFE
:103F2000515CC840044908600846006810BD0000A4
:103F300008380240C01401080000002010B5FFF747
:103F4000E1FF0749096801F4E0514FF4E05292FAA9
:103F5000A2F2B2FA82F2D140024A515CC84010BDCE
:103F600008380240C014010810B5FFF7CBFF07491D
:103F7000096801F460414FF4604292FAA2F2B2FA89
:103F800082F2D140024A515CC84010BD083802405C
:103F9000C014010870B50021002200230020274C26
:103FA000246804F00C0424B1042C04D0082C41D162
:103FB00003E0234840E023483EE0204C241F2468CF
:103FC00004F03F011D4C241F246804F4800484B1D4
:103FD0001C4CB4FBF1F5194C241F246847F6C0763D
:103FE000344096FAA6F6B6FA86F6F44005FB04F2DB
:103FF0000FE0134CB4FBF1F5104C241F246847F676
:10400000C076344096FAA6F6B6FA86F6F44005FB7A
:1040100004F20A4C241F246804F440344FF4403561
:1040200095FAA5F5B5FA85F5EC40641C6300B2FB82
:10403000F3F001E0024800BF00BF70BD0838024045
:104040000024F40040787D0138B50446002520782E
:1040500000F00100002866D0F748006800F00C006E
:1040600004280DD0F448006800F00C00082813D193
:10407000F148001F006800F48000B0F5800F0BD1FC
:10408000ED4808380068C0F3404000284BD0606815
:10409000002848D1012038BD0020E749891F087059
:1040A000FFF796F8054608E0FFF792F8401B41F24B
:1040B0008831884201D90320EDE7DF4808380068DD
:1040C000C0F340400028EFD12079DB49891F0870F8
:1040D0006068A0B1FFF77CF8054608E0FFF778F8C4
:1040E000401B41F28831884201D90320D3E7D248EE
:1040F00008380068C0F340400028EFD013E0FFF715
:1041000067F8054608E0FFF763F8401B41F2883185
:10411000884201D90320BEE7C74808380068C0F3C9
:1041200040400028EFD1207800F00200022869D139
:10413000C148006800F00C0058B1BF48006800F0AA
:104140000C00082821D1BC48001F006800F4800042
:10415000D8B9B94808380068C0F3400020B1E06819
:10416000012801D0012096E7B3480838006820F004
:10417000F800F82292FAA2F2B2FA82F22169914092
:104180000843AD49083908603CE0E06828B30120E5
:10419000AA490860FFF71CF8054606E0FFF718F883
:1041A000401B642801D9032075E7A348083800683C
:1041B000C0F340000028F1D09F480838006820F084
:1041C000F800F82292FAA2F2B2FA82F22169914042
:1041D000084399490839086014E0002097490860AD
:1041E000FEF7F6FF054606E0FEF7F2FF401B6428E7
:1041F00001D903204FE7904808380068C0F3400019
:104200000028F1D1207800F0080008282CD160693E
:10421000A8B101208A490860FEF7DAFF054606E0EA
:10422000FEF7D6FF401B642801D9032033E78248FC
:104230006C300068C0F340000028F1D014E000208A
:104240007F490860FEF7C4FF054606E0FEF7C0FFA1
:10425000401B642801D903201DE777486C300068B3
:10426000C0F340000028F1D1207800F004000428B9
:104270006FD100BF002000906F483830006840F0D8
:1042800080506D49383108600846006800F0805061
:10429000009000BF00BF6B48006840F4807069491F
:1042A0000860FEF795FF054606E0FEF791FF401B0C
:1042B000642801D90320EEE66248006800F48070AB
:1042C0000028F2D000205C4968310870FEF780FFBA
:1042D000054608E0FEF77CFF401B41F2883188422A
:1042E00001D90320D7E6544868300068C0F3400085
:1042F0000028EFD1207A504968310870A068A0B139
:10430000FEF766FF054608E0FEF762FF401B41F23C
:104310008831884201D90320BDE6474868300068EB
:10432000C0F340000028EFD013E0FEF751FF054630
:1043300008E0FEF74DFF401B41F28831884201D969
:104340000320A8E63C4868300068C0F3400000281D
:10435000EFD1A069F0B33848006800F00C000828DD
:1043600072D0A069022850D1002034490866FEF7B7
:104370002FFF054606E0FEF72BFF401B642801D9FE
:10438000032088E62C4808380068C0F34060002805
:10439000F1D1D4E90701084347F6C07292FAA2F2BC
:1043A000B2FA82F2616A914008430122A16AC2EB2B
:1043B00051014FF4403292FAA2F2B2FA82F29140E5
:1043C00008434FF0706292FAA2F2B2FA82F2E16A06
:1043D000914000E03AE008431749091F08600120B6
:1043E00016490866FEF7F4FE054606E0FEF7F0FE05
:1043F000401B642801D903204DE60F4808380068A7
:10440000C0F340600028F1D020E000200B4908668E
:10441000FEF7DEFE054606E0FEF7DAFE401B6428E6
:1044200001D9032037E6044808380068C0F340602B
:104430000028F1D10AE007E00838024000004742B6
:10444000800E474200700040012024E6002022E652
:10445000704702460023106800F1500303EB81030C
:104460001868704710B50023046804F1500303EB8B
:1044700081031A6010BD00002DE9F04104460D468D
:104480001646002700BF207F012802D10220BDE888
:10449000F0810120207700BF0220607700BFCA2092
:1044A0002168486253202168486200BF2068806804
:1044B00000F48060E0B1FEF78BFE074612E0FEF7E5
:1044C00087FEC01BB0F57A7F0CD900BFFF202168A2
:1044D000486200BF0320607700BF0020207700BF44
:1044E0000320D4E72068C068C0F380000028E6D12C
:1044F0002068806820F4806021688860FEF768FE8C
:10450000074612E0FEF764FEC01BB0F57A7F0CD9B7
:1045100000BFFF202168486200BF0320607700BF12
:104520000020207700BF0320B1E72068C068C0F3F7
:1045300080000028E6D0206845612068806820F06F
:10454000070021688860206880683043216888609F
:104550001348006840F48000114908601048083092
:10456000006840F480000E490831086020688068C7
:1045700040F48040216888602068806840F4806052
:104580002168886000BFFF202168486200BF0120C9
:10459000607700BF0020207700BF00BF77E70000F2
:1045A000003C01400449096809B9012100E00021EB
:1045B000014A1160704700008082404210B50446F5
:1045C0002068C068C0F3802078B12068806800F45B
:1045D000804050B12046FFF7E5FF2068C06800F03A
:1045E000800060F490602168C8604FF48000024948
:1045F00008600120607710BD143C014010B50446EE
:1046000001A0FBF74FFF10BD414C41524D2041210D
:104610000D0A000010B504462068C068C0F30020F1
:1046200078B12068806800F4805050B12046FFF7D0
:10463000E5FF2068C06800F0800060F4C070216869
:10464000C8602068C068C0F3402078B120688068E6
:1046500000F4005050B12046FFF7FAFE2068C06811
:1046600000F0800060F420702168C8604FF40030D2
:10467000024908600120607710BD0000143C014031
:1046800070B505460B4616460024286840680E495A
:1046900000EA0104200CD870C4F30420587004F020
:1046A0003F009870C4F3423018705EB9D87807F0B4
:1046B0007DF8D870587807F079F85870987807F036
:1046C00075F89870002070BD3FFFFF0070B504467C
:1046D0000B46164600252068806A586020680069ED
:1046E000C0F30E009860206800680F4900EA0105D9
:1046F000C5F305401870C5F30620587005F07F001B
:10470000987005F48000000CD8705EB9187807F036
:104710004DF81870587807F049F85870987807F0F5
:1047200045F89870002070BD7F7F7F0010B504466B
:104730000CB9012010BD607F20B9002020772046F1
:1047400000F04EF80220607700BFCA20216848625E
:1047500053202168486200BF204607F03FF840B16F
:1047600000BFFF202168486200BF0420607701205D
:10477000E0E720688068194908402168886021695D
:1047800060680843616908432168896808432168B3
:1047900088602168E068086120680169208941EA31
:1047A0000040216808612068C06820F0800021680E
:1047B000C8602068006C20F48020216808642068AC
:1047C000006CA16908432168086400BFFF202168CC
:1047D000486200BF012060770020ABE7BFFF8FFF7A
:1047E00010B59AB0044600BF00200190114800683F
:1047F00040F080500F4908600846006800F0805083
:10480000019000BF00BFFFF765F804200E90002064
:104810001490012010900EA8FFF716FC20200290A3
:10482000C0000C9002A8FFF761F80120024908605F
:104830001AB010BD403802403C0E47422DE9F04707
:1048400004460D4616460027B846B94600BF207FED
:10485000012802D10220BDE8F0870120207700BFA7
:104860000220607746BB2068806800F0400000B1FD
:1048700002E00020E87000BFE86900B900E000BF76
:10488000287806F09EFF0304687806F09AFF43EA52
:104890000023A87806F095FF0343E87843EA004335
:1048A00095F8200006F08DFF43EA0060E9690843AF
:1048B000696940EA01082DE02068806800F0400046
:1048C00020B1287806F072FF804602E00020E870F0
:1048D00000BFE86928B995F8200006F067FF804618
:1048E00005E095F8200006F061FF804600BF2878BB
:1048F0000004697840EA0120A9780843E97840EA91
:10490000014095F8201040EA0160E96908436969AF
:1049100040EA0108A969686840EA010900BFCA20A5
:104920002168486253202168486200BF686AB0F578
:10493000807F3DD12068806820F480702168886085
:104940002068C06800F0800060F4C0702168C86012
:10495000FEF73EFC074612E0FEF73AFCC01BB0F53E
:104960007A7F0CD900BFFF202168486200BF032076
:10497000607700BF0020207700BF03206BE720682E
:10498000C06800F001000028E6D02068C0F81C8054
:104990002068C0F844902068806840F480702168E6
:1049A00088602068806840F48050216888603CE01E
:1049B0002068806820F40070216888602068C068E2
:1049C00000F0800060F420702168C860FEF700FCF1
:1049D000074612E0FEF7FCFBC01BB0F57A7F0CD94E
:1049E00000BFFF202168486200BF0320607700BF3E
:1049F0000020207700BF03202DE72068C068C0F3A7
:104A000040000028E6D02068C0F820802068C0F868
:104A100048902068806840F40070216888602068B1
:104A2000806840F40050216888600D48006840F4B8
:104A300000300B4908600A480830006840F4003034
:104A400007490831086000BFFF202168486200BFA5
:104A50000120607700BF0020207700BF00BFFAE68A
:104A6000003C01402DE9F04104460D461646002762
:104A700000BF207F012802D10220BDE8F081012083
:104A8000207700BF022060774EB9687800F01000F0
:104A9000102804D1687800F0EF000A30687086B9F9
:104AA000E87806F08EFE0304687806F08AFE43EA92
:104AB0000023A87806F085FE0343287843EA4037B0
:104AC00011E0687806F072FE0746A87806F06EFEE0
:104AD0000746E8780004697840EA0120A97808438D
:104AE000297840EA413700BFCA2021684862532034
:104AF0002168486200BF204606F070FE60B100BF2A
:104B0000FF202168486200BF0420607700BF0020BA
:104B1000207700BF0120B0E7164838402168486080
:104B20002068C06820F080002168C8602068806824
:104B300000F0200080B9204600F0B8F860B100BF56
:104B4000FF202168486200BF0420607700BF00207A
:104B5000207700BF012090E700BFFF202168486256
:104B600000BF0120607700BF0020207700BF00BF9A
:104B700083E700003FFFFF002DE9F04104460D46AA
:104B80001646002700BF207F012802D10220BDE881
:104B9000F0810120207700BF02206077CEB9206825
:104BA000806800F0400000B102E00020E87000BF23
:104BB000287806F006FE0304687806F002FE43EA51
:104BC0000023A87806F0FDFD0343E87843EA004798
:104BD00016E02068806800F0400020B1287806F0D8
:104BE000E5FD074602E00020E87000BF28780004D9
:104BF000697840EA0120A9780843E97840EA01474A
:104C000000BFCA202168486253202168486200BF63
:104C1000204606F0E3FD60B100BFFF202168486236
:104C200000BF0420607700BF0020207700BF012074
:104C3000ADE71D483840216808602068806820F48E
:104C4000802021688860D5E90301084321688968CC
:104C50000843216888602068C06820F080002168CF
:104C6000C8602068806800F0200080B9204600F00D
:104C70001DF860B100BFFF202168486200BF04201A
:104C8000607700BF0020207700BF01207FE700BFD2
:104C9000FF202168486200BF0120607700BF00202C
:104CA000207700BF00BF72E77F7F7F0070B50446AA
:104CB00000252068C06820F0A0002168C860FEF7C9
:104CC00087FA054607E0FEF783FA401BB0F57A7FC6
:104CD00001D9032070BD2068C06800F020000028C2
:104CE000F1D00020F6E770B504460D460CB901205E
:104CF00070BD94F82C0028B9002084F82D002046BF
:104D000000F012F8022084F82C00211D2068FCF726
:104D100044FB2946D4E90002FCF7A9FB012084F8F2
:104D20002C000020E4E7000010B586B0044600BF68
:104D3000002000904348006840F0010041490860AD
:104D40000846006800F00100009000BF00BF00BFEF
:104D5000002000903B480838006840F004003949C2
:104D6000083908600846006800F00400009000BFA1
:104D700000BF00BF002000900846006840F0080017
:104D800008600846006800F00800009000BF00BFFF
:104D900000BF002000900846006840F01000086046
:104DA0000846006800F01000009000BF00BF00BF80
:104DB000002000900846006840F020000860084687
:104DC000006800F02000009000BF00BF00BF00207E
:104DD00000900846006840F04000086008460068FF
:104DE00000F04000009000BF00BF0D2001900220A5
:104DF000029001200390032004900C20059001A94B
:104E00001148FEF7C9F84CF20370019001A90F4850
:104E1000FEF7C2F84FF68370019001A90C48FEF727
:104E2000BBF84FF63F00019001A90A48FEF7B4F81D
:104E300048F23710019001A90748FEF7ADF806B017
:104E400010BD00003838024000080240000C02404B
:104E500000100240001402400018024070B50446E1
:104E60000D4694F82C00022800D170BD022084F871
:104E70002C0029462068FCF7CAFA012084F82C008F
:104E80000020F2E770B504460D46164694F82C0053
:104E9000022800D170BD022084F82C003246294639
:104EA0002068FCF7BBFA2868022803D1052084F8A3
:104EB0002C0002E0012084F82C000020EAE72DE914
:104EC000F04103460020002293F8204081F856402C
:104ED0009C8CA1F854409C6A220E94090C70C2F379
:104EE00083044C7002F003048C709C6AC4F3074284
:104EF000CA701C8DC4F307220A7193F828204A71E6
:104F0000DC6A220E4FF6FF7404EA0214CC80DC6ADD
:104F1000C4F30742CC8844EA1214CC8002F00F0498
:104F20000C729C8DC4F30722D4094C72C2F3801416
:104F30008C72C2F34014CC72C2F300140C730024C0
:104F40004C731C6A14B11C6A012C4DD19407240DBA
:104F50000C612C24E25C0C6944EA82040C611C6B39
:104F6000220E0C6944EA92140C61C2F3C2040C755F
:104F700002F007044C751C6BC4F3074254098C758E
:104F8000C2F38204CC759407640F0C761C8EC4F3B4
:104F900007220C7E44EAD2140C760C69641C0025AE
:104FA000C1E912450C7ED1E91267A41C012505FA5E
:104FB00004F44FEAE47CA6FB045807FB048406FBD8
:104FC0000C44C1E912540D7A0124AC400C65002652
:104FD000D1E912570C6DA5FB04C807FB048405FB3F
:104FE0000644C1E912C435E01C6A022C31D12C24DC
:104FF000E25C9406A40A0C611C6B220E0C6944EA64
:1050000002240C611C6BC4F307420C6914430C614D
:105010001C8EC4F307220C690025641C45EB050CAB
:105020004FF400770026A4FB07580CFB078704FB0E
:10503000067C4FF480672C466546B446A4FB07689F
:1050400005FB078504FB0C54C1E912647C100C6558
:1050500000E02920C2F3801401F8194F9406640E71
:105060004C703024E25C4C7844EAD2144C7002F06C
:105070007F048C705C6B220ED409CC70C2F3411497
:105080000C71C2F382044C719407240F8C715C6B19
:10509000C4F307428C7944EA92148C71C2F3401431
:1050A000CC7100240C7202F001044C729C8EC4F38B
:1050B0000722D4098C72C2F38014CC72C2F340145C
:1050C0000C73C2F300144C73C2F381048C7302F0AE
:1050D0000304CC733424E25C54080C7401244C7433
:1050E0009C6B220ECA7419399C6BC4F307424FF6AD
:1050F000FF7404EA0225CD851C8FC4F30722CC8DF2
:105100001443CC8593F8382015060D63DC6B220E12
:105110000C6B44EA02450D63DC6BC4F307420C6B75
:1051200044EA02250D639C8FC4F307220C6B1443E1
:105130000C633C24E25C342462541C6C220E352443
:1051400062541C6CC4F3074215068D634024E45A74
:10515000C4F307228C6B44EA02458D634024E25C71
:105160008C6B44EA02258D635C6C220E8C6B1443BD
:105170008C635C6CC4F307423C24645C44EA121404
:105180003C256C541407250DCD874424E45AC4F300
:105190000722CC8F1443CC874424E25C550840247A
:1051A0006554012541246554BDE8F08130B58BB0CC
:1051B00004460D4600200A902077204600F044F86F
:1051C00000200490059006900790089076200990A2
:1051D00007A807C88DE80700206804A90EC906F0D3
:1051E000FFFB204607F0A4F80A909DF8280018B1AC
:1051F0009DF828000BB030BD204606F031FF0A9024
:105200009DF8280010B19DF82800F3E729462046B4
:10521000FFF755FE0A909DF8280040B9B5F85400F4
:1052200001040A460023204607F07CF90A90D4E9DD
:105230000412A069CDE90012029094E80F0006F074
:10524000CFFB9DF82800D5E710B586B0044600BF17
:10525000002000902948006840F400602749086059
:105260000846006800F40060009000BF00BF00BF67
:105270000020009021481438006840F480001F4945
:10528000143908600846006800F48000009000BFF0
:1052900000BF00BF002000900846006840F00400F6
:1052A00008600846006800F00400009000BF00BFDE
:1052B00000BF002000900846006840F00800086029
:1052C0000846006800F00800009000BF00BF4FF4DF
:1052D000F8500190022002900120039003200490D6
:1052E0000C20059001A90648FDF756FE0420019008
:1052F00001A90448FDF750FE06B010BD4438024035
:1053000000080240000C02402DE9FF5F8CB004460B
:1053100017469846DDE91AB94FF0000A00250D9EA0
:1053200000202168C862206A022809D14FF4007B5E
:105330000202002338464146FBF73DF807468846FF
:10534000CDF81CB0102008904020099000200A9051
:105350004FF480600B9007A9206806F064FB1021D1
:10536000204606F019FC8246BAF1000F03D05046E1
:1053700010B0BDE8F09F4FF0FF30019009FB0BF03B
:1053800002909020039002200490002005900120BC
:10539000069001A9206806F0F7FAB9F1010F02D9C9
:1053A0001220089001E011200890079707A92068B3
:1053B00006F039FBB9F1010F22D91221204606F07F
:1053C000EBFB8246BAF1000F01D05046D0E70FE068
:1053D0002068406B00F4004050B1002505E02068D3
:1053E00006F01DFB46F825006D1C082DF7D320366E
:1053F0002068406B40F22A3108400028E8D021E0C4
:105400001121204606F0C8FB8246BAF1000F01D0F8
:105410005046ADE70FE02068406B00F4004050B10B
:10542000002505E0206806F0FAFA46F825006D1C14
:10543000082DF7D320362068406B40F22A610840DF
:105440000028E8D02068406B00F4807070B1B9F19A
:10545000010F0BD9206A28B1206A012802D0206AE6
:10546000022803D1204600F047F882462068406BAE
:1054700000F0080030B10820216888634FF0040A6A
:10548000504675E72068406B00F0020028B102200A
:1054900021688863824650466AE72068406B00F0C6
:1054A000200030B12020216888634FF0060A504662
:1054B0005EE72068406B00F4007038B14FF4007074
:1054C000216888634FF0070A504651E74FF0FF35D7
:1054D00005E0206806F0A3FA3060361D6D1E2068D6
:1054E000406B00F4001008B1002DF2D140F2FF50E3
:1054F0002168886350463BE730B585B004460025F7
:10550000002000900C200190402002900020039089
:105510004FF4806004906946206806F084FA0C21FC
:10552000204606F039FB0546284605B030BD70B56B
:105530008AB004460D460026206A032803D1272698
:1055400030460AB070BD206A28B1206A012802D016
:10555000206A022828D1B5F5805F01D127260EE008
:10556000B5F5006F04D1204607F043F8064606E083
:1055700025B9204606F0F2FF064600E026269EB931
:1055800060680490A0680590E068069007956069DF
:105590000890A069099007A807C88DE8070020684F
:1055A00004A90EC906F01CFA3046CAE72DE9FF5FD0
:1055B0008EB0044617469846DDF874B0002002907D
:1055C0008146002500260190DDF83CA0009021686E
:1055D000C862206A022809D100021C9002460023FA
:1055E00038464146FAF7E7FE074688461C98099078
:1055F00010200A9040200B9000200C904FF4806007
:105600000D9009A9206806F00EFA1021204606F038
:10561000C3FA0290029818B1029812B0BDE8F09F48
:10562000BBF1010F02D919200A9001E018200A905D
:10563000099709A9206806F0F6F9BBF1010F05D911
:105640001921204606F0A8FA029004E0182120460D
:1056500006F0A2FA0290029808B10298DDE71C98C1
:105660000BFB00F94FF0FF3003901C980BFB00F090
:10567000049090200590002006900790012008904B
:1056800003A9206806F080F9BBF1010F3AD931E097
:105690002068406B00F4804060B3A9EB050020282F
:1056A0001BD2A9EB050000F0030018B9A9EB050017
:1056B000800803E0A9EB05008008401C019000264B
:1056C00007E05146206806F0C2F90AF1040A2D1DD0
:1056D000761C019886420DD2F3E7002605E00AEB1E
:1056E0008601206806F0B3F9761C082EF7D30AF17C
:1056F000200A20352068406B40F21A31084000280B
:10570000C6D039E031E02068406B00F4804060B3DF
:10571000A9EB050020281BD2A9EB050000F003002F
:1057200018B9A9EB0500800803E0A9EB0500800883
:10573000401C0190002607E05146206806F087F9DA
:105740000AF1040A2D1D761C019886420DD2F3E75A
:10575000002605E00AEB8601206806F078F9761C41
:10576000082EF7D30AF1200A20352068406B40F25A
:105770001A6108400028C6D02068406B00F4807091
:1057800070B1BBF1010F0BD9206A28B1206A012842
:1057900002D0206A022803D12046FFF7ADFE029016
:1057A0002068406B00F0080030B108202168886351
:1057B00004200290029830E72068406B00F002005D
:1057C00028B10220216888630290029825E72068AA
:1057D000406B00F0100030B1102021688863052074
:1057E0000290029819E72068406B00F4007038B10D
:1057F0004FF40070216888630720029002980CE73C
:1058000040F2FF50216888636946204606F0A6FCF6
:10581000029004E06946204606F0A0FC029002983F
:1058200038B99DF800000728F4D09DF8000006283C
:10583000F0D00298F1E610B504460CB9012010BD75
:1058400094F8510028B9002084F85000204600F058
:1058500037F8022084F851002068006820F04000EA
:1058600021680860D4E901010843E168084321691F
:10587000084361690843218B01F400710843E16921
:105880000843216A0843A16A08432168086004218B
:10589000A06901EA1040616A0843216848602168F4
:1058A000E06A08612068C06920F400602168C8616E
:1058B00000206065012084F851000020BFE700004F
:1058C00010B586B0044600BF00200090174800685D
:1058D00040F02000154908600846006800F02000EC
:1058E000009000BF00BF00BF002000900F481430A0
:1058F000006840F480100D491431086008460068C3
:1059000000F48010009000BF00BF4FF46070019061
:1059100002200290012003900220049005200590AF
:1059200001A90348FDF738FB06B010BD303802402E
:10593000001402402DE9F84F04460E4617461D4656
:10594000DDF828904FF00008C24694F85180B8F175
:10595000010F02D0B8F1220F76D10EB107B115B9FF
:105960000120BDE8F88F00BF94F85000012801D154
:105970000220F6E7012084F8500000BF94F851009F
:10598000012802D1322084F8510000206065A7630D
:10599000A587E5872663A586E586A064E064A06AFE
:1059A000B0F5005F0DD100BF2068006820F4005002
:1059B000216808602068006840F400502168086091
:1059C00000BF2068006800F04000402805D0206833
:1059D000006840F0400021680860E068B0F5006FA2
:1059E00075D1606830B16068B0F5827F0CD1E08E0F
:1059F000012809D1206B00882168C860206B801CB9
:105A00002063E08E401EE086E08EF0B9A06AB0F51B
:105A1000005F05D12068006840F48050216808606C
:105A20004B4600220121204606F0D6FE08B1032095
:105A300097E72068C068A16B0880A06B801CA063FA
:105A4000E08F401EE087C7E01BE131E04B460022BB
:105A50000221204606F0C0FE08B1032081E7206B3A
:105A600000882168C860206B801C2063E08E401E87
:105A7000E086E08E48B9A06AB0F5005F05D12068E5
:105A8000006840F48050216808604B4600220121E4
:105A9000204606F0A1FE08B1032062E72068C06836
:105AA000A16B0880A06B801CA063E08F401EE08784
:105AB000E08E0028CADC60680028C4D14B46002272
:105AC0000121204606F088FE10B1032049E70AE0D4
:105AD0002068C068A16B0880A06B801CA063E08F69
