:020000040800F2
:10000000D809002061020008CF6B0008DB2D000832
:10001000CD6B0008B7070008298600080000000023
:10002000000000000000000000000000C96F000890
:10003000150A000800000000E16E00085170000879
:100040007B0200087B0200087B0200087B0200089C
:100050007B0200087B0200087B0200087B0200088C
:100060007B0200087B0200087B0200087B0200087C
:100070007B0200087B0200087B0200087B0200086C
:100080007B0200087B0200087B0200087B0200085C
:100090007B0200087B0200087B0200087B0200084C
:1000A0007B0200087B0200087B0200087B0200083C
:1000B0007B0200087B0200087B0200087B0200082C
:1000C0007B0200087B0200087B0200087B0200081C
:1000D0007B020008A9850008ED8500087B02000866
:1000E0007B0200087B0200087B0200087B020008FC
:1000F0007B0200087B0200087B0200087B020008EC
:100100007B0200087B0200087B0200087B020008DB
:100110007B0200087B0200087B0200087B020008CB
:100120007B0200087B0200087B0200087B020008BB
:100130007B0200087B0200087B0200087B020008AB
:100140007B0200087B0200087B0200087B0200089B
:100150007B0200087B0200087B0200087B0200088B
:100160007B0200087B0200087B0200087B0200087B
:100170007B0200087B0200087B02000800000000F0
:100180007B0200087B0200087B0200087B0200085B
:100190007B0200087B0200087B0200087B0200084B
:1001A0007B0200087B0200087B02000800F002F8D6
:1001B00000F047F80AA090E8000C82448344AAF1BA
:1001C0000107DA4501D100F03CF8AFF2090EBAE8B8
:1001D0000F0013F0010F18BFFB1A43F0010318477B
:1001E00048DB000068DB0000103A24BF78C878C103
:1001F000FAD8520724BF30C830C144BF04680C602D
:10020000704700000023002400250026103A28BF74
:1002100078C1FBD8520728BF30C148BF0B60704778
:10022000642900F0A980782900F0E280732900F0A9
:10023000F781002070471FB509F093F81FBD10B576
:1002400010BD00F027FA1146FFF7F5FF08F0B0FBEC
:1002500000F045FA03B4FFF7F2FF03BC08F022FAFE
:100260000948804709480047FEE7FEE7FEE7FEE74A
:10027000FEE7FEE7FEE7FEE7FEE7FEE70448054986
:10028000054A064B7047000055700008AD01000894
:10029000D8030020D8090020D8050020D805002068
:1002A000704700000FB4044910B503AA029800F08B
:1002B000BBF910BC5DF814FB200000202DE9F041D3
:1002C0000E460446002020622046E168884730B38D
:1002D000252805D0D4E901219047206A401CF2E787
:1002E000E168204600278847050018D0A5F14100A5
:1002F000192802D820354FF4006732462946204697
:100300002760FFF78DFF40B1012804D0F61D26F0CD
:1003100007060836D8E7361DD6E72846DAE7206A0A
:10032000BDE8F08170B50C460546012A05D0287855
:10033000800600D5EA69002302E0012305E05B1C8A
:10034000934202D2E05C0028F9D1A869E618C01AED
:10035000A861286A184428622846AFF3008004E0A8
:10036000D5E9012114F8010B9047B442F8D328468F
:10037000AFF3008070BD00002DE9F0410646002477
:1003800010687529314616A510D0AFF300800028FB
:1003900002DA404213A507E031688A0701D512A5A9
:1003A00002E0490704D511A5012401E0AFF3008064
:1003B00000210A2206F1240709E0B0FBF2FCB0FBA1
:1003C000F2F302FB1C00303078541846491C002818
:1003D000F3D123462A463046BDE8F04100F0B5B8D7
:1003E000000000002D0000002B0000002000000095
:1003F00070B504460D4621461068AFF30080218891
:10040000090502D50F4A7A4402E00E4A7A440E32B8
:10041000002104F1240305E000F00F060009965DB9
:100420005E54491C0028F7D120780023000704D52A
:10043000702D02D009B1022311322046BDE8704070
:1004400000F083B878D8000010B5203AC0F00B80D7
:10045000B1E81850203AA0E81850B1E81850A0E8C8
:100460001850BFF4F5AF5FEA027C24BFB1E8185022
:10047000A0E8185044BF18C918C0BDE810405FEA92
:10048000827C24BF51F8043B40F8043B08BF70470E
:10049000D20728BF31F8023B48BF11F8012B28BF13
:1004A00020F8023B48BF00F8012B70474FF0013C99
:1004B00050F8042B51F8043B9A4221D1A2EB0C03D3
:1004C000934313EACC1317D150F8042B51F8043B93
:1004D0009A4215D1A2EB0C03934313EACC130BD130
:1004E00050F8042B51F8043B9A4209D1A2EB0C03BB
:1004F000934313EACC13DBD04FF00000704700BFEA
:10050000D01A01BAB1FA81F101F0180122FA01F012
:10051000CB40C1F12001DBB2C0B2C01A2CFA01F30A
:10052000D11A914311EAC311E6D170477047704761
:100530007047704710B500F089F8006810BD10B51D
:10054000044600F083F8046010BD2DE9F0470D4625
:1005500099469246044600F124080168880604D5AD
:10056000E06921F01001216000E00120A84201DDD6
:10057000471B00E00027A1697A1902EB0900081A5D
:10058000A0612078C00602D42046AFF30080002688
:1005900008E0D4E901211AF806009047206A401CBF
:1005A000761C20624E45F4DB2078C0060AD5204632
:1005B000AFF3008006E0D4E9012130209047206AA3
:1005C000401C2062381EA7F10107F4DC07E0D4E9E3
:1005D000012118F805009047206A401C2062281E5F
:1005E000A5F10105F3DC2046AFF30080207800067A
:1005F00002D50220BDE8F0870120FBE710B5436972
:1006000013B1AFF3008001E0FFF78CFE012010BDB5
:10061000127800F124010A7000224A700122EDE7ED
:1006200011684FF0FF32E9E7074B70B50D467B4488
:1006300000F015F80446284600F024F810B14FF0F9
:10064000FF3070BD204670BDCF810000004870476C
:100650007803002001694A1C02610878704700B5E0
:100660008FB0CDE901310021059105497944CDE9EB
:10067000031011466846FFF721FE0FB000BD0000D1
:10068000E5FFFFFF007B00F08000704700487047E7
:10069000780300207546FFF7F9FFAE46050069466E
:1006A000534620F00700854618B020B5FFF7E6FD59
:1006B000BDE820404FF000064FF000074FF0000863
:1006C0004FF0000B21F00701AC46ACE8C009ACE8E4
:1006D000C009ACE8C009ACE8C0098D46704710B548
:1006E0000446AFF300802046BDE81040FFF7B2BDDE
:1006F00002F094BB70B515460E46044608E020464D
:10070000641CA4B200F007F86D1E06F8010BADB230
:10071000002DF4D170BD10B5044602F027FC200A6C
:10072000A02101EB4000C0B202F0F0FB02F05EFC41
:10073000E0B202F0EBFB02F059FC02F017FCA12042
:1007400002F0E4FB02F052FC002002F0ABFB044696
:1007500002F02CFC204610BD70B514460D4606462E
:1007600006E02978304600F007F8761CB6B26D1C1A
:10077000641EA4B2F5D270BD70B50D46044602F0F9
:10078000F5FB200AA02101EB4000C0B202F0BEFB45
:1007900002F02CFCE0B202F0B9FB02F027FC284684
:1007A00002F0B4FB02F022FC02F000FCBDE8704055
:1007B0000A2007F0FDBFFEE72DE9F0410D4E0025B0
:1007C000C6F88C52022006F5237607F0FFFF0A4F89
:1007D0000124C7F89842022007F5267707F0F6FFB4
:1007E0003D60022007F0F2FF3460BDE8F0410220D6
:1007F00007F0ECBF0000444200804342164810B5A9
:10080000016886B041F080010160016801F080015B
:100810000591016841F4807101600068012400F4D1
:1008200080700590402000901120CDE90104032044
:1008300003906946094801F04BF80820009069468A
:10084000074801F045F80748C0F88C420648C0F850
:10085000984206B010BD000030380240001C024033
:1008600000200240000044420080434270B50B4823
:100870000124C0F88C42022007F0A8FF084DC5F8FB
:100880009842022005F5267507F0A0FF0020286099
:10089000BDE87040022007F099BF0000000044420C
:1008A000008043422DE9F0470024DFF84C80134ECE
:1008B000824625460127A1466006040EC6F89872B6
:1008C000022007F083FFD8F80C0208B1641CE4B2E0
:1008D000C6F89892022007F079FF6D1CEDB2082D42
:1008E000EAD3BAF1000F04D0FFF766FF2046BDE857
:1008F000F087FFF7BBFFF9E7000044420080434266
:100900002DE9F04700240E4E0E4F0546A1464FF04C
:100910000108E809C6F88C02022007F057FFC7F863
:100920009882022007F052FFC7F898926806641C6C
:10093000050EE4B2082CECD3C6F88C82BDE8F08733
:10094000000044420080434270B50C4E0120C6F8BE
:100950008C020B4DC5F89802022005F5267506F5A8
:10096000237607F033FF00243460022007F02EFFC7
:100970002C60BDE87040022007F028BF0000444210
:100980000080434270B50B4C0020C4F88C0202205A
:1009900004F5237407F01AFF07480125C0F89852A0
:1009A000022007F013FF2560BDE87040022007F029
:1009B0000DBF000000004442008043422DE9F04199
:1009C0000024124E01272546C6F88C72022007F03B
:1009D000FDFE38460E4FC7F8980207E0641CE4B2EB
:1009E000FA2C03D9FFF7CEFF012506E0022007F01D
:1009F000EDFED6F80C020028F0D10020C7F89802CE
:100A0000022007F0E3FE2846BDE8F08100004442E2
:100A1000008043427047000070B5B3F5804F05D0A9
:100A20006FF0704140F82210002070BD50F8223065
:100A3000084C2340D1E9004544EA05148D688E89AD
:100A40002D0245EA064589692C430C431C4340F8B6
:100A50002240E9E70000F0CFF0B50C6850F82450D0
:100A6000194A1540D1E90123D1E903671A433E43EE
:100A700032434E6932438E693243CE6932430E6A45
:100A800032434E6A32438E6A3243CE6A3243CE6B71
:100A900032430E6B32434E6B32432A43082B01D153
:100AA00042F0400240F824204A6BB2F5801F08D182
:100AB0000A6832B14FF480720A6104490268114336
:100AC00001600020F0BD00008000E0FF0001100088
:100AD000F0B500EB820253688E8903F04044D1E9FF
:100AE000003543EA05138D682D0245EA06452B4380
:100AF0000E8A0D4D05EB065633430E7D6F0107EB55
:100B0000066633438E693343234353600268D2023F
:100B100007D54268098A22F4700205EB015111439E
:100B200041600020F0BD00000000F0FF30B5D1E9C9
:100B300001231A43D1E9033423431A434B690D6857
:100B40001A438B691A43D1E90734012D496A0568B4
:100B50006FF30E0505D01A4322430A432A4302606D
:100B600008E0234329430B43416803606FF30E0100
:100B70000A434260002030BD426942EA41014161BE
:100B800000207047F8B514460546D1E9000210432D
:100B90008A686FF01F03C96803EB421242EA4121E1
:100BA00008430090286100F08BFF064609E0601CB6
:100BB00007D024B100F084FF801BA04201D903209C
:100BC000F8BDA8698006F2D40020F8BDF0B56FF03A
:100BD0000F05D1E9003405EB04145B1E2E012343FD
:100BE0008C682F0306EB04244FEA054C23430D8A3F
:100BF0008E8ACC68097E4FF07F4E07EB05450CEBE3
:100C000006560EEB0161012A0CD082683F1107EBFA
:100C1000043423432B43334302F070420B4313430A
:100C200083600FE0C2682B430B4302F0704281687F
:100C3000134301F070422103A1F580513143114368
:100C4000C36081600020F0BD70B54A4888B00024C0
:100C5000016841F080010160016801F080010791A5
:100C6000016841F480710160006802A900F480709D
:100C700007908020012581E83100032005903E483F
:100C800000F026FE2802CDE9020502A93B4800F04B
:100C90001FFEFFF7B3FD3A4EC6F8A042142006F53A
:100CA000287607F085FD3560322007F081FD8DF84C
:100CB000004002226946A12000F072F89DF8000071
:100CC000302803D19DF80110032931D09DF801107F
:100CD00001292DD002292BD00422694648F2401068
:100CE00000F084FA8DF80440694626A0FFF7DAFA8E
:100CF0002748009948F24005C0F8021002208DF8FC
:100D0000000001226946284600F0C2FB0122694624
:100D1000E81D00F06BFA0A2007F04AFD8DF800404C
:100D200001226946284600F0B3FB08B0002070BDE0
:100D3000C9B201EB002117A0FFF7B4FA01226946FE
:100D4000002000F079F901226946A42000F074F92E
:100D500016208DF8000001226946802000F06CF911
:100D60000C208DF8000001226946882000F064F90B
:100D7000DBE7000030380240001C02400020024047
:100D8000000044424354502049443A25730D0A0060
:100D9000340000204354502049443A25780D0A007D
:100DA0002DE9F04115460F460446FFF7CDFD7020B2
:100DB000FFF7A6FDFFF702FEE0B2FFF7A1FDFFF788
:100DC000FDFDFFF7C1FD7120FFF79AFDFFF7F6FD6E
:100DD00000246E1E09E0B44201D0012000E0002092
:100DE000FFF760FD3855641CE4B2AC42F3D3BDE8B4
:100DF000F041FFF7C7BD00002DE9F14783B00027A0
:100E0000884D8DF804704FF00A0A6878864C401CB3
:100E1000C0B2B0FBFAF20AFB1201B846687009B121
:100E20000A286FD27F4881A1801CFFF73FFB4FF05B
:100E3000010203A908B30220FFF7B2FF9DF80C00DE
:100E400001075FD000F00F01287881425AD8FF22B5
:100E50008A40D1B2C943B4F8349041F0C001A186B0
:100E600004EB4000A1894181218CC183042007F05B
:100E70009FFC8DF804706E4E84E048F24E163046AA
:100E800000F0B4F99DF80C000106D7D5297800F0E0
:100E90000F008842D2D88DF80470012201A9304693
:100EA00000F0F6FACAE7A18E01228240114264D016
:100EB0005C485EA1801CFFF7F9FA20B35D489DF8FD
:100EC0000410042230F811006946FFF769FF94F816
:100ED00044009DF80010C0079DF8010001F00F01CB
:100EE00039D000EB01219DF8040004EB400001849F
:100EF0009DF802209DF8031002F00F0201EB022181
:100F000081813AE058E04B489DF804100A300422F1
:100F100030F81100694600F069F994F844009DF832
:100F20000110C0079DF8000000EB01219DF80400AE
:100F300004EB400005D081819DF802109DF803204C
:100F400018E001849DF802109DF8032001EB0221B6
:100F50003288511AD4E700EB01203188091A9DF834
:100F6000040004EB400081819DF802209DF80310ED
:100F700002F00F0201EB022101849DF80400401CE5
:100F80008DF804009DF80400297888428BD3A0894D
:100F900031884FF00108884203D8208C718888423C
:100FA00009D99DF80C0000F00F00012812D9E08942
:100FB000A081608C20846F701A481CA1801CFFF7F0
:100FC00075FA00289DF80C004FF6FF710FD0C0068F
:100FD00023D019E0287804EB40004189A181C08B1F
:100FE000208480208DF80C00A4F83490E4E700F011
:100FF0008F00802811D007E020F0800003E0A1815D
:10100000218400F0E000A0866878F02801D985F8F6
:1010100001A004B04046BDE8F087A08E0206EED5E0
:10102000EAE70000340000204000002039313100A0
:101030006C020020D0DA00082DE9F04115460E467A
:1010400004460027FFF780FC7020FFF759FCFFF7EC
:10105000B5FCE0B2FFF754FCFFF7B0FC002408E059
:10106000305DFFF74DFCFFF7A9FC070003D1641CBE
:10107000E4B2AC42F4D3FFF785FC3846BDE8F0811A
:101080002DE9F043464889B00024016841F0800111
:101090000160016801F080010791016841F48071ED
:1010A00001600068802600F480700296079003AA11
:1010B00001250327DFF8EC9082E8B00002A948463A
:1010C00000F006FC2802CDE9020502A9364800F02E
:1010D000FFFBFFF793FBDFF8D480C8F8A0420A209B
:1010E00007F066FBC8F8A0520A2007F061FBCDE9C3
:1010F0000264CDE9044702A9484600F0E9FB6420F8
:1011000007F056FB0422694648F2401000F06EF8E2
:101110008DF80440694626A0FFF7C4F827A1684669
:10112000FFF7C4F990B126A16846FFF7BFF968B18F
:1011300025A16846FFF7BAF940B125A16846FFF737
:10114000B5F918B1012009B0BDE8F0831CA16846CB
:10115000FFF7ACF910BB02208DF8000048F2400503
:1011600001226946284600F093F901226946E81DEC
:1011700000F03CF89DF80010602905D216A0FFF79A
:1011800091F8012000F05EF90A2007F011FB8DF8BC
:10119000004001226946284600F07AF90020D2E793
:1011A00030380240001C024000200240000044424F
:1011B0004354502049443A25730D0A003931310017
:1011C000393134370000000031313538000000007B
:1011D000393237310000000044656661756C742057
:1011E0005665723A25640D0A000000002DE9F041B1
:1011F00015460F460446FFF7A7FB2820FFF780FBA4
:10120000FFF7DCFB200AFFF77BFBFFF7D7FBE0B221
:10121000FFF776FBFFF7D2FBFFF796FB2920FFF7DE
:101220006FFBFFF7CBFB00246E1E09E0B44201D038
:10123000012000E00020FFF735FB3855641CE4B2C4
:10124000AC42F3D3BDE8F041FFF79CBB2DE9F14F71
:10125000784E00244FF00A0B307882B0401CC0B2A8
:10126000B0FBFBF20BFB1201734DA146307009B1CC
:101270000A2876D248F24E17012202A93846FFF713
:10128000B5FF9DF808004FF0000801060AD500F0F0
:101290000F00062806D28DF80480012201A93846E5
:1012A00000F0F6F89DF8080001075AD000F00F0092
:1012B000062856D2FF218140C8B28DF80400C043F1
:1012C00095F834A040F0C000A886A889A882288C90
:1012D0005A4F28854FF00109A98E09FA04F00142FE
:1012E00054D057480422694630F81400FFF77EFFB7
:1012F000B888A0F5AA41103907D0A0F58641423937
:1013000019D0A0F5864184392CD095F84400C00747
:101310002CD09DF800009DF8011000EB012105EB99
:10132000440001849DF802109DF8032001EB022186
:10133000C1F548715DE095F84400C00716D19DF8ED
:1013400000009DF8011000EB012105EB4400018431
:101350009DF802109DF8032001EB0221C1F5887170
:1013600047E02EE095F84400C00731D09DF800001A
:101370009DF8011000EB012105EB440081819DF8EF
:1013800002109DF8032001EB02210184641CE4B2E9
:10139000052CA1D3A9893A884FF00109284691422A
:1013A00003D8018C7A88914209D99DF8081001F080
:1013B0000F0101291FD9C1898181418C298486F8B7
:1013C00000809DF8080000F08F0080281DD029E0E3
:1013D0009DF800009DF8011000EB012105EB440091
:1013E00001849DF802109DF8032001EB0221C1F554
:1013F000F0718181CAE7818A8181018D0184802118
:101400008DF80810A5F834A0DBE7A88E010602D5F8
:1014100020F0800005E04FF6FF71A981298400F0DB
:10142000E000A8863078F02801D986F800B0484658
:10143000BDE8FE8F90000020400000206C020020DC
:10144000A0DB000808B500218DF800108DF8010020
:101450000E489DF80020435C491C1A44C9B28DF81F
:101460000020B829F5D3D0B2C043401C8DF800004D
:10147000B822064948F2470000F00AF802226946FD
:1014800048F2FF0000F004F8002008BDE8DA000888
:101490002DE9F04115460E4604460027FFF754FAA1
:1014A0002820FFF72DFAFFF789FA200AFFF728FA1C
:1014B000FFF784FAE0B2FFF723FAFFF77FFA002480
:1014C00008E0305DFFF71CFAFFF778FA070003D158
:1014D000641CE4B2AC42F4D3FFF754FA3846BDE8DA
:1014E000F08100002DE9F0433F4889B000240168F5
:1014F00041F080010160016801F0800107910168FD
:1015000041F4807101600068802500F480700790CC
:1015100001AA012603270095DFF8D09082E8D000C9
:101520006946484600F0D4F94FF48078CDE900864A
:101530002F4E6946304600F0CBF9FFF75FF90022E5
:101540004146304600F0B7FA0A2007F031F901228F
:101550004146304600F0AFFA0A2007F029F9CDE9FC
:101560000054CDE902476946484600F0B1F96420CD
:1015700007F01EF9042205A948F2401000F050F8C7
:101580008DF8184005A91BA0FEF78CFE1DA105A82B
:10159000FEF78CFF18B1012009B0BDE8F0830220EE
:1015A0008DF8140048F24005012205A92846FFF7EE
:1015B0006FFF012205A9E81DFFF718FE9DF8141022
:1015C000412905D211A0FEF76DFE012000F030F98F
:1015D0000A2007F0EDF88DF81440012205A92846ED
:1015E000FFF756FF0020D7E730380240001C0240CA
:1015F000002002404354502049443A25730D0A0DFF
:101600000A0000003932373100000000446566618D
:10161000756C74205665723A25640D0A000000004E
:101620002DE9F04115460F460446FFF78DF92820B5
:10163000FFF766F9FFF7C2F9200AFFF761F9FFF734
:10164000BDF9E0B2FFF75CF9FFF7B8F9FFF77CF9F5
:101650002920FFF755F9FFF7B1F900246E1E09E0C4
:10166000B44201D0012000E00020FFF71BF93855FB
:10167000641CE4B2AC42F3D3BDE8F041FFF782B999
:101680002DE9F14783B000268DF80060644C4FF0DF
:101690000A0A644D20783746401CC0B2B0FBFAF20B
:1016A0000AFB120120704FF6FF7909B10A287DD29A
:1016B00048F24E18012203A94046FFF7B1FF9DF8FA
:1016C0000C0001060AD500F00F000B2806D28DF899
:1016D000006001226946404600F0D0F89DF80C00F9
:1016E000010775D000F00F000B2871D209FA00F144
:1016F000C843B5F8348040F0C000A886A889E883C4
:10170000288C68868DF8006047E0A88E9DF8002040
:101710000121914008423BD043499DF80000062238
:1017200031F8100001A9FFF77BFF95F84400C007CE
:1017300016D09DF806109DF8070001EB00209DF8DB
:10174000001005EB410108849DF804009DF8051088
:1017500000EB01209DF8001005EB4101888117E0A6
:101760009DF806009DF8071000EB01209DF8001081
:10177000C0F5487005EB410188819DF804009DF893
:10178000051000EB01209DF8001005EB41010884D5
:101790009DF80000401C8DF800009DF800000A280C
:1017A000B3D322480127A989028800E010E09142C2
:1017B00003D8298C4088814209D99DF80C0000F09B
:1017C0000F0001280BD9E889A881688C288426702D
:1017D0009DF80C0000F08F0080280AD016E0E88BFE
:1017E000A881688E288480208DF80C00A5F83480AC
:1017F000EEE7A88E010602D520F0800005E0A5F8EE
:101800000C90A5F8209000F46040A8862078F0287D
:1018100001D984F800A004B03846BDE8F087000084
:10182000910000204000002064DC00086C020020D1
:1018300008B500218DF800108DF801000E489DF8C4
:101840000020435C491C1A44C9B28DF80020B82915
:10185000F5D3D0B2C043401C8DF80000BA2206492F
:1018600048F2470000F00AF80222694648F2FF00F9
:1018700000F004F8002008BDAADB00082DE9F041C3
:1018800015460E4604460027FFF75EF82820FFF7AE
:1018900037F8FFF793F8200AFFF732F8FFF78EF8D2
:1018A000E0B2FFF72DF8FFF789F8002408E0305D7B
:1018B000FFF726F8FFF782F8070003D1641CE4B2B3
:1018C000AC42F4D3FFF75EF83846BDE8F081000083
:1018D0002DE9F84FDFF8A091002209F1040A0AF17E
:1018E000040B4FF00F080BF1040E01260B68964015
:1018F0003340B34271D14C68022C01D0122C11D16B
:10190000D40800EB84073D6A5407E40E08FA04FC8F
:1019100025EA0C05D1F810C00CFA04FC4CEA050CC1
:10192000C7F820C007685400032591F804C0A540FB
:101930000CF0030CAF430CFA04FC4CEA070CC0F8A3
:1019400000C04F68012F05D0022F03D0112F01D006
:10195000122F11D18768D1F80CC0AF430CFA04FCE8
:101960004CEA070CC0F808C04768B7430E79C6F3C5
:10197000001696403E434660C668AE438D68A5405B
:101980003543C5604C68E4006FD53C4C256845F490
:1019900080452560246822F0030504F48044009407
:1019A000374C2E19D6F808789407250F08FA05F455
:1019B000A743344CA04201D100242EE0324CA04277
:1019C00001D1012429E0314CA04201D1022424E0BC
:1019D0002F4CA04202D103241FE046E02D4CA04230
:1019E00001D1042419E02C4CA04201D1052414E0BB
:1019F0002A4CA04201D106240FE0294CA04201D17B
:101A000007240AE0274CA04201D1082405E0264C17
:101A1000A04201D1092400E00A24AC403C43C6F8AE
:101A20000848D9F800404D464E689C43F60300D55F
:101A30001C432C60DAF8004055464E689C43B603C0
:101A400000D51C432C60DBF800405D464E689C438B
:101A5000F60200D51C432C60DEF8004075464E6847
:101A60009C43B60200D51C432C60521C102AFFF484
:101A70003CAFBDE8F88F0000003C01404438024014
:101A80000030014000000240000402400008024013
:101A9000000C0240001002400014024000180240F6
:101AA000001C02400020024000240240006908405F
:101AB00000D0012070470AB1816170470904FBE73B
:101AC00001480068704700001400002002480168C7
:101AD000491C016070470000140000200B4810B53D
:101AE000016841F400710160016841F480610160A6
:101AF000016841F480710160052000F0BFF90F20FA
:101B000000F006F800F08AF9002010BD003C024009
:101B100010B5044600F060FC4FF47A71B0FBF1F0B0
:101B200000F094FF00222146501E00F087F90020AB
:101B300010BD2DE9F041044690F8A00015460F466F
:101B400001281DD0012684F8A060022084F8A1009D
:101B500005EB850000EBC50004EB80003422383033
:101B6000FEF772FC2A463946204604F05DFF2068E5
:101B7000466284F8A160002084F8A000BDE8F081EE
:101B80000220FBE770B5040004D094F8A100002502
:101B900010B106E0012070BD84F8A050204600F08E
:101BA0006FF8022084F8A1002068816921F070415B
:101BB0008161D4E901100143D4E9030210430143D8
:101BC0002068826911438161206882682B490A403C
:101BD0008260A08A020420688368A66933431343A5
:101BE00083602068C2680A40C260A08B020420683B
:101BF000C368266A33431343C360206802690A40FE
:101C00000261A08C020420680369A66A334313436F
:101C10000361206842690A404261A08D0104206886
:101C20004269236B1A430A43426194F83500020269
:101C300094F8360001042068C36A03F07F43C3624E
:101C40002068C36A94F83460114333430B43C36282
:101C50002068416B41F0040141632068416B41F011
:101C6000020141632068816941F001018161C4F88A
:101C7000A450012084F8A100002070BD00F800F0FD
:101C800030B5364887B00025016841F080610160B9
:101C9000006800F08060059030481438016841F415
:101CA00000010160016801F400010591016841F043
:101CB00002010160016801F002010591016841F033
:101CC00020010160016801F020010591016841F0E7
:101CD00040010160016801F040010591016841F097
:101CE00080010160016801F080010591016841F403
:101CF000807101600068032400F48070059020204A
:101D000000900120CDE90204019069461448FFF7D4
:101D1000DFFD4FF4806000900220CDE901050E2028
:101D2000CDE9034069460F48FFF7D2FD4FF40C6040
:101D3000009069460C48FFF7CBFD4FF47E400090C1
:101D400069460A48FFF7C4FD40F2F7600090694613
:101D50000748FFF7BDFD07B030BD00004438024022
:101D6000000402400014024000180240001C02401F
:101D70000020024070B5044690F8A0000E460128ED
:101D800020D0012584F8A050022084F8A10003EBA4
:101D9000830000EBC30004EB800141F8386F886AD0
:101DA0003044C1E90102C86A1044C8601A4620469E
:101DB00004F03AFE2068456284F8A150002084F8BF
:101DC000A00070BD022070BD2DE9F041044690F8DE
:101DD000A0000F4601281FD0012584F8A050022042
:101DE00084F8A10003EB830000EBC30004EB800147
:101DF0000026E1E90E672046C1E90262C1E90A72E4
:101E00001A4604F011FE2068456284F8A15084F857
:101E1000A0600020BDE8F0810220FBE708B50020AB
:101E2000009008BD00F01F02012191404009800090
:101E300000F1E020C0F8001170470000F0B40E4B34
:101E40001B68C3F30223C3F10704042C00D9042444
:101E50001D1D072D01D2002300E0DB1E012606FA1E
:101E600004F56D1E0D409D409E40761E164045EACD
:101E70000601F0BC04F0ACBE0CED00E0064A00F038
:101E8000070110684FF6FF03184040EA012003499C
:101E900008431060704700000CED00E00000FA05F8
:101EA0002DE9F8431D48016841F080510160006848
:101EB000012700F080500090380490FAA0F0DFF87D
:101EC0006080B0FA80F048F82070FFF7F9FD044612
:101ED0004FF47A75134E04E0FFF7F2FD001BA842A1
:101EE00013D87068C003F7D54FF4003090FAA0F013
:101EF000B0FA80F048F82070FFF7E2FD044607E0F2
:101F0000FFF7DEFD001BA84202D90320BDE8F883DD
:101F100070688003F4D50020F8E7000040380240E4
:101F200000000E42007000402DE9F84F04460068A2
:101F3000DFF878829E4DC10747F6C07A4FF0E04641
:101F40004FF0010B4FF0000901D180074BD59949A3
:101F5000C1F86890FFF7B4FD074604E0FFF7B0FD55
:101F6000C01B64287ED828680001F7D420789249E5
:101F7000C0070DD09AFAAAF26068B2FA82F29040D5
:101F800096FAA6F3A268B3FA83F39A401043086066
:101F90002078800718D5086896FAA6F200F0E0408D
:101FA000B2FA82F2D0406268237B920142EA036275
:101FB00042EA00700860D8F80010E26921F01F01C1
:101FC000521E1143C8F800107A49C1F868B0FFF7F3
:101FD00077FD074604E0FFF773FDC01B642841D876
:101FE00028680001F7D52068410701D4000776D59D
:101FF0007049C1F87090FFF763FD074604E0FFF7F2
:102000005FFDC01B64282DD82868C0438000F6D52A
:1020100020786A4F40074FF0706C29D5386896FADF
:10202000A6F100F0E040B1FA81F1C8409AFAAAF2B4
:102030002169B2FA82F291409CFAACF36269B3FA78
:1020400083F39A40114396FAA6F2B2FA82F29040D4
:1020500001433960D8F800106FF0FF0321F4F85104
:10206000226A00E079E003EB02221143C8F8001075
:102070002078000723D538689CFAACF100F0706036
:10208000B1FA81F1C8409AFAAAF22169B2FA82F251
:1020900091409CFAACF2B2FA82F29040014396FA77
:1020A000A6F2A069B2FA82F2904001433960D8F8F2
:1020B0000010626A21F440311143C8F800103D4914
:1020C000C1F870B0FFF7FCFC064604E0FFF7F8FC2F
:1020D000801B642841D82868C0438000F6D420784B
:1020E000800651D532484F464030016841F080515A
:1020F00001600068324E00F080500090306840F47B
:1021000080703060FFF7DCFC054604E0FFF7D8FC88
:10211000401B642821D83068C005F7D5264E143EF0
:102120003068218D00F4407001F4407188422BD05A
:102130003068244920F44070C1F800B00F6030606E
:10214000800710D5FFF7BCFC054641F2883707E051
:10215000FFF7B6FC401BB84202D90320BDE8F88F58
:1021600030688007F4D5A06A1149C0F30122083114
:10217000032A13D0086820F4F81008603068218D15
:10218000C1F30B01084330602078C00604D50E4926
:1021900094F82C00C1F8E0010020DFE70A680B4B3F
:1021A00022F4F812184002430A60E7E78C38024034
:1021B000003802400000474284380240883802401C
:1021C00000700040400E474200104742FFFCFF0FE6
:1021D0002DE9F05FDFF8F8A104460F46DAF80000B9
:1021E000DFF8F08100F00F02C8B27A49814641F26F
:1021F000883608F10808BA4261D202468AF80020FF
:10220000DAF8000000F00F00B8427DD12078800796
:1022100007D5D8F80020A36822F0F0021A43C8F8C6
:1022200000202078C0072DD0606801281AD002282D
:102230001BD0032819D009688907002964DAD8F867
:102240000010474621F003010143C8F80010FFF7D2
:1022500037FC0546606801280FD0022818D00328F3
:102260001CD027E009688903E7E709688901E4E7EA
:10227000FFF726FC401BB04258D83868C0F38100F5
:102280000128F5D188E0FFF71BFC401BB0424DD878
:102290003868C0F381000228F5D17DE03868FFF787
:1022A0000FFC401BB042F9D940E0FFF709FC401B8E
:1022B000B0423BD8386810F00C0FF6D16CE02078B3
:1022C000800707D5D8F80020A36822F0F0021A434F
:1022D000C8F800202078C0074CD06068012828D0BA
:1022E000022829D0032827D009688907002949DA5C
:1022F000D8F8002022F003020243C8F80020FFF7BC
:10230000DFFB0546606800E03CE001281DD00228A4
:1023100029D0032838D0B3464646306810F00C0F59
:1023200028D0FFF7CDFB411B5945F6D90320BDE866
:10233000F09F09688903D9E709688901D6E7FFF7A3
:10234000BFFB411B594502D9F0E7B346464630680A
:10235000C0F381000128F2D10CE0FFF7B1FB411B73
:10236000594502D9E2E7B34646463068C0F38100DA
:102370000228F2D18AF80090DAF8000000F00F008D
:10238000B84209D00120D2E744462068FFF798FB05
:10239000401BB042F9D9C9E72078400707D5D8F8E3
:1023A0000010E26821F4E0511143C8F800102078D1
:1023B000000708D5D8F80010226921F4604141EAED
:1023C000C201C8F800100F20FFF7A2FB0020AEE703
:1023D000003C02400038024010B500F043F80849C4
:1023E0000968F02292FAA2F201F0F001B2FA82F248
:1023F000D140044A515CC8400349086010BD000048
:1024000008380240809300080000002010B5FFF754
:10241000E3FF074909684FF4E05292FAA2F201F48F
:10242000E051B2FA82F2D140024A515CC84010BD7C
:10243000083802408093000810B5FFF7CDFF074928
:1024400009684FF4604292FAA2F201F46041B2FAD4
:1024500082F2D140024A515CC84010BD08380240A7
:102460008093000830B51948006810F00C01184836
:1024700012D0184C04290ED008290DD1134A121F6E
:102480001168136801F03F015D0247F6C07304D57F
:10249000B4FBF1F003E0204630BDB0FBF1F0116871
:1024A000194093FAA3F3B3FA83F3D9404843116870
:1024B0004FF4403292FAA2F201F44031B2FA82F2C1
:1024C000D140491C4900B0FBF1F030BD0838024052
:1024D0000024F40040787D012DE9F84F044600788F
:1024E000DFF8FCA2BF4DC0074FF0000648D0DAF875
:1024F00000105046C1F38101012908D00068C0F3E3
:10250000810002280AD1281D0068400206D52868EB
:10251000800335D56068002873D031E0DFF8C492BD
:1025200009F1020989F80060FFF7CAFA074641F28B
:10253000883804E0FFF7C4FAC11B41457AD82868FF
:102540008003F7D4207989F80000606860B1FFF754
:10255000B7FA074604E0FFF7B3FAC11B4145EDD8CF
:1025600028688003F7D50BE0FFF7AAFA074604E0D6
:10257000FFF7A6FAC11B4145E0D828688003F7D4CD
:102580002078DFF86492800744D5DAF800105046CE
:1025900011F00C0F4FF0F80809D00068C0F381006B
:1025A00002280BD18E48001F0068400206D428681C
:1025B000800714D5E068012823D110E0E068D0B18D
:1025C0000120C9F80000FFF77BFA074604E0FFF797
:1025D00077FAC01B6428B1D828688007F7D5286827
:1025E00098FAA8F22169B2FA82F220F0F80091403C
:1025F000084328600EE0C9F80060FFF761FA07465B
:1026000005E0EAE0FFF75CFAC01B642812D82868EE
:102610008007F7D42078000725D5DFF8C4817348F8
:10262000616908F16C0881B101210160FFF748FA86
:10263000074605E07EE0FFF743FAC01B642879D81F
:10264000D8F800008007F6D50DE00660FFF738FAED
:10265000074604E0FFF734FAC01B64286AD8D8F8AC
:1026600000008007F6D42078400753D55C48383006
:10267000016841F0805101600068DFF8748100F06A
:1026800080500090D8F8001041F48071C8F8001014
:10269000FFF716FA074604E0FFF712FAC01B64289A
:1026A00048D8D8F80000C005F6D5DFF834B10BF1F2
:1026B000680B8BF80060FFF703FA074641F2883891
:1026C00004E0FFF7FDF9C11B41457ED8DBF80000AF
:1026D0008007F6D4207A8BF80000A06868B1FFF775
:1026E000EFF9074604E0FFF7EBF9C11B41456CD851
:1026F000DBF800008007F6D50CE0FFF7E1F90746AC
:1027000004E0FFF7DDF9C11B41455ED8DBF80000AE
:102710008007F6D4A069E8B3DAF80010C1F38101AC
:1027200002295AD0022806D0C9F86060FFF7C8F91C
:1027300004464DE049E04F46C9F86060FFF7C0F934
:10274000064604E0FFF7BCF9801B64283DD82868E2
:102750008001F7D4D4E90701084347F6C07191FA24
:10276000A1F1626AB1FA81F18A40A16A4FF0FF33A8
:1027700003EB51014FF4403393FAA3F3B3FA83F31D
:1027800099400A4310434FF0706292FAA2F2B2FAF3
:1027900082F200E01FE0E16A914008431049091FFE
:1027A000086001203866FFF78BF9044604E0FFF764
:1027B00087F9001B642808D828688001F7D50AE04B
:1027C000FFF77EF9001B642802D90320BDE8F88FCB
:1027D00028688001F4D40020F8E70120F6E7000023
:1027E000083802400038024000004742800E47424D
:1027F0000070004070B50D46040003D094F82C0022
:1028000010B107E0012070BD002084F82D002046A3
:1028100000F012F8022084F82C00211D2068FEF739
:1028200085F9D4E900022946FEF7D0F9012084F8A1
:102830002C00002070BD0000304800B5016887B052
:1028400041F001010160006800F0010005902B4893
:102850000838016841F004010160016801F00401D9
:102860000591016841F008010160016801F008016B
:102870000591016841F010010160016801F010014B
:102880000591016841F020010160016801F020011B
:102890000591016841F0400101600068694600F05F
:1028A000400005900D200090022001900120029030
:1028B000032003900C2004901148FFF709F84CF214
:1028C0000370009069460F48FFF702F84FF68370D7
:1028D000009069460C48FEF7FBFF4FF63F00009062
:1028E00069460A48FEF7F4FF48F23710009069463F
:1028F0000748FEF7EDFF07B000BD00003838024082
:1029000000080240000C0240001002400014024087
:102910000018024010B5044690F82C00022809D097
:10292000022084F82C002068FEF726F9012084F8A4
:102930002C00002010BD70B5044690F82C000D4608
:1029400002280CD0022084F82C002068FEF71AF927
:102950002868022804D0012084F82C00002070BDD3
:102960000520F9E770B515460E46040003D094F82B
:10297000490010B107E0012070BD002084F8480034
:10298000204600F01BF804F108012068FEF764F807
:102990003146A2682068FEF79BF8D4E90102294677
:1029A000236BFEF739F8A168206850F8212042F027
:1029B000010240F82120002070BD00001A4800B537
:1029C000016887B041F001010160006800F001007A
:1029D000059015480838016841F008010160016858
:1029E00001F008010591016841F0100101600068E3
:1029F000694600F0100005904EF2B370009002207E
:102A0000019001200290032003900C2004900748BD
:102A1000FEF75EFF4FF68070009069460448FEF7AF
:102A200057FF07B000BD000038380240000C0240DC
:102A3000001002404FF0E0210428086903D020F084
:102A400004000861704740F00400FAE710B5401E2A
:102A5000B0F1807F01D3012010BD4FF0E024606110
:102A60000F21601704F0B4F80020A0610720206156
:102A7000002010BD704790F83900704738B50168E4
:102A800004460868CA68C0F3000002F4807238B1D6
:102A900032B1086848680090E06B40F00100E063E4
:102AA00008684A69C0F3400002F0010238B132B14F
:102AB000086848680090E06B40F00400E063086834
:102AC0004A69C0F3800002F0010238B132B10868EF
:102AD00048680090E06B40F00200E06308684A69D3
:102AE000C0F3C00002F0010238B132B10868486892
:102AF0000090E06B40F00800E0630868C968C0F32C
:102B0000401001F0200118B111B1204605F0D8F8AD
:102B100020680168C068C1F3C01100F0800019B1DD
:102B200010B1204605F0DAF921680868CA68C0F3D8
:102B3000801002F04002012568B162B1CA682046E7
:102B400022F04002CA6094F8391032290CD080F883
:102B5000395000F041F9E06B002804D084F8395076
:102B60002046FFF787FF38BD222180F83910F0E7B3
:102B700070B5040004D094F83900002510B106E0C7
:102B8000012070BD84F83850204600F021F8022062
:102B900084F839002068C16821F40051C1602046E2
:102BA00005F0E2F82068016921F490410161206894
:102BB000416921F02A0141612068C16841F4005156
:102BC000C160E563012084F83900002070BD000079
:102BD00010B500681A4986B088422FD1194801689B
:102BE00041F001010160006800F001000590154806
:102BF0001430016841F0100101600068012100F00B
:102C0000100005904FF4007000900220CDE9010102
:102C1000039007200C4C049069462046FEF758FEAE
:102C20002115009169462046FEF752FE2520FFF748
:102C3000F9F8032211462520FFF700F906B010BD70
:102C40000010014030380240000002402DE9F047FA
:102C5000044690F8390099460D46012801D0122803
:102C600057D125B31AB394F83800012851D0012662
:102C700084F838600027E76394F83900122819D0E7
:102C8000222084F83900A285E2854FF48058E08D37
:102C90004B46401EE085A0684FF0000240454FF0D3
:102CA0002001204616D105F04CF9B0B904E001200E
:102CB000BDE8F0873220E4E72069002820684068FA
:102CC00003D0C1B225F8011B12E0C0F3080125F8BA
:102CD000021B0DE005F035F908B10320E8E7206993
:102CE00000282068406801D000F07F0005F8010B43
:102CF000E08D0028CBD194F83900322805D084F833
:102D0000396084F838700020D2E7122084F8390046
:102D1000F7E70220CCE790F83930012B01D0122BD5
:102D20002BD131B32AB390F83830012B25D00123B1
:102D300080F8383081628285C2850022C26390F8B3
:102D40003910122917D0222180F839100168CB6878
:102D500043F48073CB6001684B6943F001034B611E
:102D600080F838200068C16841F02001C16000206F
:102D70007047012070473221E6E7022070470000CB
:102D800030B50068114988420CD1114A50880104BD
:102D900008D41146440409784FF0000306D50A29E7
:102DA00001D0538030BD40F400400DE00D2909D022
:102DB000C0F30D04074D401C80B229555080C72830
:102DC000EFD830BD40F48040508030BD001001404D
:102DD0001C000020940000207047FEE770B50D4CE9
:102DE0000025C4F890520C48016821F4406101604C
:102DF000016841F480610160C4F89452022004F536
:102E0000247405F0E3FC01202060022005F0DEFCC4
:102E1000256070BD00804342001C02400E4810B582
:102E2000016886B041F0800101600068012400F073
:102E3000800005903020CDE900040220CDE9024059
:102E400069460648FEF744FD0548C0F89442C0F8BC
:102E5000904206B010BD000030380240001C024015
:102E60000080434270B50D4C0026C4F890620C48B7
:102E7000016821F440610160016841F480610160F2
:102E80000125C4F89452022004F5247405F09EFC38
:102E90002560022005F09AFC266070BD0080434248
:102EA000001C02402DE9F0478146164800240168C5
:102EB00021F44061016001680160134E25462746F8
:102EC0004FF00108C6F89072022005F07FFCC6F8AA
:102ED00090826006040ED6F8140208B1641CE4B2B5
:102EE000012005F073FC6D1CEDB2082DEAD3B9F199
:102EF000000F04D0FFF772FF2046BDE8F087FFF710
:102F0000B1FFF9E7001C0240008043422DE9F04187
:102F100005461448016821F440610160016841F4EC
:102F200080610160104E0027C6F890723C464FF059
:102F30000108E809C6F894026806050E022005F0AB
:102F400045FCC6F89082022005F040FCC6F890725D
:102F5000022005F03BFC641CE4B2082CE9D3BDE878
:102F6000F0810000001C02400080434270B50D4813
:102F7000016821F440610160016841F480610160F1
:102F8000094C0120C4F89402C4F89002042004F50E
:102F9000247405F01BFC00256560042005F016FC78
:102FA000256070BD001C02400080434270B50D4892
:102FB000016821F440610160016841F480610160B1
:102FC000094C0020C4F89002C4F89402042004F5CF
:102FD000247405F0FBFB01252560042005F0F6FBB9
:102FE000656070BD001C02400080434270B512480D
:102FF0000024016821F440610160016801600F4D07
:103000000126C5F89462304605F0E0FBC5F89062F1
:10301000012005F0DBFB07E0641CE4B2FA2C03D9C5
:10302000FFF7C4FF012070BDD5F814020028F3D1CA
:10303000C5F8900270BD0000001C024000804342B1
:1030400070B51B4886B00025016841F001010160A0
:10305000016801F001010591016841F0040101607E
:10306000016801F004010591016841F080010160EF
:103070000068032400F08000059002200126CDE9BD
:103080000204CDE9006569460A48FEF721FC700399
:1030900003948DE8610069460748FEF719FC0C208F
:1030A000009069460548FEF713FC06B070BD0000AD
:1030B000303802400000024000080240001C02407C
:1030C00070B50E490E4A064608881268002422B1DF
:1030D0003046BDE8704003F05BBA4D88002145439F
:1030E000084603F0B3F803F01BFAB1B2054801E05B
:1030F0000180641CAC42FBD370BD00006C02002058
:1031000024030020000008602DE9F05F3E4C3F4D95
:10311000A071296839B103F05BFAE88A2080288B16
:103120006080BDE8F09F38492C252B2689884FF018
:10313000F00845F210594FF4305A4FF4285B4FF421
:103140002C5E2A274FF448734FF4A07C4FF4F072A2
:1031500060B1A4F800C0A4F80280494532D1A4F8B7
:1031600008A0A4F80AB0A4F80CE042E0A4F800809B
:10317000A4F802C0494506D1A4F808A0A4F80AB0F2
:10318000A4F80CE011E0A1F5C850633825810AD0FD
:103190006781A681A1F5A640103809D0A1F5EE40BF
:1031A000963805D007E06681A78122806380F1E729
:1031B000A4F800C06280A1F5184006381FD1228013
:1031C00063801CE0A1F5C85063380FD0A1F518400A
:1031D00006380BD025816781A681A1F5A64010385D
:1031E0000AD0A1F5EE40963806D008E02581678127
:1031F000A68123806280F0E72280A4F802C0BDE8A7
:10320000F05F002002F050BF6C0200202403002079
:103210002DE9FE4F0026A2EB000882465F1A701EC1
:1032200035468946B8F1000F02DD4FF0010102E09A
:1032300003D14FF00001019102E0C8F100080190B4
:10324000002F02DD4FF0010002E003D14FF000003B
:10325000009002E0C7F1000700904046B84501DD4C
:10326000044600E03C46601C4FF0000B029015E065
:103270001FFA89F11FFA8AF000F016F846443D441F
:10328000A64202DD0199361B8A44A54202DD00995F
:103290002D1B89440BF101001FFA80FB02998B451D
:1032A000E6DDBDE8FE8F000010B5084A084C126844
:1032B00022B16268BDE8104003F09EB902F0C6FF7B
:1032C00003F02EF90349A088088010BD24030020D4
:1032D00028000020000008602DE9F0411C4615463A
:1032E0000E4607460B46FFF793FF3A462346314604
:1032F0001046FFF78DFF23462A4619463846FFF74A
:1033000087FF2A4623463146BDE8F0411046FFF7C5
:103310007FBF2DE9FC5F80460024154603200F4641
:10332000A0EB450649E0781B81B208EB040A019046
:103330001FFA8AF0FFF7B8FF381B81B208EB0509C6
:1033400000901FFA89F0FFF7AFFF07EB040B1FFA9D
:103350008BF11FFA89F0FFF7A7FF07EB05091FFAAA
:1033600089F11FFA8AF0FFF79FFFA8EB040A1FFA02
:1033700089F11FFA8AF0FFF797FFA8EB05091FFAFA
:103380008BF11FFA89F0FFF78FFF019881B21FFAC6
:103390008AF0FFF789FF009881B21FFA89F0FFF7E2
:1033A00083FF641C002E03DA06EB8406B61D04E0DE
:1033B000601B06EB80066D1E0A36AC42B3DDBDE82D
:1033C000FC9F00002DE9F041044634480D4600689A
:1033D00020B12046BDE8F04103F00EB9304E270A77
:1033E0003046B1884089A1F5AA434FEA1528103B21
:1033F0000FD0A1F5C853633B24D003F085F83846BD
:1034000003F076F8E0B203F073F8B08903F07CF8CB
:1034100036E003F079F8384603F06AF87089401C0A
:1034200080B203F071F8E0B203F062F8B08903F003
:103430006BF8404603F05CF8B089401C80B203F0A2
:1034400063F820E0B17919B93188091B491E8CB2A3
:1034500003F05AF8270A384603F04AF8E0B203F0BE
:1034600047F8384603F044F8E0B203F041F8B08979
:1034700003F04AF8404603F03BF8E8B203F038F8AE
:10348000404603F035F8E8B203F032F805493089D8
:103490000880881C0280BDE8F08100002403002021
:1034A0006C020020FEFF07602DE9F8431F46144B15
:1034B000804608981B6833B100903B46404603F0B5
:1034C000B9F8BDE8F883A2EB0802521C96B20C468C
:1034D00085B2DFF830900FE02146404602F0B6FE9C
:1034E00003F01EF80020494602E00D80401C80B227
:1034F000B042FAD3641CA4B2BC42EDD9E1E70000AB
:103500002403002000000860024A138803805088CA
:1035100008807047280000202DE9F04F95B003F097
:1035200027FAF84C47F2897545F21036A08045F22B
:10353000105947F2967849F6060A41F6631B18B10E
:1035400003F0D2F802F03BBDEF480027016841F0DC
:1035500002010160006810A900F002000090202024
:10356000109001201190129003201390E748FEF76D
:10357000AFF9E4484FF02041503802AA0160E44915
:10358000C0E901171021C760C0E904718761090211
:10359000C761C0E909718900C0E90B7189014763FE
:1035A000C0E90E7146210B910F20CDE90907CDE945
:1035B00002070490D3480F9709A908975038FFF7DE
:1035C000D1F9322005F0F4F8D32002F09DFF02F08B
:1035D00039FDA08002F036FDA08002F033FD4FF6E9
:1035E000FF7707EA0020A08002F02CFDA1880843A5
:1035F000A0F51341A08041397DD0042002F084FF62
:1036000002F020FDA08002F01DFDA08002F01AFD56
:1036100007EA0020A08002F015FDA1880843A0F56C
:103620000541A080523967D0A84264D0D42002F06E
:103630006BFF02F007FDA08002F004FDA08002F005
:1036400001FD07EA0020A08002F0FCFCA1880843ED
:10365000A080B04276D0D32002F056FF02F0F2FCF8
:10366000A08002F0EFFCA08002F0ECFC07EA002052
:10367000A08002F0E7FCA1880843A080404561D00B
:1036800055214FF4704002F055FFAA214FF201007E
:1036900002F050FF52214FF2020002F04BFF0821CE
:1036A0004FF2030002F046FF01214FF2040002F046
:1036B00041FF4FF4454002F027FF02F0C3FC07EA48
:1036C0000020A0804CF2015002F01EFF02F0BAFC74
:1036D000A1880843A080052005F06AF8A188494523
:1036E00030D0D32002F010FF02F0ACFCA08002F03A
:1036F000A9FCA08001E020E020E002F0A3FC07EAA2
:103700000020A08002F09EFCA1880843A0805045C4
:1037100018D0A12002F0F8FE02F094FCA08002F084
:1037200091FC07EA0020A08002F08CFCA1880843ED
:10373000A0F5AE41A080613902D003E0A58001E090
:10374000A4F804B0A18873A0FCF7ACFDA088A0F594
:10375000134141397ED0A8427DD1112002F0D4FE20
:10376000782005F025F8362002F0CEFE002002F089
:10377000BFFE3A2002F0C8FE052002F0B9FEB220DA
:1037800002F0C2FE0C2002F0B3FE0C2002F0B0FEEC
:10379000002002F0ADFE332002F0AAFE332002F03A
:1037A000A7FEB72002F0B0FE352002F0A1FEBB203C
:1037B00002F0AAFE322002F09BFEC02002F0A4FE1E
:1037C0000C2002F095FEC22002F09EFE012002F0C5
:1037D0008FFEC32002F098FE102002F089FEC42064
:1037E00002F092FE202002F083FEC62002F08CFE42
:1037F0000F2002F07DFED02002F086FEA42002F011
:1038000077FEA12002F074FEE02002F07DFED020C1
:1038100002F06EFE002002F06BFE022002F068FE55
:10382000072002F065FE0A2002F062FE282002F066
:103830005FFE322002F05CFE442002F059FE42207E
:1038400002F056FE062002F053FE0E2002F050FE5B
:10385000122001E066E077E102F04AFE142002F057
:1038600047FE172002F044FEE12002F04DFED0207A
:1038700002F03EFE002002F03BFE022002F038FE85
:10388000072002F035FE0A2002F032FE282002F066
:103890002FFE312002F02CFE542002F029FE47209A
:1038A00002F026FE0E2002F023FE1C2002F020FE75
:1038B000172002F01DFE1B2002F01AFE1E2002F04F
:1038C00017FE2A2002F020FE002002F011FE002048
:1038D00002F00EFE002002F00BFEEF2002F008FEC8
:1038E0002B2002F011FE002002F002FE002002F068
:1038F000FFFD012002F0FCFD3F2002F0F9FD292030
:1039000002F0A0BA6C0200203038024000040240ED
:10391000040100A0204C43442049443A25780D0A74
:1039200000000000CF2002F0EFFD002002F0E0FDDB
:10393000C12002F0DDFD302002F0DAFDED2002F0C2
:10394000E3FD642002F0D4FD032002F0D1FD12203B
:1039500002F0CEFD812002F0CBFDE82002F0D4FD84
:10396000852002F0C5FD102002F0C2FD7A2002F091
:10397000BFFDCB2002F0C8FD392002F0B9FD2C209C
:1039800002F0B6FD002002F0B3FD342002F0B0FDDD
:10399000022002F0ADFDF72002F0B6FD202002F07B
:1039A000A7FDEA2002F0B0FD002002F0A1FD0020FA
:1039B00002F09EFDC02002F0A7FD1B2002F098FD42
:1039C000C12002F0A1FD012002F092FDC52002F00D
:1039D0009BFD302002F08CFD302002F089FDC720D5
:1039E00002F092FDB72002F083FD362002F08CFD3C
:1039F000482002F07DFD3A2002F086FD552002F0BD
:103A000077FDB12002F080FD002002F071FD1A2048
:103A100002F06EFDB62002F077FD0A2002F068FD8C
:103A2000A22002F065FDF22002F06EFD002002F0FF
:103A30005FFD262002F068FD012002F059FDE02024
:103A400002F062FD0F2002F053FD2A2002F050FD2B
:103A5000282002F04DFD082002F04AFD0E2002F061
:103A600047FD082002F044FD542002F041FDA9204A
:103A700002F03EFD432002F03BFD0A2002F038FD3B
:103A80000F2002F035FD002002F032FD002002F090
:103A90002FFD002002F02CFD002002F029FDE12086
:103AA00002F032FD002002F023FD152002F020FD7F
:103AB000172002F01DFD072002F01AFD112002F070
:103AC00017FD062002F014FD2B2002F011FD5620F8
:103AD00002F00EFD3C2002F00BFD052002F008FD77
:103AE000102002F005FD0F2002F002FD3F2002F041
:103AF000FFFC3F2002F0FCFC0F2002F0F9FC2B2021
:103B000002F002FD002002F0F3FC002002F0F0FCC5
:103B1000012002F0EDFC3F2002F0EAFC2A2002F036
:103B2000F3FC002002F0E4FC002002F0E1FC0020A5
:103B300002F0DEFCEF2002F0DBFC112002F0E4FCDE
:103B4000782004F035FEDAE6B0427CD1ED2002F0B8
:103B5000DBFC012002F0CCFCFE2002F0C9FCEE20D0
:103B600002F0D2FCDE2002F0C3FC212002F0C0FCF7
:103B7000F12002F0C9FC012002F0BAFCDF2002F0C3
:103B8000C3FC102002F0B4FCC42002F0BDFC8F2066
:103B900002F0AEFCC62002F0B7FC002002F0A8FC48
:103BA000E22002F0A5FCE22002F0A2FCE22002F0FA
:103BB0009FFCBF2002F0A8FCAA2002F099FCB020D4
:103BC00002F0A2FC0D2002F093FC002002F090FC19
:103BD0000D2002F08DFC002002F08AFC112002F082
:103BE00087FC002002F084FC192002F081FC0020F8
:103BF00002F07EFC212002F07BFC002002F078FC29
:103C00002D2002F075FC002002F072FC3D2002F035
:103C10006FFC002002F06CFC5D2002F069FC0020CB
:103C200002F066FC5D2002F063FC002002F060FC04
:103C3000B12002F069FC802002F05AFC002002F062
:103C400057FC8B2000E0FCE302F052FC002002F065
:103C50004FFC962002F04CFC002002F049FCB22000
:103C600002F052FC002002F043FC002002F040FC75
:103C7000022002F03DFC002002F03AFC032002F09A
:103C800037FC002002F034FCB32002F03DFC0020A1
:103C900002F02EFC002002F02BFC002002F028FC99
:103CA000002002F025FC002002F022FC002002F09F
:103CB0001FFC002002F01CFC002002F019FC002078
:103CC00002F016FC002002F013FC002002F010FCB1
:103CD000002002F00DFC002002F00AFC002002F09F
:103CE00007FC002002F004FC002002F001FC002090
:103CF00002F0FEFB002002F0FBFB002002F0F8FBCC
:103D0000002002F0F5FB002002F0F2FB002002F0A0
:103D1000EFFB002002F0ECFB002002F0E9FBB420F6
:103D200002F0F2FB8B2002F0E3FB002002F0E0FB4C
:103D3000962002F0DDFB002002F0DAFBA12002F069
:103D4000D7FB002002F0D4FBB52002F0DDFB0220FF
:103D500002F0CEFB002002F0CBFB032002F0C8FBF8
:103D6000002002F0C5FB042002F0C2FB002002F09C
:103D7000BFFBB62002F0C8FB002002F0B9FB002018
:103D800002F0B6FBB72002F0BFFB002002F0B0FB50
:103D9000002002F0ADFB3F2002F0AAFB002002F061
:103DA000A7FB5E2002F0A4FB002002F0A1FB642030
:103DB00002F09EFB002002F09BFB8C2002F098FB9F
:103DC000002002F095FBAC2002F092FB002002F0F4
:103DD0008FFBDC2002F08CFB002002F089FB7020BE
:103DE00002F086FB002002F083FB902002F080FBB3
:103DF000002002F07DFBEB2002F07AFB002002F0B5
:103E000077FBDC2002F074FB002002F071FBB8208D
:103E100002F07AFB002002F06BFB002002F068FB4E
:103E2000002002F065FB002002F062FB002002F09F
:103E30005FFB002002F05CFB002002F059FB002039
:103E400002F056FBBA2002F05FFB242002F050FB88
:103E5000002002F04DFB002002F04AFB002002F09F
:103E600047FBC12002F050FB202002F041FB002064
:103E700002F03EFB542002F03BFB002002F038FB36
:103E8000FF2002F035FB002002F032FBC22002F0DE
:103E90003BFB0A2002F02CFB002002F029FB04204F
:103EA00002F026FB002002F023FBC32002F02CFBD3
:103EB0003C2002F01DFB002002F01AFB3A2002F029
:103EC00017FB002002F014FB392002F011FB002048
:103ED00002F00EFB372002F00BFB002002F008FB83
:103EE0003C2002F005FB002002F002FB362002F02D
:103EF000FFFA002002F0FCFA322002F0F9FA00206A
:103F000002F0F6FA2F2002F0F3FA002002F0F0FAA5
:103F10002C2002F0EDFA002002F0EAFA292002F04B
:103F2000E7FA002002F0E4FA262002F0E1FA00208D
:103F300002F0DEFA242002F0DBFA002002F0D8FAC8
:103F4000242002F0D5FA002002F0D2FA232002F059
:103F5000CFFA002002F0CCFA3C2002F0C9FA00208F
:103F600002F0C6FA362002F0C3FA002002F0C0FACE
:103F7000322002F0BDFA002002F0BAFA2F2002F03F
:103F8000B7FA002002F0B4FA2C2002F0B1FA0020B7
:103F900002F0AEFA292002F0ABFA002002F0A8FAF3
:103FA000262002F0A5FA002002F0A2FA242002F056
:103FB0009FFA002002F09CFA242002F099FA0020D7
:103FC00002F096FA232002F093FA002002F090FA11
:103FD000C42002F099FA622002F08AFA002002F06E
:103FE00087FA052002F084FA002002F081FA84208A
:103FF00002F07EFA002002F07BFAF02002F078FA5C
:10400000002002F075FA182002F072FA002002F087
:104010006FFAA42002F06CFA002002F069FA18206E
:1040200002F066FA002002F063FA502002F060FA13
:10403000002002F05DFA0C2002F05AFA002002F093
:1040400057FA172002F054FA002002F051FA952096
:1040500002F04EFA002002F04BFAF32002F048FA88
:10406000002002F045FAE62002F042FA002002F0B9
:104070003FFAC52002F048FA322002F039FA002057
:1040800002F036FA442002F033FA002002F030FA4F
:10409000652002F02DFA002002F02AFA762002F0C4
:1040A00027FA002002F024FA882002F021FA0020EA
:1040B00002F01EFAC62002F027FA202002F018FAB9
:1040C000002002F015FA172002F012FA002002F088
:1040D0000FFA012002F00CFA002002F009FAC720C2
:1040E00002F012FA002002F003FA002002F000FAB7
:1040F000002002F0FDF9002002F0FAF9C82002F0D9
:1041000003FA002002F0F4F9002002F0F1F9002097
:1041100002F0EEF9002002F0EBF9C92002F0F4F908
:10412000002002F0E5F9002002F0E2F9002002F0A0
:10413000DFF9002002F0DCF9002002F0D9F90020BC
:1041400002F0D6F9002002F0D3F9002002F0D0F9F5
:10415000002002F0CDF9002002F0CAF9002002F0A0
:10416000C7F9002002F0C4F9002002F0C1F90020D4
:1041700002F0BEF9002002F0BBF9002002F0B8F90D
:10418000E02002F0C1F9162002F0B2F9002002F09E
:10419000AFF91C2002F0ACF9002002F0A9F92120AF
:1041A00002F0A6F9002002F0A3F9362002F0A0F9EF
:1041B000002002F09DF9462002F09AF9002002F05A
:1041C00097F9522002F094F9002002F091F964204E
:1041D00002F08EF9002002F08BF97A2002F088F9C3
:1041E000002002F085F98B2002F082F9002002F015
:1041F0007FF9992002F07CF9002002F079F9A820DB
:1042000002F076F9002002F073F9B92002F070F99B
:10421000002002F06DF9C42002F06AF9002002F0DB
:1042200067F9CA2002F064F9002002F061F9D22097
:1042300002F05EF9002002F05BF9D92002F058F993
:10424000002002F055F9E02002F052F9002002F0BF
:104250004FF9F32002F04CF9002002F049F9E12077
:1042600002F052F9162002F043F9002002F040F962
:104270001C2002F03DF9002002F03AF9222002F061
:1042800037F9002002F034F9362002F031F900202D
:1042900002F02EF9452002F02BF9002002F028F957
:1042A000522002F025F9002002F022F9642002F0E9
:1042B0001FF9002002F01CF97A2002F019F9002001
:1042C00002F016F98B2002F013F9002002F010F929
:1042D000992002F00DF9002002F00AF9A82002F05E
:1042E00007F9002002F004F9B92002F001F90020DA
:1042F00002F0FEF8C42002F0FBF8002002F0F8F80B
:10430000CA2002F0F5F8002002F0F2F8D22002F004
:10431000EFF8002002F0ECF8D82002F0E9F80020D5
:1043200002F0E6F8E02002F0E3F8002002F0E0F806
:10433000F32002F0DDF8002002F0DAF8E22002F0CB
:10434000E3F8052002F0D4F8002002F0D1F80B20A9
:1043500002F0CEF8002002F0CBF81B2002F0C8F8E3
:10436000002002F0C5F8342002F0C2F8002002F06C
:10437000BFF8442002F0BCF8002002F0B9F84F204A
:1043800002F0B6F8002002F0B3F8612002F0B0F8B5
:10439000002002F0ADF8792002F0AAF8002002F027
:1043A000A7F8882002F0A4F8002002F0A1F89720D6
:1043B00002F09EF8002002F09BF8A62002F098F888
:1043C000002002F095F8B72002F092F8002002F0E9
:1043D0008FF8C22002F08CF8002002F089F8C72084
:1043E00002F086F8002002F083F8D12002F080F875
:1043F000002002F07DF8D62002F07AF8002002F0CA
:1044000077F8DD2002F074F8002002F071F8F32054
:1044100002F06EF8002002F06BF8E32002F074F86E
:10442000052002F065F8002002F062F80A2002F090
:104430005FF8002002F05CF81C2002F059F8002020
:1044400000E0FDE202F054F8332002F051F80020C1
:1044500002F04EF8442002F04BF8002002F048F839
:10446000502002F045F8002002F042F8622002F0ED
:104470003FF8002002F03CF8782002F039F80020E4
:1044800002F036F8882002F033F8002002F030F80D
:10449000972002F02DF8002002F02AF8A62002F062
:1044A00027F8002002F024F8B72002F021F80020BD
:1044B00002F01EF8C22002F01BF8002002F018F8EB
:1044C000C72002F015F8002002F012F8D12002F007
:1044D0000FF8002002F00CF8D52002F009F80020B7
:1044E00002F006F8DD2002F003F8002002F000F8E8
:1044F000F32001F0FDFF002001F0FAFFE42002F0BC
:1045000003F8012001F0F4FF002001F0F1FF012089
:1045100001F0EEFF002001F0EBFF022001F0E8FFC8
:10452000002001F0E5FF2A2001F0E2FF002001F069
:10453000DFFF3C2001F0DCFF002001F0D9FF4B2021
:1045400001F0D6FF002001F0D3FF5D2001F0D0FF85
:10455000002001F0CDFF742001F0CAFF002001F01F
:10456000C7FF842001F0C4FF002001F0C1FF9320A9
:1045700001F0BEFF002001F0BBFFA22001F0B8FF58
:10458000002001F0B5FFB32001F0B2FF002001F0E0
:10459000AFFFBE2001F0ACFF002001F0A9FFC42056
:1045A00001F0A6FF002001F0A3FFCD2001F0A0FF45
:1045B000002001F09DFFD32001F09AFF002001F0C0
:1045C00097FFDD2001F094FF002001F091FFF32020
:1045D00001F08EFF002001F08BFFE52001F094FF39
:1045E000002001F085FF002001F082FF002001F093
:1045F0007FFF002001F07CFF022001F079FF002006
:1046000001F076FF292001F073FF002001F070FF18
:104610003C2001F06DFF002001F06AFF4B2001F00B
:1046200067FF002001F064FF5D2001F061FF0020C2
:1046300001F05EFF742001F05BFF002001F058FFE5
:10464000842001F055FF002001F052FF932001F07B
:104650004FFF002001F04CFFA22001F049FF002095
:1046600001F046FFB32001F043FF002001F040FFBE
:10467000BE2001F03DFF002001F03AFFC42001F010
:1046800037FF002001F034FFCD2001F031FF002082
:1046900001F02EFFD32001F02BFF002001F028FFB6
:1046A000DC2001F025FF002001F022FFF32001F0C3
:1046B0001FFF002001F01CFFE62001F025FF112064
:1046C00001F016FF002001F013FF342001F010FF6D
:1046D000002001F00DFF562001F00AFF002001F03C
:1046E00007FF762001F004FF002001F001FF772092
:1046F00001F0FEFE002001F0FBFE662001F0F8FE56
:10470000002001F0F5FE882001F0F2FE002001F00B
:10471000EFFE992001F0ECFE002001F0E9FEBB2045
:1047200001F0E6FE002001F0E3FE992001F0E0FE3A
:10473000002001F0DDFE662001F0DAFE002001F02D
:10474000D7FE552001F0D4FE002001F0D1FE552007
:1047500001F0CEFE002001F0CBFE452001F0C8FEA6
:10476000002001F0C5FE432001F0C2FE002001F050
:10477000BFFE442001F0BCFE002001F0B9FEE7209E
:1047800001F0C2FE322001F0B3FE002001F0B0FEC5
:10479000552001F0ADFE002001F0AAFE762001F0C8
:1047A000A7FE002001F0A4FE662001F0A1FE00207B
:1047B00001F09EFE672001F09BFE002001F098FEB4
:1047C000672001F095FE002001F092FE872001F0A5
:1047D0008FFE002001F08CFE992001F089FE002060
:1047E00001F086FEBB2001F083FE002001F080FE78
:1047F000992001F07DFE002001F07AFE772001F083
:1048000077FE002001F074FE442001F071FE0020CC
:1048100001F06EFE562001F06BFE002001F068FEF4
:10482000232001F065FE002001F062FE332001F03C
:104830005FFE002001F05CFE452001F059FE0020E3
:1048400001F056FEE82001F05FFE002001F050FE6E
:10485000002001F04DFE992001F04AFE002001F0F9
:1048600047FE872001F044FE002001F041FE882031
:1048700001F03EFE002001F03BFE772001F038FE03
:10488000002001F035FE662001F032FE002001F02C
:104890002FFE882001F02CFE002001F029FEAA2026
:1048A00001F026FE002001F023FEBB2001F020FED7
:1048B000002001F01DFE992001F01AFE002001F0F9
:1048C00017FE662001F014FE002001F011FE5520B5
:1048D00001F00EFE002001F00BFE552001F008FE55
:1048E000002001F005FE442001F002FE002001F04E
:1048F000FFFD442001F0FCFD002001F0F9FD5520F2
:1049000001F0F6FD002001F0F3FDE92001F0FCFDCF
:10491000AA2001F0EDFD002001F0EAFD002001F0E9
:10492000E7FD002001F0E4FD002001F0EDFDAA20EC
:1049300001F0DEFDCF2001F0E7FD002001F0D8FD01
:10494000002001F0D5FD002001F0D2FD002001F093
:10495000CFFD002001F0CCFD002001F0C9FD0020BA
:1049600001F0C6FD002001F0C3FD002001F0C0FDF4
:10497000002001F0BDFD002001F0BAFD002001F093
:10498000B7FD002001F0B4FD002001F0B1FD0020D2
:1049900001F0AEFD002001F0ABFD002001F0A8FD0C
:1049A000F02001F0B1FD002001F0A2FD502001F047
:1049B0009FFD002001F09CFD002001F099FD0020EA
:1049C00001F096FDF32001F09FFD002001F090FD25
:1049D000F92001F099FD062001F08AFD102001F078
:1049E00087FD292001F084FD002001F081FD3A209F
:1049F00001F08AFD552001F07BFD112001F084FDBE
:104A0000642003F0D5FE292001F07EFD352001F061
:104A10007BFD002001F06CFD512001F075FDFF20B1
:104A200001F066FD532001F06FFD2C2001F060FDC8
:104A3000552001F069FD822001F05AFD01F001BA14
:104A400048457DD155214FF4704001F073FDAA21F6
:104A50004FF2010001F06EFD52214FF2020001F011
:104A600069FD4FF203030821184601F063FD4FF280
:104A700004070121384601F05DFD0D214FF430405F
:104A800001F058FD0D214BF2010001F053FD0D2105
:104A90004BF2020001F04EFD34214FF4364001F09C
:104AA00049FD34214BF2016001F044FD34214BF209
:104AB000026001F03FFD0D214FF4314001F03AFD5D
:104AC0000D214BF2011001F035FD0D214BF20210CA
:104AD00001F030FD34214FF4374001F02BFD34213B
:104AE0004BF2017001F026FD34214BF2027001F00F
:104AF00021FD00214FF4324001F01CFD00214BF25A
:104B0000012001F017FD00214BF2022001F012FDFF
:104B100024214FF4384001F00DFD24214BF6010013
:104B200001F008FD24214BF6020001F003FD0121F4
:104B30004FF43F4001F0FEFC0F214FF4334000E002
:104B4000FEE301F0F7FC0F214BF2013001F0F2FC23
:104B50000F214BF2023001F0EDFC34214FF43940CB
:104B600001F0E8FC34214BF6011001F0E3FC3421A4
:104B70004BF6021001F0DEFC08214FF4354001F045
:104B8000D9FC08214BF2015001F0D4FC08214BF272
:104B9000025001F0CFFC03214FF4424001F0CAFC67
:104BA00024214FF43A4001F0C5FC24214BF60120AA
:104BB00001F0C0FC24214BF6022001F0BBFC0021D7
:104BC0004FF43C4001F0B6FC78214BF6014001F077
:104BD000B1FC00214BF6024001F0ACFC00214FF487
:104BE0003D4001F0A7FC78214BF6015001F0A2FCFA
:104BF00000214BF6025001F09DFC00214FF43E4095
:104C000001F098FC64214BF6016001F093FC002157
:104C10004FF4514001F08EFC33214DF2011001F0B0
:104C200089FC00214DF2021001F084FC34214DF288
:104C3000031001F07FFC00214DF2041001F07AFC1A
:104C40003A214DF2051001F075FC00214DF20610DD
:104C500001F070FC4A214DF2071001F06BFC0021BD
:104C60004DF2081001F066FC5C214DF2091001F0D4
:104C700061FC00214DF20A1001F05CFC81214DF233
:104C80000B1001F057FC00214DF20C1001F052FC0A
:104C9000A6214DF20D1001F04DFC00214DF20E1039
:104CA00001F048FCE5214DF20F1001F043FC012119
:104CB0004DF2101001F03EFC13214DF2111001F0E5
:104CC00039FC01214DF2121001F034FC54214DF257
:104CD000131001F02FFC01214DF2141001F02AFCF9
:104CE00082214DF2151001F025FC01214DF2161024
:104CF00001F020FCCA214DF2171001F01BFC02212B
:104D00004DF2181001F016FC00214DF2191001F0BF
:104D100011FC02214DF21A1001F00CFC01214DF2A0
:104D20001B1001F007FC02214DF21C1001F002FCE7
:104D300034214DF21D1001F0FDFB02214DF21E1039
:104D400001F0F8FB67214DF21F1001F0F3FB022187
:104D50004DF2201001F0EEFB84214DF2211001F004
:104D6000E9FB02214DF2221001F0E4FBA4214DF2F7
:104D7000231001F0DFFB02214DF2241001F0DAFBD9
:104D8000B7214DF2251001F0D5FB02214DF226107E
:104D900001F0D0FBCF214DF2271001F0CBFB022117
:104DA0004DF2281001F0C6FBDE214DF2291001F072
:104DB000C1FB02214DF22A1001F0BCFBF2214DF2A1
:104DC0002B1001F0B7FB02214DF22C1001F0B2FBC9
:104DD000FE214DF22D1001F0ADFB03214DF22E10FE
:104DE00001F0A8FB10214DF22F1001F0A3FB0321CD
:104DF0004DF2301001F09EFB33214DF2311001F0E5
:104E000099FB03214DF2321001F094FB6D214DF21C
:104E1000331001F08FFB00214FF4524001F08AFB68
:104E200033214DF2012001F085FB00214DF20220DB
:104E300001F080FB34214DF2032001F07BFB0021C7
:104E40004DF2042001F076FB3A214DF2052001F0ED
:104E500071FB00214DF2062001F06CFB4A214DF25E
:104E6000072001F067FB00214DF2082001F062FBF2
:104E70005C214DF2092001F05DFB00214DF20A207A
:104E800001F058FB81214DF20B2001F053FB002172
:104E90004DF20C2001F04EFBA6214DF20D2001F049
:104EA00049FB00214DF20E2001F044FBE5214DF2BB
:104EB0000F2001F03FFB01214DF2102001F03AFBE1
:104EC00013214DF2112001F035FB01214DF212208A
:104ED00001F030FB54214DF2132001F02BFB012196
:104EE0004DF2142001F026FB82214DF2152001F035
:104EF00021FB01214DF2162001F01CFBCA214DF2CD
:104F0000172001F017FB02214DF2182001F012FBCF
:104F100000214DF2192001F00DFB02214DF21A2063
:104F200001F008FB01214DF21B2001F003FB0221DF
:104F30004DF21C2001F0FEFA34214DF21D2001F04B
:104F4000F9FA02214DF21E2001F0F4FA67214DF228
:104F50001F2001F0EFFA02214DF2202001F0EAFAC1
:104F600084214DF2212001F0E5FA02214DF22220A8
:104F700001F0E0FAA4214DF2232001F0DBFA022136
:104F80004DF2242001F0D6FAB7214DF2252001F090
:104F9000D1FA02214DF2262001F0CCFACF214DF2B8
:104FA000272001F0C7FA02214DF2282001F0C2FAB1
:104FB000DE214DF2292001F0BDFA02214DF22A2016
:104FC00001F0B8FAF2214DF22B2001F0B3FA0221E0
:104FD0004DF22C2001F0AEFAFE214DF22D2001F011
:104FE000A9FA03214DF22E2001F0A4FA10214DF26E
:104FF0002F2001F09FFA03214DF2302001F09AFAA0
:1050000033214DF2312001F095FA03214DF2322087
:1050100001F090FA6D214DF2332001F08BFA00215E
:105020004FF4534001F086FA33214DF2013001F084
:1050300081FA00214DF2023001F07CFA34214DF268
:10504000033001F077FA00214DF2043001F072FADA
:105050003A214DF2053001F06DFA00214DF2063093
:1050600001F068FA4A214DF2073001F063FA00219D
:105070004DF2083001F05EFA5C214DF2093001F08A
:1050800059FA00214DF20A3001F054FA81214DF213
:105090000B3001F04FFA00214DF20C3001F04AFACA
:1050A000A6214DF20D3001F045FA00214DF20E30EF
:1050B00001F040FAE5214DF20F3001F03BFA0121F9
:1050C0004DF2103001F036FA13214DF2113001F09B
:1050D00031FA01214DF2123001F02CFA54214DF237
:1050E000133001F027FA01214DF2143001F022FAB9
:1050F00082214DF2153001F01DFA01214DF21630DA
:1051000001F018FACA214DF2173001F013FA02210A
:105110004DF2183001F00EFA00214DF2193001F075
:1051200009FA02214DF21A3001F004FA01214DF280
:105130001B3001F0FFF902214DF21C3001F0FAF9A9
:1051400034214DF21D3001F0F5F902214DF21E30EF
:1051500001F0F0F967214DF21F3001F0EBF9022167
:105160004DF2203001F0E6F984214DF2213001F0BA
:10517000E1F902214DF2223001F0DCF9A4214DF2D7
:10518000233001F0D7F902214DF2243001F0D2F999
:10519000B7214DF2253001F0CDF902214DF2263034
:1051A00001F0C8F9CF214DF2273001F0C3F90221F7
:1051B0004DF2283001F0BEF9DE214DF2293001F028
:1051C000B9F902214DF22A3001F0B4F9F2214DF281
:1051D0002B3001F0AFF902214DF22C3001F0AAF989
:1051E000FE214DF22D3001F0A5F903214DF22E30B4
:1051F00001F0A0F910214DF22F3001F09BF90321AD
:105200004DF2303001F096F933214DF2313001F09A
:1052100091F903214DF2323001F08CF96D214DF2FC
:10522000333001F087F900214FF4544001F082F946
:1052300033214DF2014001F07DF900214DF2024091
:1052400001F078F934214DF2034001F073F90021A7
:105250004DF2044001F06EF93A214DF2054001F0A3
:1052600069F900214DF2064001F064F94A214DF23E
:10527000074001F05FF900214DF2084001F05AF9B2
:105280005C214DF2094001F055F900214DF20A4030
:1052900001F050F981214DF20B4001F04BF9002152
:1052A0004DF20C4001F046F9A6214DF20D4001F0FF
:1052B00041F900214DF20E4001F03CF9E5214DF29B
:1052C0000F4001F037F901214DF2104001F032F9A1
:1052D00013214DF2114001F02DF901214DF2124040
:1052E00001F028F954214DF2134001F023F9012176
:1052F0004DF2144001F01EF982214DF2154001F0EB
:1053000019F901214DF2164001F014F9CA214DF2AC
:10531000174001F00FF902214DF2184001F00AF98F
:1053200000214DF2194001F005F902214DF21A4019
:1053300001F000F901214DF21B4001F0FBF800E003
:10534000FCE202214DF21C4001F0F4F834214DF250
:105350001D4001F0EFF802214DF21E4001F0EAF885
:1053600067214DF21F4001F0E5F802214DF2204087
:1053700001F0E0F884214DF2214001F0DBF8022138
:105380004DF2224001F0D6F8A4214DF2234001F065
:10539000D1F802214DF2244001F0CCF8B7214DF2B2
:1053A000254001F0C7F802214DF2264001F0C2F875
:1053B000CF214DF2274001F0BDF802214DF22840E7
:1053C00001F0B8F8DE214DF2294001F0B3F80221D6
:1053D0004DF22A4001F0AEF8F2214DF22B4001F0DF
:1053E000A9F802214DF22C4001F0A4F8FE214DF263
:1053F0002D4001F09FF803214DF22E4001F09AF864
:1054000010214DF22F4001F095F803214DF230406C
:1054100001F090F833214DF2314001F08BF8032177
:105420004DF2324001F086F86D214DF2334001F02B
:1054300081F800214FF4554001F07CF833214DF202
:10544000015001F077F800214DF2025001F072F89E
:1054500034214DF2035001F06DF800214DF204505B
:1054600001F068F83A214DF2055001F063F800218F
:105470004DF2065001F05EF84A214DF2075001F05E
:1054800059F800214DF2085001F054F85C214DF21A
:10549000095001F04FF800214DF20A5001F04AF88E
:1054A00081214DF20B5001F045F800214DF20C50D6
:1054B00001F040F8A6214DF20D5001F03BF800211B
:1054C0004DF20E5001F036F8E5214DF20F5001F08B
:1054D00031F801214DF2105001F02CF813214DF25A
:1054E000115001F027F801214DF2125001F022F87D
:1054F00054214DF2135001F01DF801214DF21450CA
:1055000001F018F882214DF2155001F013F8012135
:105510004DF2165001F00EF8CA214DF2175001F06D
:1055200009F802214DF2185001F004F800214DF263
:10553000195000F0FFFF02214DF21A5000F0FAFF5F
:1055400001214DF21B5000F0F5FF02214DF21C50DD
:1055500000F0F0FF34214DF21D5000F0EBFF02216E
:105560004DF21E5000F0E6FF67214DF21F5000F093
:10557000E1FF02214DF2205000F0DCFF84214DF2CA
:10558000215000F0D7FF02214DF2225000F0D2FF4F
:10559000A4214DF2235000F0CDFF02214DF2245002
:1055A00000F0C8FFB7214DF2255000F0C3FF0221E3
:1055B0004DF2265000F0BEFFCF214DF2275000F0F3
:1055C000B9FF02214DF2285000F0B4FFDE214DF268
:1055D000295000F0AFFF02214DF22A5000F0AAFF3F
:1055E000F2214DF22B5000F0A5FF02214DF22C507C
:1055F00000F0A0FFFE214DF22D5000F09BFF032193
:105600004DF22E5000F096FF10214DF22F5000F079
:1056100091FF03214DF2305000F08CFF33214DF209
:10562000315000F087FF03214DF2325000F082FF2D
:105630006D214DF2335000F07DFF00214FF45640B4
:1056400000F078FF33214DF2016000F073FF00217C
:105650004DF2026000F06EFF34214DF2036000F065
:1056600069FF00214DF2046000F064FF3A214DF221
:10567000056000F05FFF00214DF2066000F05AFF68
:105680004A214DF2076000F055FF00214DF20860FD
:1056900000F050FF5C214DF2096000F04BFF00214B
:1056A0004DF20A6000F046FF81214DF20B6000F0E0
:1056B00041FF00214DF20C6000F03CFFA6214DF2AD
:1056C0000D6000F037FF00214DF20E6000F032FF58
:1056D000E5214DF20F6000F02DFF01214DF2106029
:1056E00000F028FF13214DF2116000F023FF01218B
:1056F0004DF2126000F01EFF54214DF2136000F0D5
:1057000019FF01214DF2146000F014FF82214DF2C7
:10571000156000F00FFF01214DF2166000F00AFF46
:10572000CA214DF2176000F005FF02214DF218600A
:1057300000F000FF00214DF2196000F0FBFE022195
:105740004DF21A6000F0F6FE01214DF21B6000F0F0
:10575000F1FE02214DF21C6000F0ECFE34214DF20E
:105760001D6000F0E7FE02214DF21E6000F0E2FE37
:1057700067214DF21F6000F0DDFE02214DF2206036
:1057800000F0D8FE84214DF2216000F0D3FE02210A
:105790004DF2226000F0CEFEA4214DF2236000F015
:1057A000C9FE02214DF2246000F0C4FEB7214DF283
:1057B000256000F0BFFE02214DF2266000F0BAFE27
:1057C000CF214DF2276000F0B5FE02214DF2286096
:1057D00000F0B0FEDE214DF2296000F0ABFE0221A8
:1057E0004DF22A6000F0A6FEF2214DF22B6000F08F
:1057F000A1FE02214DF22C6000F09CFEFE214DF234
:105800002D6000F097FE03214DF22E6000F092FE15
:1058100010214DF22F6000F08DFE03214DF230601B
:1058200000F088FE33214DF2316000F083FE032149
:105830004DF2326000F07EFE6D214DF2336000F0DB
:1058400079FE5521381F00F075FEAA21F81E00F0E0
:1058500071FE5221B81E00F06DFE0821184600F0BE
:1058600069FE0021384600F065FECC214FF431403E
:1058700000F060FE00214BF2011000F05BFE0521FC
:105880004FF4364000F056FE70214FF4374000F0E0
:1058900051FE70214BF2017000F04CFE01214FF4DB
:1058A000384000F047FE03214BF6010000F042FEB5
:1058B00003214BF6020000F03DFE03214BF60300EE
:1058C00000F038FE02214FF43C4000F033FE00218E
:1058D0004BF6014000F02EFE00214BF6024000F096
:1058E00029FED0214FF4494000F024FE02214CF65D
:1058F000011000F01FFE50214CF6021000F01AFEBD
:1059000050214CF6031000F015FE50214CF6041007
:1059100000F010FE00214FF4545000F00BFE552112
:105920004FF4685000F006FE4FF4885000F0ECFD94
:10593000782002F04BFF4FF4245083E240457CD1A5
:10594000112000F0E1FD782002F032FF362000F057
:10595000DBFD482000F0CCFD3A2000F0D5FD5520BD
:1059600000F0C6FDF02000F0CFFDC32000F0C0FD28
:10597000F02000F0C9FD962000F0BAFDB42000F040
:10598000C3FD012000F0B4FDB62000F0BDFD0A20EB
:1059900000F0AEFDA22000F0ABFDB72000F0B4FD9A
:1059A000C62000F0A5FDB92000F0AEFD022000F0F9
:1059B0009FFDE02000F09CFDC02000F0A5FD8020B0
:1059C00000F096FD162000F093FDC12000F09CFD34
:1059D000192000F08DFDC22000F096FDA72000F0F8
:1059E00087FDC52000F090FD162000F081FDE82025
:1059F00000F08AFD402000F07BFD8A2000F078FD59
:105A0000002000F075FD002000F072FD292000F05C
:105A10006FFD192000F06CFDA52000F069FD33201A
:105A200000F066FDE02000F06FFDF02000F060FD6A
:105A3000072000F05DFD0D2000E063E000F058FD60
:105A4000042000F055FD052000F052FD142000F068
:105A50004FFD362000F04CFD542000F049FD4C2055
:105A600000F046FD382000F043FD132000F040FD1B
:105A7000142000F03DFD2E2000F03AFD342000F00F
:105A800037FDE12000F040FDF02000F031FD102056
:105A900000F02EFD142000F02BFD0E2000F028FD5C
:105AA0000C2000F025FD082000F022FD352000F03C
:105AB0001FFD442000F01CFD4C2000F019FD2620A5
:105AC00000F016FD102000F013FD122000F010FD74
:105AD0002C2000F00DFD322000F00AFDF02000F037
