:020000040800F2
:1000000020880220590300083F810008673C00084F
:100010003B8100087F0B00082D9C000800000000B9
:10002000000000000000000000000000A102000825
:10003000D50D000800000000F5020008E586000864
:1000400073030008730300087303000873030008B8
:1000500073030008730300087303000873030008A8
:100060007303000873030008730300087303000898
:100070007303000873030008730300087303000888
:100080007303000873030008730300087303000878
:100090007303000873030008730300087303000868
:1000A0007303000873030008730300087303000858
:1000B0007303000873030008730300087303000848
:1000C0007303000873030008730300087303000838
:1000D00073030008DD9B0008730300087303000826
:1000E0007303000873030008730300087303000818
:1000F0007303000873030008730300087303000808
:1001000073030008730300087303000873030008F7
:1001100073030008730300085D8700087303000879
:1001200073030008730300087303000873030008D7
:1001300073030008730300087303000873030008C7
:1001400073030008730300087303000873030008B7
:1001500073030008730300087303000873030008A7
:100160007303000873030008730300087303000897
:100170007303000873030008730300080000000005
:100180007303000873030008730300087303000877
:100190007303000873030008730300087303000867
:1001A00073030008730300087303000800F002F8EB
:1001B00000F067F80AA090E8000C82448344AAF19A
:1001C0000107DA4501D100F05CF8AFF2090EBAE898
:1001D0000F0013F0010F18BFFB1A43F0010318477B
:1001E00010530A0030530A000A444FF0000C10F874
:1001F000013B13F0070408BF10F8014B1D1108BFA5
:1002000010F8015B641E05D010F8016B641E01F844
:10021000016BF9D113F0080F1EBF10F8014BAD1C94
:100220000C1B09D16D1E58BF01F801CBFAD505E0B2
:1002300014F8016B01F8016B6D1EF9D59142D6D30C
:10024000704700000023002400250026103A28BF34
:1002500078C1FBD8520728BF30C148BF0B60704738
:10026000642900F07B81782900F0B481732900F0C3
:10027000BB83002070471FB53CF0B3F91FBD10B51C
:1002800010BD00F0D3FB1146FFF7F5FF33F08EF9F8
:1002900000F0F1FB03B4FFF7F2FF03BC0CF02EFA01
:1002A0002A4B19680868B0E8F04F80F30988BFF35B
:1002B0006F8F4FF0000080F311887047000000003E
:1002C00006480068006880F3088862B661B6BFF32C
:1002D0004F8FBFF36F8F00DF00BF00BF08ED00E05E
:1002E000DFF80C00016841F470010160704700BF45
:1002F00088ED00E0EFF30980BFF36F8F134B1A68AE
:100300001EF0100F08BF20ED108A20E9F04F10609A
:1003100008B44FF0500080F31188BFF34F8FBFF344
:100320006F8F3AF03BFC4FF0000080F3118808BC5F
:1003300019680868B0E8F04F1EF0100F08BFB0EC65
:10034000108A80F30988BFF36F8F70470005002083
:10035000EFF30580704700000948804709480047CF
:10036000FEE7FEE7FEE7FEE7FEE7FEE7FEE7FEE765
:10037000FEE7FEE704480549054A064B70470000C2
:10038000F9860008AD0100082082022020880220A2
:100390002084022020840220704753EA020C00F0DF
:1003A00069802DE9F04B4FF00006002B1FBFB3FA18
:1003B00083F503FA05F424FA05F65E4012BF1643EE
:1003C000B2FA82F502FA05F4C5F120051EBF22FA41
:1003D00005FC44EA0C04203556EA044C4FEA144468
:1003E00018BF641C4FF000084FF00009904271EBF9
:1003F000030C39D3002919BFB1FA81F701FA07F6C6
:10040000B0FA80F700FA07F6C7F120071EBF20FAFE
:1004100007FC46EA0C062037B6FBF4FCA7EB050701
:10042000103F07F01F0BCBF120060CFA0BFB2CFA48
:1004300006F644BFB3460026202FA4BF5E464FF009
:10044000000B5BEA060C08BF4FF0010B19EB0B0920
:10045000ABFB027C48EB0608C01B06FB02CC0BFB87
:1004600003CC71EB0C01C1E70B46024641464846FE
:10047000BDE8F08B13B54FF000004FF00001AFF373
:100480000080BDE81C4070470FB4044910B503AAB2
:10049000029800F0ADFA10BC5DF814FB28000020B3
:1004A0002DE9F0410E460446002020622046E16816
:1004B000884730B3252805D0D4E901219047206A28
:1004C000401CF2E7E168204600278847050018D065
:1004D000A5F14100192802D820354FF400673246B3
:1004E000294620462760FFF7BBFE40B1012804D013
:1004F000F61D26F007060836D8E7361DD6E728464B
:10050000DAE7206ABDE8F08170B50C460546012A9D
:1005100005D02878800600D5EA69002302E001238F
:1005200005E05B1C934202D2E05C0028F9D1A86987
:10053000E618C01AA861286A184428622846AFF352
:10054000008004E0D5E9012114F8010B9047B44282
:10055000F8D32846AFF3008070BD00002DE9F041CC
:100560000646002410687529314616A510D0AFF351
:100570000080002802DA404213A507E031688A07AC
:1005800001D512A502E0490704D511A5012401E017
:10059000AFF3008000210A2206F1240709E0B0FB36
:1005A000F2FCB0FBF2F302FB1C003030785418462A
:1005B000491C0028F3D123462A463046BDE8F041C5
:1005C00000F08FB9000000002D0000002B0000009B
:1005D0002000000070B504460D4621461068AFF3B8
:1005E00000802188090502D50F4A7A4402E00E4AAC
:1005F0007A440E32002104F1240305E000F00F06D6
:100600000009965D5E54491C0028F7D1207800232C
:10061000000704D5702D02D009B102231132204603
:10062000BDE8704000F05DB956480A0040EA010399
:10063000024630B59B0710D14FF0013400E008C2EC
:1006400008C91D1B9D4315EAC41FF8D013F0FF0114
:1006500002F8011B0DD01B0AF8E711F8013B002B33
:1006600002F8013B05D011F8013B002B02F8013BD9
:10067000F3D130BD10B5431C02E010F8011B71B17D
:100680008107FAD14FF0013202C88C1A8C4314EA68
:10069000C211F9D0C01A0A0603D0C01E10BDC01A7C
:1006A00010BD0A0401D0801E10BD0902FCD0401EFE
:1006B00010BD032A40F2308010F0030C00F01580CA
:1006C00011F8013BBCF1020F624498BF11F801CB55
:1006D00000F8013B38BF11F8013BA2F1040298BFBA
:1006E00000F801CB38BF00F8013B11F0030300F024
:1006F0002580083AC0F0088051F8043B083A51F8C8
:1007000004CBA0E80810F5E7121D5CBF51F8043BCC
:1007100040F8043BAFF30080D20724BF11F8013B3F
:1007200011F801CB48BF11F8012B24BF00F8013BA1
:1007300000F801CB48BF00F8012B704710B5203AF4
:10074000C0F00B80B1E81850203AA0E81850B1E88A
:100750001850A0E81850BFF4F5AF5FEA027C24BF40
:10076000B1E81850A0E8185044BF18C918C0BDE837
:1007700010405FEA827C24BF51F8043B40F8043B00
:1007800008BF7047D20728BF31F8023B48BF11F8B5
:10079000012B28BF20F8023B48BF00F8012B70470F
:1007A00002F0FF0343EA032242EA024200F002B8E9
:1007B0004FF000020429C0F0128010F0030C00F08A
:1007C0001B80CCF1040CBCF1020F18BF00F8012B08
:1007D000A8BF20F8022BA1EB0C0100F00DB85FEAD6
:1007E000C17C24BF00F8012B00F8012B48BF00F8A2
:1007F000012B70474FF0000200B513469446964611
:10080000203922BFA0E80C50A0E80C50B1F1200123
:10081000BFF4F7AF090728BFA0E80C5048BF0CC0D1
:100820005DF804EB890028BF40F8042B08BF70472F
:1008300048BF20F8022B11F0804F18BF00F8012BA1
:10084000704700004FF0013C50F8042B51F8043B76
:100850009A4221D1A2EB0C03934313EACC1317D194
:1008600050F8042B51F8043B9A4215D1A2EB0C032B
:10087000934313EACC130BD150F8042B51F8043BEB
:100880009A4209D1A2EB0C03934313EACC13DBD0B9
:100890004FF00000704700BFD01A01BAB1FA81F1E1
:1008A00001F0180122FA01F0CB40C1F12001DBB2C6
:1008B000C0B2C01A2CFA01F3D11A914311EAC31144
:1008C000E6D17047704770477047704710B500F029
:1008D000A1F8006810BD10B5044600F09BF8046054
:1008E00010BD2DE9F0470D4699469246044600F1A9
:1008F00024080168880604D5E06921F01001216010
:1009000000E00120A84201DD471B00E00027A169AB
:100910007A1902EB0900081AA0612078C00602D4F7
:100920002046AFF30080002608E0D4E901211AF840
:1009300006009047206A401C761C20624E45F4DB7E
:100940002078C0060AD52046AFF3008006E0D4E93F
:10095000012130209047206A401C2062381EA7F1F8
:100960000107F4DC07E0D4E9012118F805009047FD
:10097000206A401C2062281EA5F10105F3DC2046F8
:10098000AFF300802078000602D50220BDE8F08792
:100990000120FBE701694A1C02610878704700B535
:1009A0008FB0CDE901310021059105497944CDE9A8
:1009B000031011466846FFF773FD0FB000BD00003D
:1009C000E5FFFFFF10B5436913B1AFF3008001E00D
:1009D000FFF79AFD012010BD127800F124010A7082
:1009E00000224A700122EDE711684FF0FF32E9E77B
:1009F000074B70B50D467B44FFF7D1FF04462846F0
:100A000000F00CF810B14FF0FF3070BD204670BD03
:100A1000D78B010000487047C0810220007B00F0A6
:100A20008000704700487047C08102207546FFF77C
:100A3000F9FFAE4605006946534620F0070085469B
:100A400018B020B5FFF796FCBDE820404FF0000637
:100A50004FF000074FF000084FF0000B21F00701A6
:100A6000AC46ACE8C009ACE8C009ACE8C009ACE8E9
:100A7000C0098D46704710B50446AFF3008020468C
:100A8000BDE81040FFF706BC10B503F017F910BD24
:100A900070B506460C46154608E03046721C96B204
:100AA00000F007F804F8010B681E85B2002DF4D1A0
:100AB00070BD70B50446002603F0C0F92546E11765
:100AC00004EB11610912A02202EB4101C8B203F04C
:100AD00081F903F0FFF9E11704EB11610912A4EBAE
:100AE0000121C8B203F076F903F0F4F903F0A6F996
:100AF000A12003F06FF903F0EDF9002003F034F9C1
:100B0000064603F0C1F9304670BD70B505460C4687
:100B1000164606E02178284600F009F8681C85B2E0
:100B2000641C301EA6F101018EB2F3D170BD70B508
:100B300004460E4603F082F92546E11704EB1161E5
:100B40000912A02202EB4101C8B203F043F903F0FD
:100B5000C1F9E11704EB11610912A4EB0121C8B23C
:100B600003F038F903F0B6F9304603F033F903F037
:100B7000B1F903F089F90A200EF096FF70BD00BFAD
:100B8000FEE710B502200EF09BFF10BD10B500204F
:100B90000A490860FFF7F5FF01200949C1F89802EA
:100BA000FFF7EFFF002007490860FFF7EAFF012089
:100BB0000549C1F88C02FFF7E4FF10BD8C024442E6
:100BC00000804342988243420000444200B587B00F
:100BD00000BF002001901B48006840F080001949C8
:100BE00008600846006800F08000019000BF00BF68
:100BF00000BF002001900846006840F48070086043
:100C00000846006800F48070019000BF00BF4020DB
:100C1000029011200390012004900320059002A966
:100C2000094801F04BFA0820029002A9074801F098
:100C300045FA0120064908600649C1F8980207B044
:100C400000BD000030380240001C0240002002407D
:100C50008C0244420080434210B5012007490860DD
:100C6000FFF78FFF01200649C1F89802FFF789FFBF
:100C7000002004490860FFF784FF10BD8C02444245
:100C8000008043429882434270B505460024002606
:100C900013E06006040E01200D490860FFF771FFA4
:100CA0000C48D0F80C0208B1601CC4B200200849FE
:100CB0000860FFF766FF701CC6B2082EE9DB15B9A5
:100CC000FFF7CAFF01E0FFF761FF204670BD00009B
:100CD000988243420000444270B50446002511E06A
:100CE000E0090B490860FFF74CFF01200949C1F8F2
:100CF0009802FFF746FF0020074908606006040ECF
:100D0000681CC5B2082DEBDB01200149086070BDED
:100D10008C024442008043429882434210B5012035
:100D2000094908600949C1F89802FFF72AFF002025
:100D300005490860FFF725FF00200449C1F8980223
:100D4000FFF71FFF10BD00008C02444200804342A9
:100D500010B5002007490860FFF713FF012006497E
:100D6000C1F89802FFF70DFF012002490860FFF764
:100D700008FF10BD8C0244420080434270B500243D
:100D80000025012010490860FFF7FBFE01200F49F4
:100D9000C1F89802FFF7F5FE09E0601CC4B2FA2C16
:100DA00003DDFFF7D5FF012506E0FFF7EAFE064861
:100DB000803800680028F0D100BF00200449086096
:100DC000FFF7DFFE284670BD8C024442008043429C
:100DD000988243427047000070B504461D460023C8
:100DE000B5F5804F13D154F822300C480340D1E9B7
:100DF000000640EA06108E6840EA06208E8940EA26
:100E000006408E693043034344F8223003E06FF01C
:100E1000704044F82200002070BD00000000F0CFB8
:100E200010B502460023086852F820301B480340E2
:100E3000D1E901042043CC6820430C6920434C696C
:100E400020438C692043CC6920430C6A20434C6AC0
:100E500020438C6A2043CC6A2043CC6B20430C6B2C
:100E600020434C6B204303438868082801D143F09A
:100E70004003086842F82030486BB0F5801F0AD163
:100E8000086840B14FF4807008614C6B08692043DA
:100E9000146820431060002010BD00008000E0FFB7
:100EA00030B5034614460022601C53F8202002F09F
:100EB0004042D1E9000540EA05108D6840EA05206E
:100EC0008D8940EA0545088A401E45EA0055087D9F
:100ED000801E45EA00608D6928430243601C43F888
:100EE0002020186800F4801038B1586820F470028F
:100EF000088A401E42EA00525A60002030BD30B5D8
:100F00000246002300240868012816D013686FF3F6
:100F10000E03D1E901052843CD6828430D69284314
:100F20004D6928438D692843CD6928430D6A2843BC
:100F30004D6A28430343136019E013686FF30E03EF
:100F4000D1E9070528434D6A2843034354686FF3EA
:100F50000E04D1E901052843CD6828430D692843D3
:100F60004D6928438D692843044313605460002071
:100F700030BD0246506940EA410050610020704790
:100F8000F8B506460C461546002000900027D4E927
:100F900000010843A168491E40EA4110E16840EAA7
:100FA000412000900098306101F0A8F9074609E05F
:100FB000681C38B125B101F0A1F9C01BA84201D9C4
:100FC0000320F8BDB06900F020000028F0D100BF78
:100FD000F7E770B50346154600220024012D1FD007
:100FE0009A6802F070420868401E4E68761E40EA19
:100FF00006168868401E46EA0026C868401E46EA73
:101000000036088A401E46EA0046888A401E46EAA4
:101010000056087E401E46EA006002439A6022E0C5
:10102000DA6802F070420868401E4E68761E40EA98
:1010300006168868401E46EA0026088A401E46EAD0
:101040000046087E401E46EA006002439C6804F0A9
:101050007044C868401E0603888A401E46EA005055
:101060000443DA609C60002070BD000010B588B0B9
:10107000012400BF002000905548006840F0800027
:10108000534908600846006800F08000009000BFE7
:1010900000BF00BF002000900846006840F4807048
:1010A00008600846006800F48070009000BF00BF30
:1010B00080200190002002900120039003200490E2
:1010C00001A9444800F0FAFF20020190012002909B
:1010D00001A9414800F0F2FFFFF778FD00203F49E9
:1010E000086014200EF0E0FC01203D49C1F8A00288
:1010F00032200EF0D9FC00208DF81800022206A93B
:10110000A12000F07DF89DF81800302803D19DF84B
:101110001900032807D09DF81900012803D09DF875
:101120001900022824D19DF819009DF8182000EB21
:1011300002212CA0FFF7A8F9012206A9002000F047
:101140003FFA012206A9A42000F03AFA16208DF8F1
:101150001800012206A9802000F032FA0C208DF838
:101160001800012206A9882000F02AFA00242BE0AA
:10117000042206A948F2401000F01CFB00208DF864
:101180001C0006A91AA0FFF77FF91C480699016008
:1011900002208DF81800012206A948F2400000F054
:1011A00017FD012206A948F2470000F003FB0A20C0
:1011B0000EF07AFC00208DF81800012206A948F2F2
:1011C000400000F005FD0024204608B010BD0000DE
:1011D00030380240001C024000200240A00244427D
:1011E000000044424354502049443A25780D0A00F7
:1011F0004354502049443A25730D0A004000002012
:101200002DE9F04106460F461546FFF787FD702091
:10121000FFF762FDFFF7B2FDF0B2FFF75DFDFFF7EC
:10122000ADFDFFF77BFD7120FFF756FDFFF7A6FD33
:1012300000240BE0691EA14201D0012100E0002141
:101240000846FFF721FD3855601CC4B2AC42F1DB03
:10125000FFF77EFDBDE8F08171B583B000200190FD
:101260000026CF480078401CCD4908700846007819
:101270000A2190FBF1F201FB120018B1C848007876
:101280000A287DDAC7A1C848FFF7DCFAD8B90122DD
:1012900003A948F24E1000F08DFA9DF80C0000F002
:1012A0008000A8B19DF80C0000F00F00BF4909783C
:1012B00088420DDC00200190012201A948F24E1065
:1012C00000F086FC04E0012203A90220FFF798FF4A
:1012D0009DF80C0000F00F00002851D09DF80C0084
:1012E00000F00F00B1490978884249DC9DF80C00F4
:1012F00000F00F01FF208840C4B2AD48858EE04366
:1013000080B240F0C000AA49888608468289A74872
:101310000078401E0C3121F81020A548028CA3480B
:101320000078401E143121F8102004200EF0BCFB80
:1013300000200190AAE09E48808E9DF804200121A3
:101340009140084000282FD096A19748FFF77AFADD
:10135000E8BB98499DF8042031F81200042202A944
:1013600000F028FA924890F8440000F00100E0B143
:101370009DF808009DF8091000EB012081B200E003
:10138000C2E08B480C309DF8042020F812109DF824
:101390000A009DF80B1000EB012081B28448203038
:1013A0009DF8042020F812106BE09DF808009DF8CD
:1013B000091000EB012081B27D4820309DF8042007
:1013C00020F812109DF80A009DF80B1000E00CE0C8
:1013D00000EB012078490988081A81B274480C3062
:1013E0009DF8042020F812104BE074499DF8042069
:1013F00031F81200042202A9FFF702FF6C4890F8AE
:10140000440000F00100E0B19DF809009DF80810CB
:1014100001F00F0100EB0120654920319DF8042007
:1014200021F812009DF80B009DF80A1001F00F0141
:1014300000EB01205E490C319DF8042021F81200D8
:101440001FE09DF809009DF8081001F00F0100EB66
:10145000012059490988081A81B255480C309DF875
:10146000042020F812109DF80B009DF80A1001F0DE
:101470000F0100EB01204E4920319DF8042021F896
:1014800012009DF80400401CC0B201909DF80400B9
:10149000464909788842FFF64EAF012644488089C4
:1014A00045490988884205DC4148008C4249498801
:1014B000884226DD9DF80C0000F00F0001280ADDAF
:1014C0003B48C0893A4988810846408C08840020FE
:1014D0003349087018E035480078401E34490C3113
:1014E00031F810000C39888130480078401E2031D6
:1014F00031F8100020390884802003900846858642
:1015000002E000202649087026A12748FFF79AF933
:10151000F0B99DF80C0000F08F00802835D12448E8
:1015200090F8340000F0800030B12148808E20F027
:1015300080001F49888628E04FF6FF701C4988818B
:101540000884084690F8340000F0E00088861CE02B
:101550009DF80C0000F01F00B8B9154890F8340051
:1015600000F0800030B11248808E20F080001049D9
:1015700088860AE04FF6FF700D4988810884084686
:1015800090F8340000F0E000888605480078F028E4
:1015900002DD0A2002490870304604B070BD000028
:1015A0004600002039313100400000204500002075
:1015B0004C000020460D0408CC0600203C0D040819
:1015C0002DE9F04105460E4617464FF00008FFF79B
:1015D000A5FB7020FFF780FBFFF7D0FBE8B2FFF719
:1015E0007BFBFFF7CBFB00240BE0305DFFF774FBC8
:1015F000FFF7C4FB8046B8F1000F00D003E0601C89
:10160000C4B2BC42F1DB00BFFFF7A2FB4046BDE81D
:10161000F081000000B589B000BF00200190514862
:10162000006840F080004F4908600846006800F0FC
:101630008000019000BF00BF00BF0020019008465D
:10164000006840F4807008600846006800F480700C
:10165000019000BF00BF8020029000200390012075
:1016600004900320059002A93F4800F027FD4FF4A5
:10167000807002900120039002A93C4800F01EFDFA
:10168000FFF7A4FA00203A4908600A200EF00CFA8D
:1016900001203849C1F8A0020A200EF005FA802086
:1016A00002900020039004900320059002A92E4888
:1016B00000F004FD64200EF0F7F9042207A948F2B7
:1016C000401000F077F800208DF8200007A92AA02C
:1016D000FEF7DAFE2BA107A8FFF7B4F888B12AA11C
:1016E00007A8FFF7AFF860B129A107A8FFF7AAF88C
:1016F00038B129A107A8FFF7A5F810B1012009B05A
:1017000000BD21A107A8FFF79DF840BB02208DF87E
:101710001C00012207A948F2400000F059FA0122FA
:1017200007A948F2470000F045F89DF81C00602822
:1017300007DA9DF81C101AA0FEF7A6FE012000F0A3
:1017400019FA0A200EF0B0F900208DF81C000122D1
:1017500007A948F2400000F03BFA0020CFE7002044
:10176000CDE7000030380240001C0240002002405B
:10177000A0024442000044424354502049443A25C8
:10178000730D0A003931310039313437000000005F
:1017900031313538000000003932373100000000A7
:1017A00044656661756C74205665723A25640D0A4D
:1017B000000000002DE9F04105460F461646FFF7F0
:1017C000ADFA2820FFF788FAFFF7D8FA2812FFF7BA
:1017D00083FAFFF7D3FAE8B2FFF77EFAFFF7CEFA03
:1017E000FFF79CFA2920FFF777FAFFF7C7FA0024E2
:1017F0000BE0711EA14201D0012100E0002108464A
:10180000FFF742FA3855601CC4B2B442F1DBFFF76F
:101810009FFABDE8F081000071B583B00024002676
:10182000D0480078401CCF490870084600780A214B
:1018300090FBF1F201FB120018B1CA4800780A28A7
:1018400071DA012203A948F24E10FFF7B3FF9DF8A9
:101850000C0000F0800068B19DF80C0000F00F0053
:10186000062807DA00200190012201A948F24E1053
:1018700000F0AEF99DF80C0000F00F00002852D0E7
:101880009DF80C0000F00F000628D9DA9DF80C0036
:1018900000F00F01FF208840C0B20190B24890F8DC
:1018A00034509DF80400C04380B240F0C000AE49FF
:1018B0008886084681898182018C01850024F9E0AF
:1018C000A948808E0121A140084000282AD0A749BC
:1018D00031F81400042202A9FFF76CFFA4488088A5
:1018E00045F21051884236D19F4890F8440000F0EC
:1018F0000100C8B19DF808009DF8091000EB012017
:1019000081B29948203020F814109DF80A009DF803
:101910000B1000EB0120C0F5487081B292480C30EA
:1019200020F81410C4E0F5E09DF808009DF80910B7
:1019300000EB012081B28C480C3020F814109DF887
:101940000A009DF80B1000EB012081B28648203080
:1019500020F81410ACE08648808844F24231884276
:1019600035D1814890F8440000F00100B0B19DF8F5
:1019700008009DF8091000EB012081B27A480C3074
:1019800020F814109DF80A009DF80B1000EB0120C0
:1019900081B27548203020F8141089E09DF80800C5
:1019A0009DF8091000EB012081B26F48203020F82B
:1019B00014109DF80A009DF80B1000EB0120C0F5F3
:1019C000887081B268480C3020F8141070E06848C4
:1019D000808844F28431884235D1634890F84400CD
:1019E00000F00100B0B19DF808009DF8091000EB6F
:1019F000012081B25C480C3020F814109DF80A00D8
:101A00009DF80B1000EB012081B25748203020F8E0
:101A100014104DE09DF808009DF8091000EB01201E
:101A200081B25148203020F814109DF80A009DF82A
:101A30000B1000EB0120C0F5F07081B24A480C3069
:101A400020F8141034E0484890F8440000F00100F9
:101A5000C0B19DF808009DF8091000EB012081B28B
:101A60004148203020F814109DF80A009DF80B1012
:101A700000EB0120C0F5487081B23B480C3020F8E3
:101A8000141015E09DF808009DF8091000EB0120E6
:101A900081B235480C3020F814109DF80A009DF8EA
:101AA0000B1000EB012081B22F48203020F81410D9
:101AB000601CC4B2052CFFF603AF01262A488089BA
:101AC0002B490988884205DC2748008C2849498829
:101AD00088421CDD9DF80C0000F00F0001280ADD93
:101AE0002148C089204988810846408C088400200C
:101AF0001C4908700EE01C48808A1B4988810846F2
:101B0000008D0884802003900846858602E000202E
:101B1000144908709DF80C0000F08F00802817D140
:101B2000114890F8340000F0800030B10E48808EEB
:101B300020F080000C4988860AE04FF6FF700A49C1
:101B400088810884084690F8340000F0E000888618
:101B500004480078F02802DD0A2002490870304667
:101B600004B070BD470000204C000020080E04089F
:101B7000CC06002038B50546002400208DF8000072
:101B80008DF8015000BF09E09DF800000F49095D84
:101B90000844C0B28DF80000601CC4B2B82CF3D366
:101BA0009DF80000C043401CC0B28DF80000B82270
:101BB000064948F2470000F00BF80222694648F255
:101BC000FF0000F005F8002038BD0000500D0408AB
:101BD0002DE9F04104460E4617464FF00008FFF786
:101BE0009DF82820FFF778F8FFF7C8F82012FFF7D4
:101BF00073F8FFF7C3F8E0B2FFF76EF8FFF7BEF82F
:101C000000250BE0705DFFF767F8FFF7B7F8804637
:101C1000B8F1000F00D003E0681CC5B2BD42F1DB93
:101C200000BFFFF795F84046BDE8F08100B589B0E8
:101C300000BF002001904848006840F080004649FD
:101C400008600846006800F08000019000BF00BFF7
:101C500000BF002001900846006840F480700860D2
:101C60000846006800F48070019000BF00BF80202B
:101C7000029000200390012004900320059002A907
:101C8000364800F01BFA4FF4807002900120039058
:101C900002A9334800F012FAFEF798FF00224FF431
:101CA00080712F4800F024FB0A200DF0FDFE012278
:101CB00011022B4800F01CFB0A200DF0F5FE8020DD
:101CC00002900020039004900320059002A923486D
:101CD00000F0F4F964200DF0E7FE042207A948F2B1
:101CE000401000F055F800208DF8200007A91DA035
:101CF000FEF7CAFB1FA107A8FEF7A4FD48BB022000
:101D00008DF81C00012207A948F24000FFF760FF90
:101D1000012207A948F24700FFF74CFD9DF81C007F
:101D2000412807DA9DF81C1014A0FEF7ADFB012036
:101D300000F068F90A200DF0B7FE00208DF81C00B5
:101D4000012207A948F24000FFF742FF002009B036
:101D500000BD0120FBE7000030380240001C0240BB
:101D6000002002404354502049443A25730D0A0D87
:101D70000A00000039323731000000004465666116
:101D8000756C74205665723A25640D0A00000000D7
:101D90002DE9F04105460F461646FEF7BFFF282005
:101DA000FEF79AFFFEF7EAFF2812FEF795FFFEF70F
:101DB000E5FFE8B2FEF790FFFEF7E0FFFEF7AEFFAB
:101DC0002920FEF789FFFEF7D9FF00240BE0711EE2
:101DD000A14201D0012100E000210846FEF754FF96
:101DE0003855601CC4B2B442F1DBFEF7B1FFBDE868
:101DF000F081000071B583B00020019000267D487D
:101E00000078401C7B490870084600780A2190FB46
:101E1000F1F201FB120018B1764800780A286EDA58
:101E2000012203A948F24E10FFF7B2FF9DF80C0003
:101E300000F0800068B19DF80C0000F00F000B2846
:101E400007DA00200190012201A948F24E1000F0AB
:101E500007F99DF80C0000F00F0000284FD09DF806
:101E60000C0000F00F000B28D9DA9DF80C0000F0F0
:101E70000F014FF6FF70884084B25F48858EE043C3
:101E800080B240F0C0005C49888608468189C183E1
:101E9000018C41860020019053E05748808E9DF8C8
:101EA000042001219140084040B354499DF804208A
:101EB00031F81200062202A9FFF76AFF4E4890F897
:101EC000440000F00100D8B19DF80A009DF80B1005
:101ED00000EB012081B2484820309DF8042020F812
:101EE00012109DF808009DF8091000EB012081B246
:101EF00041480C309DF8042020F812101CE051E0FD
:101F00009DF80A009DF80B1000EB0120C0F5487009
:101F100081B239480C309DF8042020F812109DF849
:101F200008009DF8091000EB012081B232482030F2
:101F30009DF8042020F812109DF80400401CC0B247
:101F400001909DF804000A28A7DB01262A48808911
:101F50002B490988884205DC2748008C2849498894
:101F600088421CDD9DF80C0000F00F0001280ADDFE
:101F70002148C089204988810846408C0884002077
:101F80001C4908700EE01C48C08B1B49888108461C
:101F9000408E0884802003900846858602E0002059
:101FA000144908709DF80C0000F08F00802816D1AD
:101FB000114890F8340000F0800030B10E48808E57
:101FC00020F080000C49888609E04FF6FF700A492E
:101FD000888108840846808E00F460408886054821
:101FE0000078F02802DD0A2002490870304604B06B
:101FF00070BD0000480000204C000020CC0E0408FA
:10200000CC06002038B50546002400208DF80000DD
:102010008DF8015000BF09E09DF800000F49095DEF
:102020000844C0B28DF80000601CC4B2B82CF3D3D1
:102030009DF80000C043401CC0B28DF80000BA22D9
:10204000064948F2470000F00BF80222694648F2C0
:10205000FF0000F005F8002038BD0000120E040853
:102060002DE9F04104460E4617464FF00008FEF7F2
:1020700055FE2820FEF730FEFEF780FE2012FEF708
:102080002BFEFEF77BFEE0B2FEF726FEFEF776FEA5
:1020900000250BE0705DFEF71FFEFEF76FFE804629
:1020A000B8F1000F00D003E0681CC5B2BD42F1DBFF
:1020B00000BFFEF74DFE4046BDE8F081F8B5024690
:1020C0000B460025002400200021E6E0012606FA48
:1020D00001F51E6806EA0504AC4273D15E68022E63
:1020E00002D05E68122E13D1CF0802F1200656F8F6
:1020F00027004E07F70E0F26BE40B0434F07FF0ED6
:102100001E69BE403043CF0802F1200646F8270082
:1021100010684F000326BE40B0431E7906F0030648
:102120004F00BE40304310605E68012E08D05E68EC
:10213000022E05D05E68112E02D05E68122E13D1D9
:1021400090684F000326BE40B0434F00DE68BE409B
:1021500030439060506801268E40B0431E79C6F32C
:1021600000168E4030435060D0684F000326BE40BA
:10217000B0434F009E68BE403043D0605E6806F0BA
:102180008056B6F1805FA8D100BF00260096454E6C
:10219000366846F48046434F3E603E46366806F455
:1021A0008046009600BF00BF3F4E8F0856F82700BC
:1021B0008E07370F0F26BE40B0433C4EB24202D1CD
:1021C00000262EE068E03A4EB24201D1012628E016
:1021D000384EB24201D1022623E0374EB24201D13D
:1021E00003261EE0354EB24201D1042619E0344EDA
:1021F000B24201D1052614E0324EB24201D1062688
:102200000FE0314EB24201D107260AE02F4EB24212
:1022100001D1082605E02E4EB24201D1092600E088
:102220000A268F073F0FBE4030431F4E8F0846F8E7
:102230002700284E3068A0435E6806F48036B6F565
:10224000803F00D12043234E3060361D3068A043CC
:102250005E6806F40036B6F5003F00D120431D4EFF
:10226000361D3060361D3068A0435E6806F4801667
:10227000B6F5801F00D12043164E08363060361D5B
:102280003068A0435E6806F40016B6F5001F00D162
:102290002043104E0C363060491C1029FFF416AF55
:1022A000F8BD0000443802400838014000000240F8
:1022B0000004024000080240000C024000100240EE
:1022C0000014024000180240001C0240002002409E
:1022D00000240240003C0140024613690B400BB150
:1022E000012000E00020704742694A404261704787
:1022F0000AB1816101E00B04836170470148006805
:10230000704700002000002002480068401C01497E
:10231000086070472000002010B50D48006840F4A8
:1023200000700B4908600846006840F4806008604F
:102330000846006840F480700860052000F04EFAFE
:102340000F2000F007F800F0F9F9002010BD0000A0
:10235000003C024070B5044600F0B2FD4FF47A71C3
:10236000B0FBF1F5284601F0CFF900222146501EBE
:1023700000F0F6F9002070BD70B504460E46154613
:1023800000BF94F8A000012801D1022070BD0120F7
:1023900084F8A00000BF022084F8A10005EB8501AD
:1023A00001EBC50204F1380101EB82003422314611
:1023B000FEF7C4F92A463146204605F0B5FD012056
:1023C0002168486284F8A10000BF002084F8A000C2
:1023D00000BF00BFDAE7000070B504460025002604
:1023E0000CB9012070BD94F8A10028B9002084F830
:1023F000A000204600F084F8022084F8A1002068A4
:10240000806920F0704021688861D4E901010843A7
:10241000E168084321690843216889690843216804
:102420008861206880683549084021688860A08AF2
:10243000050420688068A1692943084321688860F1
:102440002068C0682D4908402168C860A08B050439
:102450002068C068216A294308432168C860206851
:1024600000692649084021680861A08C050420689D
:102470000069A16A2943084321680861206840690E
:102480001E49084021684861A08D05042068406904
:10249000216B294308432168486194F835000502FF
:1024A00094F8360006042068C06A00F07F40216876
:1024B000C86246EA050094F8341008432168C96AE6
:1024C00008432168C8622068406B40F0040021681E
:1024D00048632068406B40F0020021684863206830
:1024E000806940F00100216888610020C4F8A400E0
:1024F000012084F8A100002074E7000000F800F03B
:1025000010B586B0044600BF002000904D4800681A
:1025100040F080604B4908600846006800F0806029
:10252000009000BF00BF00BF002000904548143855
:10253000006840F400004349143908600846006808
:1025400000F40000009000BF00BF00BF002000901A
:102550000846006840F0020008600846006800F085
:102560000200009000BF00BF00BF0020009008469E
:10257000006840F0200008600846006800F0200075
:10258000009000BF00BF00BF002000900846006818
:1025900040F0400008600846006800F040000090ED
:1025A00000BF00BF00BF002000900846006840F058
:1025B000800008600846006800F08000009000BFBE
:1025C00000BF00BF002000900846006840F4807003
:1025D00008600846006800F48070009000BF00BFEB
:1025E000202001900120029003900320049001A973
:1025F0001548FFF763FD4FF48060019002200290C0
:1026000000200390032004900E20059001A90F489C
:10261000FFF754FD4FF40C60019001A90C48FFF73F
:102620004DFD4FF47E40019001A90A48FFF746FD99
:1026300040F2F760019001A90748FFF73FFD06B09F
:1026400010BD000044380240000402400014024063
:1026500000180240001C0240002002402DE9F04119
:1026600004460E461746984600BF94F8A00001287D
:1026700002D10220BDE8F081012084F8A00000BF53
:10268000022084F8A10008EB880000EBC80104F1E7
:10269000380000EB81052E60A86A30446860AF60A6
:1026A000E86A3844E86042462946204605F03CFC8A
:1026B00001202168486284F8A10000BF002084F84E
:1026C000A00000BF00BFD5E72DE9F04105460E464A
:1026D0001746984600BF95F8A000012802D10220B5
:1026E000BDE8F081012085F8A00000BF022085F838
:1026F000A10008EB880000EBC80105F1380000EBF1
:102700008104002020602068304460600020A060C8
:10271000A0683844E060A662E76242462146284647
:1027200005F002FC01202968486285F8A10000BF7D
:10273000002085F8A00000BF00BFD1E708B5002049
:10274000009000BF08BD00BF00F01F0201219140B2
:102750004209920002F1E022C2F8001100BF704766
:102760002DE9F05F80460D461646002705F0E8FC8F
:10277000074639462A46334601F00700C0F1070AEA
:10278000BAF1040F02D94FF0040A01E0C0F1070AC0
:10279000D14600F1040ABAF1070F02D24FF0000A45
:1027A00001E0A0F1030AD4464FF0010A0AFA09FA3F
:1027B000AAF1010A0AEA020A0AFA0CFA4FF0010B1E
:1027C0000BFA0CFBABF1010B0BEA030B4AEA0B040F
:1027D0002146404605F0BCFCBDE8F09F00BF00F07C
:1027E0000702064B19684FF6FF031940044B0B43D1
:1027F00043EA0221014B196000BF70470CED00E075
:102800000000FA0538B5002400BF002000902348DE
:10281000006840F08050214908600846006800F0D8
:102820008050009000BF00BF0120010491FAA1F187
:10283000B1FA81F11A4A42F82100FFF75FFD044620
:1028400007E0FFF75BFD001BB0F57A7F01D903209D
:1028500038BD1448406800F48030B0F5803FF0D1B6
:102860000120410491FAA1F1B1FA81F10C4A42F838
:102870002100FFF743FD044607E0FFF73FFD001B83
:10288000B0F57A7F01D90320E2E70648406800F4FA
:102890000030B0F5003FF0D10020D9E740380240C9
:1028A00000000E4200700040F8B5044600250026E6
:1028B000207800F0010020B9207800F00200022802
:1028C00066D10020CC498866FFF718FD054606E072
:1028D000FFF714FD401B642801D90320F8BDC74849
:1028E0000068C0F3C0600028F2D1207800F0010039
:1028F00098B147F6C07191FAA1F1B1FA81F160681F
:1029000088404FF0E04292FAA2F2B2FA82F2A16855
:1029100091400843B94984310860207800F00200F2
:10292000022821D1B5488430006800F0E0404FF023
:10293000E04191FAA1F1B1FA81F120FA01F6606863
:102940008101207B41EA006040EA0670AB49843196
:102950000860AA488C30006820F01F00E169491E19
:102960000843A6498C3108600120A3498866FFF717
:10297000C5FC054606E0FFF7C1FC401B642801D9F1
:102980000320ABE79D480068C0F3C0600028F2D088
:10299000207800F00400042804D0207800F008001B
:1029A00008287DD1002094490867FFF7A7FC054659
:1029B00006E0FFF7A3FC401B642801D903208DE744
:1029C0008E480068C0F340700028F2D1207800F0F3
:1029D0000400042834D189488830006800F0E040C1
:1029E0004FF0E04191FAA1F1B1FA81F120FA01F63C
:1029F00047F6C07191FAA1F1B1FA81F120698840DE
:102A00004FF0706292FAA2F2B2FA82F261699140DA
:102A100008434FF0E04191FAA1F1B1FA81F106FAD1
:102A200001F10843754988310860081D006820F4E9
:102A3000F851206A401E41EA002070498C3108603C
:102A4000207800F00800082834D16C4888300068ED
:102A500000F070604FF0706191FAA1F1B1FA81F16C
:102A600020FA01F647F6C07191FAA1F1B1FA81F1AD
:102A7000206988404FF0706191FAA1F1B1FA81F1BB
:102A800006FA01F108434FF0E04292FAA2F2B2FADC
:102A900082F2A1699140084358498831086000E0FA
:102AA0001CE0081D006820F44030616A0843534967
:102AB0008C310860012050490867FFF71FFC05466C
:102AC00006E0FFF71BFC401B642801D9032005E743
:102AD0004A480068C0F340700028F2D0207800F027
:102AE000200020287DD100BF0020009043484030C6
:102AF000006840F080504149403108600846006855
:102B000000F08050009000BF00BF3D48006840F4D6
:102B100080703B490860FFF7F1FB054606E0FFF7D0
:102B2000EDFB401B642801D90320D7E63448006838
:102B300000F480700028F2D030487030006800F453
:102B40004070218D01F4407188424AD02B4870308A
:102B5000006820F4407601202A49086000200860BF
:102B600026487030066006F0020098B1FFF7C6FBF9
:102B7000054608E0FFF7C2FB401B41F2883188425E
:102B800001D90320AAE61D4870300068C0F3400058
:102B90000028EFD000BF208D00F44070B0F5407FDA
:102BA0000CD116480830006820F4F810164AA16AC3
:102BB0001140084311490831086007E00F48083008
:102BC000006820F4F8100D49083108600B48703097
:102BD0000068218DC1F30B0108430849703108607A
:102BE00000BF207800F01000102803D194F82C00CA
:102BF00006490860002071E60000474200380240A4
:102C000000700040400E4742FFFCFF0FE0114742BA
:102C100070B504460E460025A748006800F00F0076
:102C2000B0426FD2A4490E700846006800F00F0051
:102C3000B04201D0012070BD207800F002000228CF
:102C400007D19E48006820F0F000A16808439B4926
:102C50000860207800F0010000283ED0606801285C
:102C600007D1964808380068C0F34040B8B9012041
:102C7000E1E76068022802D06068032807D18F4826
:102C800008380068C0F3406048B90120D3E78B489A
:102C900008380068C0F3400008B90120CBE7874836
:102CA000006820F003006168084384490860FFF76A
:102CB00025FB05466068012810D108E0FFF71EFBE0
:102CC000401B41F28831884201D90320B3E77B4899
:102CD000006800F00C000428F0D1CDE06068022804
:102CE00011D108E0FFF70AFB401B41F2883188420E
:102CF00001D903209FE77148006800F00C00082804
:102D0000F0D1B9E024E06068032810D108E0FFF7B3
:102D1000F5FA401B41F28831884201D903208AE745
:102D20006648006800F00C000328F0D1A4E008E039
:102D3000FFF7E4FA401B41F28831884201D90320B1
:102D400079E75E48006800F00C000028F0D193E0BD
:102D5000207800F00200022807D15848006820F0CF
:102D6000F000A168084355490860207800F0010090
:102D7000002877D06068012807D1504808380068DB
:102D8000C0F34040B8B9012055E76068022802D07E
:102D90006068032807D1494808380068C0F34060DC
:102DA00048B9012047E7454808380068C0F34000AB
:102DB00008B901203FE74148006820F0030061683E
:102DC00008433E490860FFF799FA05466068012804
:102DD00010D108E0FFF792FA401B41F28831884297
:102DE00001D9032027E73548006800F00C000428CB
:102DF000F0D137E06068022810D108E0FFF77EFAD2
:102E0000401B41F28831884201D9032013E72B4847
:102E1000006800F00C000828F0D123E06068032867
:102E200010D108E0FFF76AFA401B41F2883188426E
:102E300001D90320FFE62148006800F00C000328B8
:102E4000F0D10FE008E0FFF759FA401B41F288315A
:102E5000884201D90320EEE61848006800F00C0013
:102E60000028F0D114490E700846006800F00F00E9
:102E7000B04201D00120DEE6207800F004000428F2
:102E800007D10E48006820F4E050E16808430B4980
:102E90000860207800F00800082808D1074800687A
:102EA00020F46040216940EAC100044908600F2015
:102EB000FFF750FA0020BEE6003C0240083802400E
:102EC00010B500F045F80949096801F0F001F02259
:102ED00092FAA2F2B2FA82F2D140054A515CC8409D
:102EE000044908600846006810BD00000838024028
:102EF000ECC503080000002010B5FFF7E1FF07490B
:102F0000096801F4E0514FF4E05292FAA2F2B2FAE9
:102F100082F2D140024A515CC84010BD08380240DC
:102F2000ECC5030810B5FFF7CBFF0749096801F4AA
:102F300060414FF4604292FAA2F2B2FA82F2D140BA
:102F4000024A515CC84010BD08380240ECC5030875
:102F500070B50021002200230020274C246804F0D3
:102F60000C0424B1042C04D0082C41D103E02348E4
:102F700040E023483EE0204C241F246804F03F0139
:102F80001D4C241F246804F4800484B11C4CB4FB41
:102F9000F1F5194C241F246847F6C076344096FAA0
:102FA000A6F6B6FA86F6F44005FB04F20FE0134CE1
:102FB000B4FBF1F5104C241F246847F6C07634406A
:102FC00096FAA6F6B6FA86F6F44005FB04F20A4C29
:102FD000241F246804F440344FF4403595FAA5F5D5
:102FE000B5FA85F5EC40641C6300B2FBF3F001E038
:102FF000024800BF00BF70BD083802400024F40042
:1030000040787D0138B504460025207800F00100A5
:10301000002866D0F748006800F00C0004280DD0A6
:10302000F448006800F00C00082813D1F148001F94
:10303000006800F48000B0F5800F0BD1ED4808382F
:103040000068C0F3404000284BD06068002848D199
:10305000012038BD0020E749891F0870FFF74EF9AD
:10306000054608E0FFF74AF9401B41F288318842E3
:1030700001D90320EDE7DF4808380068C0F340407D
:103080000028EFD12079DB49891F08706068A0B162
:10309000FFF734F9054608E0FFF730F9401B41F22D
:1030A0008831884201D90320D3E7D2480838006824
:1030B000C0F340400028EFD013E0FFF71FF90546AA
:1030C00008E0FFF71BF9401B41F28831884201D923
:1030D0000320BEE7C74808380068C0F34040002816
:1030E000EFD1207800F00200022869D1C1480068C1
:1030F00000F00C0058B1BF48006800F00C00082830
:1031000021D1BC48001F006800F48000D8B9B9483C
:1031100008380068C0F3400020B1E068012801D001
:10312000012096E7B3480838006820F0F800F8223C
:1031300092FAA2F2B2FA82F2216991400843AD49B3
:10314000083908603CE0E06828B30120AA4908601B
:10315000FFF7D4F8054606E0FFF7D0F8401B6428D7
:1031600001D9032075E7A34808380068C0F3400080
:103170000028F1D09F480838006820F0F800F822B5
:1031800092FAA2F2B2FA82F2216991400843994977
:103190000839086014E0002097490860FFF7AEF88E
:1031A000054606E0FFF7AAF8401B642801D9032072
:1031B0004FE7904808380068C0F340000028F1D17C
:1031C000207800F0080008282CD16069A8B10120FF
:1031D0008A490860FFF792F8054606E0FFF78EF887
:1031E000401B642801D9032033E782486C30006813
:1031F000C0F340000028F1D014E000207F490860AF
:10320000FFF77CF8054606E0FFF778F8401B6428D6
:1032100001D903201DE777486C300068C0F34000F7
:103220000028F1D1207800F0040004286FD100BFFD
:10323000002000906F483830006840F080506D49A1
:10324000383108600846006800F08050009000BFE8
:1032500000BF6B48006840F4807069490860FFF760
:103260004DF8054606E0FFF749F8401B642801D9F0
:103270000320EEE66248006800F480700028F2D077
:1032800000205C4968310870FFF738F8054608E00F
:10329000FFF734F8401B41F28831884201D90320FE
:1032A000D7E6544868300068C0F340000028EFD1EA
:1032B000207A504968310870A068A0B1FFF71EF865
:1032C000054608E0FFF71AF8401B41F288318842B2
:1032D00001D90320BDE6474868300068C0F34000CC
:1032E0000028EFD013E0FFF709F8054608E0FFF7E4
:1032F00005F8401B41F28831884201D90320A8E635
:103300003C4868300068C0F340000028EFD1A06955
:10331000F0B33848006800F00C00082872D0A069AB
:10332000022850D1002034490866FEF7E7FF054621
:1033300006E0FEF7E3FF401B642801D9032088E67E
:103340002C4808380068C0F340600028F1D1D4E967
:103350000701084347F6C07292FAA2F2B2FA82F26B
:10336000616A914008430122A16AC2EB51014FF406
:10337000403292FAA2F2B2FA82F2914008434FF040
:10338000706292FAA2F2B2FA82F2E16A914000E02F
:103390003AE008431749091F0860012016490866EA
:1033A000FEF7ACFF054606E0FEF7A8FF401B6428C9
:1033B00001D903204DE60F4808380068C0F340608B
:1033C0000028F1D020E000200B490866FEF796FFA8
:1033D000054606E0FEF792FF401B642801D9032052
:1033E00037E6044808380068C0F340600028F1D18F
:1033F0000AE007E00838024000004742800E4742DA
:1034000000700040012024E6002022E670B504464A
:103410000D460CB9012070BD94F82C0028B900208D
:1034200084F82D00204600F011F8022084F82C00CA
:10343000211D2068FDF763FD2946D4E90002FDF750
:10344000C8FD012084F82C000020E4E710B586B008
:10345000044600BF002000904348006840F001008F
:10346000414908600846006800F00100009000BF74
:1034700000BF00BF002000903B480838006840F0C3
:1034800004003949083908600846006800F0040063
:10349000009000BF00BF00BF0020009008460068F9
:1034A00040F0080008600846006800F0080000903E
:1034B00000BF00BF00BF002000900846006840F039
:1034C000100008600846006800F01000009000BF7F
:1034D00000BF00BF002000900846006840F02000B8
:1034E00008600846006800F02000009000BF00BFA0
:1034F00000BF002000900846006840F040000860CF
:103500000846006800F04000009000BF00BF0D209A
:1035100001900220029001200390032004900C20CF
:10352000059001A91148FEF7C9FD4CF20370019006
:1035300001A90F48FEF7C2FD4FF68370019001A963
:103540000C48FEF7BBFD4FF63F00019001A90A4869
:10355000FEF7B4FD48F23710019001A90748FEF7C5
:10356000ADFD06B010BD0000383802400008024032
:10357000000C0240001002400014024000180240FB
:1035800070B504460D4694F82C00022800D170BD99
:10359000022084F82C0029462068FDF7EAFC01206F
:1035A00084F82C000020F2E770B504460D4616465C
:1035B00094F82C00022800D170BD022084F82C0061
:1035C000324629462068FDF7DBFC2868022803D133
:1035D000052084F82C0002E0012084F82C00002053
:1035E000EAE770B504460E4615460CB9012070BDD9
:1035F00094F8490028B9002084F84800204600F0DB
:103600001DF804F108012068FDF70AFC3146A268A4
:103610002068FDF745FC2946236BD4E90102FDF73C
:10362000DBFBA168206850F8210040F00100A2688F
:10363000216841F822000020D9E7000010B586B0CB
:10364000044600BF002000902248006840F00100BE
:10365000204908600846006800F00100009000BFA3
:1036600000BF00BF002000901A480838006840F0F2
:1036700008001849083908600846006800F008008A
:10368000009000BF00BF00BF002000900846006807
:1036900040F0100008600846006800F0100000903C
:1036A00000BF00BF4EF2B3700190022002900120D3
:1036B0000390032004900C20059001A90648FEF712
:1036C000FDFC4FF68070019001A90448FEF7F6FC5E
:1036D00006B010BD38380240000C02400010024015
:1036E000042808D14FF0E021096941F004014FF0AE
:1036F000E022116107E04FF0E021096921F00401A7
:103700004FF0E0221161704770B504462546681EEF
:10371000B0F1807F01D301200FE0681E4FF0E0215F
:1037200048610F214FF0FF3004F012FD00204FF0F0
:10373000E021886107200861002070BD7047704754
:10374000704710B5044620680069C0F34000D8B146
:103750002068C068C0F34000B0B16FF0020021687B
:103760000861012020762068806900F0030018B10C
:103770002046FFF7E5FF05E0204600F0ADF82046C3
:1037800000F0ABF80020207620680069C0F38000CC
:10379000D8B12068C068C0F38000B0B16FF00400F9
:1037A00021680861022020762068806900F440705A
:1037B00018B12046FFF7C4FF05E0204600F08CF862
:1037C000204600F08AF80020207620680069C0F3C7
:1037D000C000D8B12068C068C0F3C000B0B16FF0BD
:1037E000080021680861042020762068C06900F084
:1037F000030018B12046FFF7A3FF05E0204600F0C4
:103800006BF8204600F069F80020207620680069F7
:10381000C0F30010D8B12068C068C0F30010B0B188
:103820006FF0100021680861082020762068C069C8
:1038300000F4407018B12046FFF782FF05E02046F3
:1038400000F04AF8204600F048F800202076206872
:10385000006900F0010058B12068C06800F0010064
:1038600030B16FF0010021680861204600F036F8A1
:1038700020680069C0F3C01058B12068C068C0F368
:10388000C01030B16FF08000216808612046FFF75A
:1038900055FF20680069C0F3801058B12068C068E7
:1038A000C0F3801030B16FF04000216808612046FD
:1038B00000F015F820680069C0F3401058B1206886
:1038C000C068C0F3401030B16FF02000216808617B
:1038D0002046FFF734FF10BD7047704770477047B0
:1038E0007047014691F839007047F8B50446002545
:1038F00000262068006800F001052068C06800F418
:1039000080767DB176B100BF00200090206800680D
:10391000009020684068009000BF00BFE06B40F05E
:103920000100E06320680068C0F34005206840693A
:1039300000F001067DB176B100BF00200090206844
:103940000068009020684068009000BF00BFE06BF6
:1039500040F00400E06320680068C0F38005206840
:10396000406900F001067DB176B100BF00200090F3
:1039700020680068009020684068009000BF00BF89
:10398000E06B40F00200E06320680068C0F3C0050F
:103990002068406900F001067DB176B100BF0020CB
:1039A000009020680068009020684068009000BF88
:1039B00000BFE06B40F00800E06320680068C0F3DF
:1039C00040152068C06800F020061DB116B12046E1
:1039D00005F05CFF20680068C0F3C0152068C0686F
:1039E00000F080061DB116B1204606F0BFF8206831
:1039F0000068C0F380152068C06800F040061DB163
:103A000016B1204605F02AFFE06B28B1012084F8AA
:103A100039002046FFF764FFF8BD10B504460CB925
:103A2000012010BDA06900B100E000BF94F839008A
:103A300028B9002084F83800204600F025F802203C
:103A400084F839002068C06820F400502168C860FC
:103A5000204605F079FF2068006920F49040216835
:103A600008612068406920F02A00216848612068C8
:103A7000C06840F400502168C8600020E063012065
:103A800084F839000020CCE710B586B004462E49F2
:103A90002068884255D100BF00BF002000902B480D
:103AA000006840F01000294908600846006800F0EE
:103AB0001000009000BF00BF00BF00BF00BF00208B
:103AC000009022481438006840F001001F49143962
:103AD00008600846006800F00100009000BF00BFC9
:103AE00000BF00BF00BF002000900846006840F003
:103AF000010008600846006800F00100009000BF67
:103B000000BF00BF481501900220029001200390E1
:103B1000022004900720059001A90D48FEF7CEFA77
:103B20004FF4806001900720059001A90848FEF736
:103B3000C5FA2520FEF707FE032211462520FEF7D1
:103B40000FFE06B010BD00000010014044380240D6
:103B50000000024030B50346002493F83940012CA0
:103B600001D0122C37D101B10AB9012030BD00BFFC
:103B700093F83800012801D10220F7E7012083F8EB
:103B8000380000BF99629A85DA850020D86393F8DF
:103B90003900122803D1322083F8390002E02220B4
:103BA00083F839001868C06840F480701D68E860C8
:103BB0001868406940F001001D68686100BF00207E
:103BC00083F8380000BF1868C06840F020001D6806
:103BD000E8600020CAE70220C8E700001D4A01682B
:103BE000914236D11C49098801F4004189BB1A4928
:103BF000098801F4804171B1184909780A2903D074
:103C00000021154A118024E01349098841F400413C
:103C1000114A11801DE0114909780D2906D10E497C
:103C2000098841F480410C4A118012E00B4909785F
:103C3000094A1288C2F30D02094B995406490988B2
:103C4000491C054A118011460988C72901DD002158
:103C500011807047001001402C0000202E00002031
:103C600074050020704700BFFEE7000010B500207B
:103C70000F4908600F48006820F440600D49086053
:103C80000846006840F48060086000200A49C1F8D6
:103C9000940202200BF014FF012005490860022065
:103CA0000BF00EFF00200449C1F8900210BD000087
:103CB00090824342001C02400080434200B587B01E
:103CC00000BF002001901048006840F080000E49BD
:103CD00008600846006800F08000019000BF00BF47
:103CE000302002900120039004900220059002A948
:103CF0000648FEF7E3F90120054908600549C1F8C7
:103D0000900207B000BD000030380240001C0240A5
:103D1000948243420080434210B500200F4908605E
:103D20000F48006820F440600D49086008460068AC
:103D300040F48060086001200A49C1F89402022022
:103D40000BF0BEFE01200549086002200BF0B8FE12
:103D500000200449C1F8900210BD00009082434247
:103D6000001C02400080434270B5054600241648FE
:103D7000006820F440601449086008460068086044
:103D8000002616E000201149086002200BF098FE82
:103D900001200F49C1F890026006040E0B487C38E0
:103DA000006808B1601CC4B201200BF089FE701CD1
:103DB000C6B2082EE6DB15B9FFF7AEFF01E0FFF74C
:103DC00055FF204670BD0000001C02409082434217
:103DD0000080434270B504461548006820F44060F6
:103DE000134908600846006840F4806008600020BD
:103DF00010490860002517E0E0090E49091D086018
:103E00006006040E02200BF05BFE01200A49C1F897
:103E1000900202200BF054FE0020064908600220A8
:103E20000BF04EFE681CC5B2082DE5DB70BD00002E
:103E3000001C0240908243420080434210B50F486C
:103E4000006820F440600D4908600846006840F4AE
:103E50008060086001200A4908600A49C1F89002A0
:103E600004200BF02DFE00200549086004200BF013
:103E700027FE00200349C1F8900210BD001C02403B
:103E8000948243420080434210B50F48006820F4FA
:103E900040600D4908600846006840F48060086092
:103EA00000200A4908600A49C1F8940204200BF076
:103EB00007FE01200549086004200BF001FE0120E7
:103EC0000349C1F8940210BD001C02409082434295
:103ED0000080434210B500241348006820F440607D
:103EE0001149086008460068086001200F49086011
:103EF0000BF0E6FD01200E49C1F890020BF0E0FD49
:103F000007E0601CC4B2FA2C03DDFFF7BDFF0120FF
:103F100010BD0648803800680028F2D10349091F07
:103F2000086000BFF4E70000001C02409482434296
:103F30000080434270B5044600260D4805880D48B0
:103F4000006818B1204603F009FC0FE008484088DB
:103F500045430021084603F009FA03F0BFFB0026A1
:103F600002E005490C80761CAE42FAD370BD000019
:103F7000CC060020F8070020000008602DE9FF4F64
:103F800081B080460D469146DDF838A0184800689B
:103F900040B1CDF800A04A4629464046049B03F0B4
:103FA00003FC21E0A9EB0800401C86B20498401BEA
:103FB000401C1FFA80FB002414E0281981B24046FF
:103FC00003F0D4F903F08AFB002707E004FB067036
:103FD0003AF8100007490880781C87B2B742F5DB31
:103FE000601C84B25C45E8DB05B0BDE8F08F0000E2
:103FF000F80700200000086010B50446604884718E
:104000006048006850B1204603F086FC5D48C08AD5
:104010005B4908805B48008B488010BD002C58D15C
:10402000F020574908804FF4A070488008468088E7
:1040300045F21051884210D14FF430505049088158
:104040004FF4285048814FF42C5088814FF4F07081
:1040500008804FF4487048801AE04948808841F64B
:10406000631188420DD12C20454908812B204881BD
:104070002A2088814FF4F07008804FF448704880FF
:1040800006E02C203E4908812A2048812B20888187
:104090003B48808845F21031884205D038488088F6
:1040A00047F29671884206D14FF4A07034490880D7
:1040B0004FF4F07048803248808849F60601884203
:1040C00058D14FF4F0702E4908804FF44870488062
:1040D00050E04FF4A0702A490880F020488008463C
:1040E000808845F21051884210D14FF43050244955
:1040F00008814FF4285048814FF42C5088814FF4A8
:10410000487008804FF4F070488020E01C48808898
:1041100041F66311884205D01948808849F60601A6
:1041200088420DD12C20164908812A2048812B2055
:1041300088814FF4487008804FF4F070488006E0A2
:104140002C200F4908812A2048812B2088810C4887
:10415000808845F21031884205D00948808847F2AE
:104160009671884206D14FF4F070054908804FF4EB
:10417000A0704880002002F0DBFF00BF4DE7000088
:10418000CC060020F80700202DE9FF4F85B08146BE
:104190008A460020049003900798A0EB0905089830
:1041A000A0EB0A06CDF80890CDF804A0002D01DDA3
:1041B000012705E00DB9002702E04FF0FF376D42FF
:1041C000002E02DD4FF0010806E016B94FF000089E
:1041D00002E04FF0FF387642B54201DD2C4600E0A8
:1041E00034464FF0000B21E0019A91B2029A90B24E
:1041F00000F022F804982844049003983044039077
:104200000498A04205DD0498001B049002983844ED
:1042100002900398A04205DD0398001B03900198CB
:10422000404401900BF101001FFA80FB601C8345A4
:10423000DADD09B0BDE8F08F70B504460D460A48D6
:10424000006830B1094829460268204603F07AFB2D
:1042500009E02946204603F089F803F03FFA0348B5
:1042600000880349088070BDF80700203000002056
:10427000000008602DE9F04706460F4690460024EE
:1042800045460320A0EB48093CE07A1B91B2321965
:1042900090B2FFF7D1FF3A1B91B2721990B2FFF7BB
:1042A000CBFF3A1991B2721990B2FFF7C5FF7A1994
:1042B00091B2321990B2FFF7BFFF7A1991B2321B57
:1042C00090B2FFF7B9FF3A1991B2721B90B2FFF7A3
:1042D000B3FF7A1B91B2321B90B2FFF7ADFF3A1BCE
:1042E00091B2721B90B2FFF7A7FF641CB9F1000FE7
:1042F00003DAA000801D814404E0601B80000A30C6
:1043000081446D1EAC42C0DDBDE8F08770B5044647
:104310000D4616463D48006828B1324629462046DB
:1043200003F010FB70BD3A48808845F21051884276
:1043300020D13749488903F0CBF9201203F0C2F9A4
:1043400033494989491C88B203F0C2F9E0B203F04D
:10435000B9F92F49888903F0BBF9281203F0B2F9A3
:104360002B498989491C88B203F0B2F9E8B203F0FD
:10437000A9F942E02648808841F66311884228D195
:104380002348807920B922480088401E001B84B24F
:104390001F49488903F09CF9201203F093F9E0B219
:1043A00003F090F9201203F08DF9E0B203F08AF9DE
:1043B0001749888903F08CF9281203F083F9E8B2D1
:1043C00003F080F9281203F07DF9E8B203F07AF9DE
:1043D00013E00F49488903F07BF9201203F072F9CA
:1043E000E0B203F06FF90A49888903F071F92812E5
:1043F00003F068F9E8B203F065F90548008905495A
:104400000880891C0E8000BF8CE70000F8070020A0
:10441000CC060020FEFF076000B595B003F014FD48
:10442000FE4988800846808818B103F065FB02F0D9
:10443000E3BD00BF00200190F948006840F0020091
:10444000F74908600846006800F00200019000BFCC
:1044500000BF202010900120119012900320139093
:1044600010A9F048FDF72AFE4FF02040EE49086001
:10447000EE484860002088600021EB48C16001617F
:104480001021416100218161C16141624FF480517D
:1044900081620021C1624FF48041016300214163C8
:1044A00081634FF48011C1630F20099000200A90AE
:1044B00046200B9000200F900F20029000200390C8
:1044C0000F2004900020089002AA09A9D648FFF7FF
:1044D00088F832200BF0E8FAD32003F0F9F802F064
:1044E000F1FDCE49888002F0EDFDCC49888002F0D4
:1044F000E9FDCA498880084680884FF6FF7101EAC5
:104500000020C649888002F0DDFDC449898808433F
:10451000C24988800846808849F2413188427CD06F
:10452000042003F0D5F802F0CDFDBC49888002F0EC
:10453000C9FDBA49888002F0C5FDB849888008469F
:1045400080884FF6FF7101EA0020B449888002F0AC
:10455000B9FDB24989880843B049888008468088F7
:1045600048F25251884203D147F28970AB498880A2
:10457000AA48808847F289718842D0D0D42003F0BD
:10458000A7F802F09FFDA549888002F09BFDA34992
:10459000888002F097FDA1498880084680884FF600
:1045A000FF7101EA00209D49888002F08BFD9B4944
:1045B00089880843994988800846808845F21031E7
:1045C0008842ACD0D32003F083F802F07BFD9349FE
:1045D000888002F077FD9149888002F073FD8F4951
:1045E0008880084680884FF6FF7101EA00208B49D9
:1045F000888002F067FD8949898808438749888057
:104600000846808847F29671884288D055214FF439
:10461000704003F06DF8AA2100E07EE04FF2010047
:1046200003F066F852214FF2020003F061F808210E
:104630004FF2030003F05CF801214FF2040003F095
:1046400057F84FF4454003F043F802F03BFD73493F
:104650008880084680884FF6FF7101EA00206F4984
:1046600088804CF2015003F033F802F02BFD6B49C7
:10467000898808436949888005200BF015FA674846
:10468000808845F21051884247D0D32003F020F8AB
:1046900002F018FD6149888002F014FD5F498880AE
:1046A00002F010FD5D498880084680884FF6FF7152
:1046B00001EA00205949888002F004FD57498988A1
:1046C0000843564988800846808849F60601884292
:1046D00023D0A12002F0FCFF02F0F4FC4F498880B7
:1046E00002F0F0FC4D498880084680884FF6FF7143
:1046F00001EA00204949888002F0E4FC47498988A2
:104700000843464988800846808845F2617188429E
:1047100003D141F66310414988804048818844A014
:10472000FBF7B2FE3D48808849F24131884273D19F
:10473000CF2002F0CDFF002002F0C4FFC12002F024
:10474000C1FF302002F0BEFFED2002F0C1FF642067
:1047500002F0B8FF032002F0B5FF122002F0B2FF12
:10476000812002F0AFFFE82002F0B2FF852002F0C6
:10477000A9FF102002F0A6FF7A2002F0A3FFCB20B1
:1047800002F0A6FF392002F09DFF2C2002F09AFFD4
:10479000002002F097FF342002F094FF022002F084
:1047A00091FFF72002F094FF202002F08BFFEA2017
:1047B00002F08EFF002002F085FF002002F082FF51
:1047C000C02002F085FF1B2002F07CFFC12002F018
:1047D0007FFF012002F076FFC52002F079FF302034
:1047E00002F070FF302002F06DFFC72002F070FF72
:1047F000B72002F067FF362002F06AFF482002F07F
:1048000061FF3A2002F064FF552002F05BFFB12007
:1048100002F05EFF002013E0B4E00000CC060020B0
:1048200030380240000402407C060020040100A051
:10483000204C43442049443A25780D0A00000000EA
:1048400002F040FF1A2002F03DFFB62002F040FFC8
:104850000A2002F037FFA22002F034FFF22002F01B
:1048600037FF002002F02EFF262002F031FF01204A
:1048700002F028FFE02002F02BFF0F2002F022FFC1
:104880002A2002F01FFF282002F01CFF082002F05F
:1048900019FF0E2002F016FF082002F013FF54202B
:1048A00002F010FFA92002F00DFF432002F00AFFE2
:1048B0000A2002F007FF0F2002F004FF002002F0A0
:1048C00001FF002002F0FEFE002002F0FBFE0020AF
:1048D00002F0F8FEE12002F0FBFE002002F0F2FE02
:1048E000152002F0EFFE172002F0ECFE072002F088
:1048F000E9FE112002F0E6FE062002F0E3FE2B2086
:1049000002F0E0FE562002F0DDFE3C2002F0DAFE6E
:10491000052002F0D7FE102002F0D4FE0F2002F096
:10492000D1FE3F2002F0CEFE3F2002F0CBFE0F2052
:1049300002F0C8FE2B2002F0CBFE002002F0C2FEE7
:10494000002002F0BFFE012002F0BCFE3F2002F07A
:10495000B9FE2A2002F0BCFE002002F0B3FE0020C7
:1049600002F0B0FE002002F0ADFEEF2002F0AAFE41
:10497000112002F0ADFE78200BF096F8292002F00D
:10498000A7FE54E5FE48808847F2897188427CD1B1
:10499000112002F09DFE78200BF086F8362002F000
:1049A00097FE002002F08EFE3A2002F091FE0520D4
:1049B00002F088FEB22002F08BFE0C2002F082FE94
:1049C0000C2002F07FFE002002F07CFE332002F07B
:1049D00079FE332002F076FEB72002F079FE352012
:1049E00002F070FEBB2002F073FE322002F06AFE7D
:1049F000C02002F06DFE0C2002F064FEC22002F026
:104A000067FE012002F05EFEC32002F061FE10206E
:104A100002F058FEC42002F05BFE202002F052FE9D
:104A2000C62002F055FE0F2002F04CFED02002F00E
:104A30004FFEA42002F046FEA12002F043FEE0203B
:104A400002F046FED02002F03DFE002002F03AFEC9
:104A5000022002F037FE072002F034FE0A2002F0A6
:104A600031FE282002F02EFE322002F02BFE4420E0
:104A700002F028FE422002F025FE062002F022FE6F
:104A80000E2002F01FFE122000E056E002F01AFE97
:104A9000142002F017FE172002F014FEE12002F0AD
:104AA00017FED02002F00EFE002002F00BFE0220C6
:104AB00002F008FE072002F005FE0A2002F002FEC6
:104AC000282002F0FFFD312002F0FCFD542002F00E
:104AD000F9FD472002F0F6FD0E2002F0F3FD1C2048
:104AE00002F0F0FD172002F0EDFD1B2002F0EAFDC0
:104AF0001E2002F0E7FD2A2002F0EAFD002002F06D
:104B0000E1FD002002F0DEFD002002F0DBFDEF20E1
:104B100002F0D8FD2B2002F0DBFD002002F0D2FDD8
:104B2000002002F0CFFD012002F0CCFD3F2002F07A
:104B3000C9FD292002F0CCFD79E49148808845F236
:104B40001031884240F07C87ED2002F0C1FD012049
:104B500002F0B8FDFE2002F0B5FDEE2002F0B8FD37
:104B6000DE2002F0AFFD212002F0ACFDF12002F0CA
:104B7000AFFD012002F0A6FDDF2002F0A9FD10200C
:104B800002F0A0FDC42002F0A3FD8F2002F09AFDE8
:104B9000C62002F09DFD002002F094FDE22002F00C
:104BA00091FDE22002F08EFDE22002F08BFDBF209D
:104BB00002F08EFDAA2002F085FDB02002F088FDF3
:104BC0000D2002F07FFD002002F07CFD0D2002F0A0
:104BD00079FD002002F076FD112002F073FD002027
:104BE00002F070FD192002F06DFD002002F06AFD58
:104BF000212002F067FD002002F064FD2D2002F06C
:104C000061FD002002F05EFD3D2002F05BFD002012
:104C100002F058FD5D2002F055FD002002F052FD2B
:104C20005D2002F04FFD002002F04CFDB12002F0AB
:104C30004FFD802002F046FD002002F043FD8B2056
:104C400002F040FD002002F03DFD962002F03AFD0A
:104C5000002002F037FDB22002F03AFD002002F001
:104C600031FD002002F02EFD022002F02BFD00207D
:104C700002F028FD032002F025FD002002F022FDB5
:104C8000B32002F025FD002002F01CFD002002F000
:104C900019FD002002F016FD002002F013FD002097
:104CA00002F010FD002002F00DFD002002F00AFDD0
:104CB000002002F007FD002002F004FD002002F0B9
:104CC00001FD002002F0FEFC002002F0FBFC0020B1
:104CD00002F0F8FC002002F0F5FC002002F0F2FCEB
:104CE000002002F0EFFC002002F0ECFC002002F0BB
:104CF000E9FC002002F0E6FC002002F0E3FC0020CA
:104D000002F0E0FC002002F0DDFC002002F0DAFC02
:104D1000002002F0D7FCB42002F0DAFC8B2002F075
:104D2000D1FC002002F0CEFC962002F0CBFC00204B
:104D300002F0C8FCA12002F0C5FC002002F0C2FC79
:104D4000B52002F0C5FC022002F0BCFC002002F0FD
:104D5000B9FC032002F0B6FC002002F0B3FC0420F2
:104D600002F0B0FC002002F0ADFCB62002F0B0FC76
:104D7000002002F0A7FC002002F0A4FCB72001E014
:104D8000CC06002002F0A4FC002002F09BFC0020D6
:104D900002F098FC3F2002F095FC002002F092FC0B
:104DA0005E2002F08FFC002002F08CFC642002F0F8
:104DB00089FC002002F086FC8C2002F083FC00209D
:104DC00002F080FCAC2002F07DFC002002F07AFCB6
:104DD000DC2002F077FC002002F074FC702002F06E
:104DE00071FC002002F06EFC902002F06BFC0020B1
:104DF00002F068FCEB2002F065FC002002F062FC8F
:104E0000DC2002F05FFC002002F05CFCB82002F025
:104E10005FFC002002F056FC002002F053FC002052
:104E200002F050FC002002F04DFC002002F04AFC91
:104E3000002002F047FC002002F044FC002002F0B9
:104E400041FCBA2002F044FC242002F03BFC00208C
:104E500002F038FC002002F035FC002002F032FCA9
:104E6000C12002F035FC202002F02CFC002002F0D2
:104E700029FC542002F026FC002002F023FCFF2035
:104E800002F020FC002002F01DFCC22002F020FCF9
:104E90000A2002F017FC002002F014FC042002F0AB
:104EA00011FC002002F00EFCC32002F011FC3C209B
:104EB00002F008FC002002F005FC3A2002F002FC9F
:104EC000002002F0FFFB392002F0FCFB002002F082
:104ED000F9FB372002F0F6FB002002F0F3FB3C2048
:104EE00002F0F0FB002002F0EDFB362002F0EAFBBE
:104EF000002002F0E7FB322002F0E4FB002002F089
:104F0000E1FB2F2002F0DEFB002002F0DBFB2C2077
:104F100002F0D8FB002002F0D5FB292002F0D2FBE2
:104F2000002002F0CFFB262002F0CCFB002002F094
:104F3000C9FB242002F0C6FB002002F0C3FB2420A2
:104F400002F0C0FB002002F0BDFB232002F0BAFB00
:104F5000002002F0B7FB3C2002F0B4FB002002F07E
:104F6000B1FB362002F0AEFB002002F0ABFB32209A
:104F700002F0A8FB002002F0A5FB2F2002F0A2FB0C
:104F8000002002F09FFB2C2002F09CFB002002F08E
:104F900099FB292002F096FB002002F093FB2620CB
:104FA00002F090FB002002F08DFB242002F08AFB2F
:104FB000002002F087FB242002F084FB002002F096
:104FC00081FB232002F07EFB002002F07BFBC4204B
:104FD00002F07EFB622002F075FB002002F072FB03
:104FE000052002F06FFB002002F06CFB842002F031
:104FF00069FB002002F066FBF02002F063FB00205A
:1050000002F060FB182002F05DFB002002F05AFB6A
:10501000A42002F057FB002002F054FB182002F0FD
:1050200051FB002002F04EFB502002F04BFB002011
:1050300002F048FB0C2002F045FB002002F042FB8E
:10504000172002F03FFB002002F03CFB952002F00D
:1050500039FB002002F036FBF32002F033FB002086
:1050600002F030FBE62002F02DFB002002F02AFBCC
:10507000C52002F02DFB322002F024FB002002F0BC
:1050800021FB442002F01EFB002002F01BFB6520E8
:1050900002F018FB002002F015FB762002F012FB54
:1050A000002002F00FFB882002F00CFB002002F031
:1050B00009FBC62002F00CFB202002F003FB0020BD
:1050C00002F000FB172002F0FDFA002002F0FAFACD
:1050D000012002F0F7FA002002F0F4FAC72002F0F3
:1050E000F7FA002002F0EEFA002002F0EBFA0020BE
:1050F00002F0E8FA002002F0E5FAC82002F0E8FA2F
:10510000002002F0DFFA002002F0DCFA002002F0BA
:10511000D9FA002002F0D6FAC92002F0D9FA00200C
:1051200002F0D0FA002002F0CDFA002002F0CAFA14
:10513000002002F0C7FA002002F0C4FA002002F0BA
:10514000C1FA002002F0BEFA002002F0BBFA0020F3
:1051500002F0B8FA002002F0B5FA002002F0B2FA2C
:10516000002002F0AFFA002002F0ACFA002002F0BA
:10517000A9FA002002F0A6FA002002F0A3FAE0202B
:1051800002F0A6FA162002F09DFA002002F09AFA28
:105190001C2002F097FA002002F094FA212002F07D
:1051A00091FA002002F08EFA362002F08BFA0020ED
:1051B00002F088FA462002F085FA002002F082FA16
:1051C000522002F07FFA002002F07CFA642002F004
:1051D00079FA002002F076FA7A2002F073FA0020C1
:1051E00002F070FA8B2002F06DFA002002F06AFAE9
:1051F000992002F067FA002002F064FAA82002F079
:1052000061FA002002F05EFAB92002F05BFA002099
:1052100002F058FAC42002F055FA002002F052FAC7
:10522000CA2002F04FFA002002F04CFAD22002F01D
:1052300049FA002002F046FAD92002F043FA002091
:1052400002F040FAE02002F03DFA002002F03AFAC3
:10525000F32002F037FA002002F034FAE12002F0E5
:1052600037FA162002F02EFA002002F02BFA1C204A
:1052700002F028FA002002F025FA222002F022FA99
:10528000002002F01FFA362002F01CFA002002F083
:1052900019FA452002F016FA002002F013FA522003
:1052A00002F010FA002002F00DFA642002F00AFA6F
:1052B000002002F007FA7A2002F004FA002002F03F
:1052C00001FA8B2002F0FEF9002002F0FBF9992090
:1052D00002F0F8F9002002F0F5F9A82002F0F2F946
:1052E000002002F0EFF9B92002F0ECF9002002F002
:1052F000E9F9C42002F0E6F9002002F0E3F9CA203F
:1053000002F0E0F9002002F0DDF9D22002F0DAF933
:10531000002002F0D7F9D82002F0D4F9002002F0E2
:10532000D1F9E02002F0CEF9002002F0CBF9F32011
:1053300002F0C8F9002002F0C5F9E22002F0C8F935
:10534000052002F0BFF9002002F0BCF90B2002F0AA
:10535000B9F9002002F0B6F91B2002F0B3F90020E1
:1053600002F0B0F9342002F0ADF9002002F0AAF901
:10537000442002F0A7F9002002F0A4F94F2002F027
:10538000A1F9002002F09EF9612002F09BF90020B3
:1053900002F098F9792002F095F9002002F092F9D4
:1053A000882002F08FF9002002F08CF9972002F09B
:1053B00089F9002002F086F9A62002F083F9002086
:1053C00002F080F9B72002F07DF9002002F07AF9AE
:1053D000C22002F077F9002002F074F9C72002F031
:1053E00071F9002002F06EF9D12002F06BF9002073
:1053F00002F068F9D62002F065F9002002F062F9A7
:10540000DD2002F05FF9002002F05CF9F32002F0E9
:1054100059F9002002F056F9E32002F059F905206D
:1054200002F050F9002002F04DF90A2002F04AF98A
:10543000002002F047F91C2002F044F9002002F09D
:1054400041F9332002F03EF9002002F03BF94420FC
:1054500002F038F9002002F035F9502002F032F95C
:10546000002002F02FF9622002F02CF9002002F057
:1054700029F9782002F026F9002002F023F988208B
:1054800002F020F9002002F01DF9972002F01AF92D
:10549000002002F017F9A62002F014F9002002F013
:1054A00011F9B72002F00EF9002002F00BF9C2202A
:1054B00002F008F9002002F005F9C72002F002F915
:1054C000002002F0FFF8D12002F0FCF8002002F0EA
:1054D000F9F8D52002F0F6F8002002F0F3F8DD200C
:1054E00002F0F0F8002002F0EDF8F32002F0EAF804
:1054F000002002F0E7F8E42002F0EAF8012002F0D0
:10550000E1F8002002F0DEF8012002F0DBF80020D4
:1055100002F0D8F8022002F0D5F8002002F0D2F80C
:105520002A2002F0CFF8002002F0CCF83C2002F054
:10553000C9F8002002F0C6F84B2002F0C3F80020A2
:1055400002F0C0F85D2002F0BDF8002002F0BAF8C9
:10555000742002F0B7F8002002F0B4F8842002F0C2
:10556000B1F8002002F0AEF8932002F0ABF8002072
:1055700002F0A8F8A22002F0A5F8002002F0A2F89C
:10558000B32002F09FF8002002F09CF8BE2002F049
:1055900099F8002002F096F8C42002F093F8002059
:1055A00002F090F8CD2002F08DF8002002F08AF889
:1055B000D32002F087F8002002F084F8DD2002F00A
:1055C00081F8002002F07EF8F32002F07BF8002042
:1055D00002F078F8E52002F07BF8002002F072F883
:1055E000002002F06FF8002002F06CF8002002F0BA
:1055F00069F8022002F066F8002002F063F8292022
:1056000002F060F8002002F05DF83C2002F05AF849
:10561000002002F057F84B2002F054F8002002F06E
:1056200051F85D2002F04EF8002002F04BF8742093
:1056300002F048F8002002F045F8842002F042F819
:10564000002002F03FF8932002F03CF8002002F026
:1056500039F8A22002F036F8002002F033F8B32027
:1056600002F030F8002002F02DF8BE2002F02AF8F7
:10567000002002F027F8C42002F024F8002002F0F5
:1056800021F8CD2002F01EF8002002F01BF8D320F4
:1056900002F018F8002002F015F8DC2002F012F8F1
:1056A000002002F00FF8F32002F00CF8002002F0C6
:1056B00009F8E62002F00CF8112002F003F80020AF
:1056C00002F000F8342001F0FDFF002001F0FAFFA5
:1056D000562001F0F7FF002001F0F4FF762001F0E2
:1056E000F1FF002001F0EEFF772001F0EBFF00203A
:1056F00001F0E8FF662001F0E5FF002001F0E2FF85
:10570000882001F0DFFF002001F0DCFF992001F08C
:10571000D9FF002001F0D6FFBB2001F0D3FF00200D
:1057200001F0D0FF992001F0CDFF002001F0CAFF69
:10573000662001F0C7FF002001F0C4FF552001F0F2
:10574000C1FF002001F0BEFF552001F0BBFF00208B
:1057500001F0B8FF452001F0B5FF002001F0B2FFD5
:10576000432001F0AFFF002001F0ACFF442001F026
:10577000A9FF002001F0A6FFE72001F0A9FF3220D9
:1057800001F0A0FF002001F09DFF552001F09AFFDD
:10579000002001F097FF762001F094FF002001F037
:1057A00091FF662001F08EFF002001F08BFF672043
:1057B00001F088FF002001F085FF672001F082FFE3
:1057C000002001F07FFF872001F07CFF002001F026
:1057D00079FF992001F076FF002001F073FFBB20D4
:1057E00001F070FF002001F06DFF992001F06AFFC9
:1057F000002001F067FF772001F064FF002001F036
:1058000061FF442001F05EFF002001F05BFF5620A5
:1058100001F058FF002001F055FF232001F052FF56
:10582000002001F04FFF332001F04CFF002001F079
:1058300049FF452001F046FF002001F043FFE8202A
:1058400001F046FF002001F03DFF002001F03AFF8B
:10585000992001F037FF002001F034FF872001F08C
:1058600031FF002001F02EFF882001F02BFF0020E7
:1058700001F028FF772001F025FF002001F022FF32
:10588000662001F01FFF002001F01CFF882001F0BE
:1058900019FF002001F016FFAA2001F013FF0020DD
:1058A00001F010FFBB2001F00DFF002001F00AFF06
:1058B000992001F007FF002001F004FF662001F0AD
:1058C00001FF002001F0FEFE552001F0FBFE00204C
:1058D00001F0F8FE552001F0F5FE002001F0F2FE87
:1058E000442001F0EFFE002001F0ECFE442001F026
:1058F000E9FE002001F0E6FE552001F0E3FE002065
:1059000001F0E0FEE92001F0E3FEAA2001F0DAFE5A
:10591000002001F0D7FE002001F0D4FE002001F0AD
:10592000D1FE002001F0D4FEAA2001F0CBFECF2052
:1059300001F0CEFE002001F0C5FE002001F0C2FE05
:10594000002001F0BFFE002001F0BCFE002001F0AD
:10595000B9FE002001F0B6FE002001F0B3FE0020E9
:1059600001F0B0FE002001F0ADFE002001F0AAFE23
:10597000002001F0A7FE002001F0A4FE002001F0AD
:10598000A1FE002001F09EFE002001F09BFE002001
:1059900001F098FE002001F095FEF02001F098FE45
:1059A000002001F08FFE502001F08CFE002001F05D
:1059B00089FE002001F086FE002001F083FEF32026
:1059C00001F086FE002001F07DFEF92001F080FE4E
:1059D000062001F077FE102001F074FE292001F06E
:1059E00071FE002001F06EFE3A2001F071FE55209C
:1059F00001F068FE112001F06BFE64200AF054F8FB
:105A0000292001F065FE352001F062FE002001F042
:105A100059FE512001F05CFEFF2001F053FE53209F
:105A200001F056FE2C2001F04DFE552001F050FEF5
:105A3000822001F047FE2C2001F04AFE01F0DCBA82
:105A4000FE48808845F2105188427DD155214FF49F
:105A5000704001F04DFEAA214FF2010001F048FE16
:105A600052214FF2020001F043FE08214FF20300E1
:105A700001F03EFE01214FF2040001F039FE0D213C
:105A80004FF4304001F034FE0D214BF2010001F0E3
:105A90002FFE0D214BF2020001F02AFE34214FF4BB
:105AA000364001F025FE34214BF2016001F020FE6A
:105AB00034214BF2026001F01BFE0D214FF4314006
:105AC00001F016FE0D214BF2011001F011FE0D2127
:105AD0004BF2021001F00CFE34214FF4374001F07C
