:020000040800F2
:10000000F008022081030008C79D0008EF5800088F
:10001000C39D000807280008B5B8000800000000CC
:10002000000000000000000000000000C9020008FD
:100030005D2A0008000000001D0300086DA30008F1
:100040009B0300089B0300089B0300089B03000818
:100050009B0300089B0300089B0300089B03000808
:100060009B0300089B0300089B0300089B030008F8
:100070009B0300089B0300089B0300089B030008E8
:100080009B0300089B0300089B0300089B030008D8
:100090009B0300089B0300089B0300089B030008C8
:1000A0009B0300089B0300089B0300089B030008B8
:1000B0009B0300089B0300089B0300089B030008A8
:1000C0009B0300089B0300089B0300089B03000898
:1000D0009B03000865B800089B0300089B03000809
:1000E0009B0300089B0300089B0300089B03000878
:1000F0009B0300089B0300089B0300089B03000868
:100100009B0300089B0300089B0300089B03000857
:100110009B0300089B030008E5A300089B0300085D
:100120009B0300089B0300089B0300089B03000837
:100130009B0300089B0300089B0300089B03000827
:100140009B0300089B0300089B0300089B03000817
:100150009B0300089B0300089B0300089B03000807
:100160009B0300089B0300089B0300089B030008F7
:100170009B0300089B0300089B030008000000008D
:100180009B0300089B0300089B0300089B030008D7
:100190009B0300089B0300089B0300089B030008C7
:1001A0009B0300089B0300089B03000800F002F873
:1001B00000F07BF80AA090E8000C82448344AAF186
:1001C0000107DA4501D100F070F8AFF2090EBAE884
:1001D0000F0013F0010F18BFFB1A43F0010318477B
:1001E00080050500A00505000A444FF0000C10F83A
:1001F000013B13F0070408BF10F8014B1D1108BFA5
:1002000010F8015B641E05D010F8016B641E01F844
:10021000016BF9D113F0080F1EBF10F8014BAD1C94
:100220000C1B09D16D1E58BF01F801CBFAD505E0B2
:1002300014F8016B01F8016B6D1EF9D59142D6D30C
:10024000704700000023002400250026103A28BF34
:1002500078C1FBD8520728BF30C148BF0B60704738
:10026000662903F04BA2642900F0B681752900F0DD
:10027000B381782900F0EC81732900F0F686002024
:1002800070471FB543F02DFA00F03CFC040000203D
:10029000002142F0D5FC401C60600020002142F0AB
:1002A000E5FCE0601FBD10B510BD01F0DDF81146A2
:1002B000FFF7E7FF35F096FD01F032F903B4FFF7E1
:1002C000F2FF03BC0DF04CFE2A4B19680868B0E839
:1002D000F04F80F30988BFF36F8F4FF0000080F379
:1002E000118870470000000006480068006880F32D
:1002F000088862B661B6BFF34F8FBFF36F8F00DF20
:1003000000BF00BF08ED00E0DFF80C00016841F419
:1003100070010160704700BF88ED00E0EFF30980D5
:10032000BFF36F8F134B1A681EF0100F08BF20ED3C
:10033000108A20E9F04F106008B44FF0500080F3AD
:100340001188BFF34F8FBFF36F8F41F005FC4FF063
:10035000000080F3118808BC19680868B0E8F04F05
:100360001EF0100F08BFB0EC108A80F30988BFF3AD
:100370006F8F704790020020EFF3058070470000F8
:100380000948804709480047FEE7FEE7FEE7FEE729
:10039000FEE7FEE7FEE7FEE7FEE7FEE70448054965
:1003A000054A064B7047000081A30008AD01000814
:1003B000F0020220F0080220F0040220F0040220E3
:1003C0007047000010B500F09DFB001D10BD00BF80
:1003D0007128040053EA020C00F069802DE9F04B0B
:1003E0004FF00006002B1FBFB3FA83F503FA05F4A4
:1003F00024FA05F65E4012BF1643B2FA82F502FAFD
:1004000005F4C5F120051EBF22FA05FC44EA0C04E0
:10041000203556EA044C4FEA144418BF641C4FF0D0
:1004200000084FF00009904271EB030C39D300290A
:1004300019BFB1FA81F701FA07F6B0FA80F700FAAE
:1004400007F6C7F120071EBF20FA07FC46EA0C0694
:100450002037B6FBF4FCA7EB0507103F07F01F0B96
:10046000CBF120060CFA0BFB2CFA06F644BFB34680
:100470000026202FA4BF5E464FF0000B5BEA060C5F
:1004800008BF4FF0010B19EB0B09ABFB027C48EBEB
:100490000608C01B06FB02CC0BFB03CC71EB0C0166
:1004A000C1E70B46024641464846BDE8F08B13B50E
:1004B0004FF000004FF00001AFF30080BDE81C409A
:1004C000704700000FB4044910B503AA029800F069
:1004D000D1FD10BC5DF814FB2C0000200FB41CB53E
:1004E000074B06AA7B4469460090059800F08BFDF7
:1004F0000020694600F09AFD1CBC5DF814FB00006A
:10050000450B00000FB41CB50C0007AA009001D0E9
:100510002044401E074B7B4469460190069800F03A
:1005200072FD002C03D06946002000F07FFD1CBC4A
:100530005DF814FB1D0B000070B50446856900686A
:10054000C10601D5302600E02026C00707D070BDC7
:10055000D4E9012130469047206A401C20626D1E7C
:10056000F6D570BD70B5044685690078C00707D11F
:1005700070BDD4E9012120209047206A401C2062F0
:100580006D1EF6D570BD70B50C460546012A05D026
:100590002878800600D5EA69002302E0012305E0FF
:1005A0005B1C934202D2E05C0028F9D1A869E618EE
:1005B000C01AA861286A184428622846FFF7BCFFC1
:1005C00004E0D5E9012114F8010B9047B442F8D3B7
:1005D0002846FFF7C7FF70BD2DE9F041064600240D
:1005E00010687529314616A510D0AFF30080002899
:1005F00002DA404213A507E031688A0701D512A547
:1006000002E0490704D511A5012401E0AFF3008001
:1006100000210A2206F1240709E0B0FBF2FCB0FB3E
:10062000F2F302FB1C00303078541846491C0028B5
:10063000F3D123462A463046BDE8F04100F075BAB2
:10064000000000002D0000002B0000002000000032
:1006500070B504460D4621461068AFF3008021882E
:10066000090502D50F4A7A4402E00E4A7A440E3256
:10067000002104F1240305E000F00F060009965D57
:100680005E54491C0028F7D120780023000704D5C8
:10069000702D02D009B1022311322046BDE870400E
:1006A00000F043BA6EFA04002DE9F05F8946044673
:1006B0004FF0000ADFF824B1FB44C0F820A0204628
:1006C000E168884700287DD0252806D0D4E901219B
:1006D0009047206A401C2062F1E700255F462046D3
:1006E000E16888472028064607DB312E05D2B81975
:1006F00010F8200C08B10543F1E7A80701D525F053
:100700000405C4F81CA00027C4F818A02A2E09D09C
:1007100030460BF06EFA38B304EB8708303EC8F869
:10072000186019E059F8041B204604EB8702916118
:10073000E1688847012F064618D1E069002820DAD1
:1007400025F020051DE0D8F8180000EB800006EB2E
:1007500040003038C8F818002046E168884706464F
:100760000BF047FA0028EED1012F0AD02E2E08D127
:100770002046E16888477F1C0646022F45F0200589
:10078000C4DBA069002803DA404245F00105A061FE
:10079000E80701D025F01005A6B1A6F141001928FF
:1007A00002D8203645F400654A4631462046256089
:1007B0004D46FFF755FD60B1012807D0ED1D25F02E
:1007C000070000E007E000F1080978E705F10409F7
:1007D00075E730467AE7206ABDE8F09F44FA0400E6
:1007E00070B5064600F092F90468054630460A22C4
:1007F000002100F05EFC2C6070BD401ECAB210F8F3
:10080000011F8A4202D00029F9D10020704740EA36
:100810000103024630B59B0710D14FF0013400E0D0
:1008200008C208C91D1B9D4315EAC41FF8D013F068
:10083000FF0102F8011B0DD01B0AF8E711F8013B7C
:10084000002B02F8013B05D011F8013B002B02F808
:10085000013BF3D130BD10B5431C02E010F8011B81
:1008600071B18107FAD14FF0013202C88C1A8C4362
:1008700014EAC211F9D0C01A0A0603D0C01E10BD76
:10088000C01A10BD0A0401D0801E10BD0902FCD0A0
:10089000401E10BD032A40F2308010F0030C00F01F
:1008A000158011F8013BBCF1020F624498BF11F8AA
:1008B00001CB00F8013B38BF11F8013BA2F1040263
:1008C00098BF00F801CB38BF00F8013B11F00303DB
:1008D00000F02580083AC0F0088051F8043B083A3F
:1008E00051F804CBA0E80810F5E7121D5CBF51F8E1
:1008F000043B40F8043BAFF30080D20724BF11F85B
:10090000013B11F801CB48BF11F8012B24BF00F8BF
:10091000013B00F801CB48BF00F8012B704710B530
:10092000203AC0F00B80B1E81850203AA0E81850E7
:10093000B1E81850A0E81850BFF4F5AF5FEA027CA8
:1009400024BFB1E81850A0E8185044BF18C918C017
:10095000BDE810405FEA827C24BF51F8043B40F8B8
:10096000043B08BF7047D20728BF31F8023B48BF9D
:1009700011F8012B28BF20F8023B48BF00F8012BDB
:10098000704702F0FF0343EA032242EA024200F00A
:1009900002B84FF000020429C0F0128010F0030CDE
:1009A00000F01B80CCF1040CBCF1020F18BF00F862
:1009B000012BA8BF20F8022BA1EB0C0100F00DB811
:1009C0005FEAC17C24BF00F8012B00F8012B48BF6F
:1009D00000F8012B70474FF0000200B51346944613
:1009E0009646203922BFA0E80C50A0E80C50B1F187
:1009F0002001BFF4F7AF090728BFA0E80C5048BF9B
:100A00000CC05DF804EB890028BF40F8042B08BF38
:100A1000704748BF20F8022B11F0804F18BF00F834
:100A2000012B704710B5044610F0030F08BF11F0FA
:100A3000030F40F015804FF0013E121FC0F20E80F0
:100A400051F8043BA3EB0E0C2CEA030C1CEACE1C61
:100A500008BF40F8043BF0D0A1F1040102F1040208
:100A6000521E08DB11F8013B002B00F8013BF7D1C7
:100A70001146FFF78EFF204610BD00004FF0013CED
:100A800050F8042B51F8043B9A4221D1A2EB0C03FD
:100A9000934313EACC1317D150F8042B51F8043BBD
:100AA0009A4215D1A2EB0C03934313EACC130BD15A
:100AB00050F8042B51F8043B9A4209D1A2EB0C03E5
:100AC000934313EACC13DBD04FF00000704700BF14
:100AD000D01A01BAB1FA81F101F0180122FA01F03D
:100AE000CB40C1F12001DBB2C0B2C01A2CFA01F335
:100AF000D11A914311EAC311E6D17047704770478C
:100B00007047704700487047B002022000487047A5
:100B10009002022010B5FFF7F9FF006810BD10B574
:100B20000446FFF7F3FF046010BD2DE9F0470D46C2
:100B300099469246044600F124080168880604D5C7
:100B4000E06921F01001216000E00120A84201DDF0
:100B5000471B00E00027A1697A1902EB0900081A77
:100B6000A0612078C00602D42046FFF7E5FC0026ED
:100B700008E0D4E901211AF806009047206A401CD9
:100B8000761C20624E45F4DB2078C0060AD520464C
:100B9000FFF7D2FC06E0D4E9012130209047206A1B
:100BA000401C2062381EA7F10107F4DC07E0D4E9FD
:100BB000012118F805009047206A401C2062281E79
:100BC000A5F10105F3DC2046FFF7CCFC20780006F8
:100BD00002D50220BDE8F0870120FBE770472DE930
:100BE000FF4F0C461E464FF0FF378BB0D2E9000195
:100BF000DDF860800A908A46C1F30A5505B93D4682
:100C0000002108464FF00000BAF1000F00F4400048
:100C100005DA00EB80004FF4400101EA50004FEA92
:100C20009059B9F1010F00DDB9460A9850EA4A001F
:100C30000ED044F61050A5F2FF3545432F14B8F1FD
:100C4000000F1ED07542291E1EDDC9F100021CE0F6
:100C5000B8F1010F4FF0000001D0302103E0F24362
:100C600005E02154401CB042FBDB3046002200214D
:100C700021540B99C1F80880C1E900200FB0BDE8EC
:100C8000F08FBD1B6D1CDEE74A4600DA694206A8FC
:100C900000F074FB06AB93E8070003AB83E80700A2
:100CA00050460A9901F0FFF88DE80700A0F50050C2
:100CB0001F3800900398002D0ADD42F21F014A46BA
:100CC0000844002303A90390684601F0ABFB09E048
:100CD000A0F500504A461F38002303A90390684638
:100CE00001F0CAFB8DE807000004000C03D04FF0B0
:100CF000FF30410800E01046B8F1000F03D0002299
:100D0000009215461EE0751E05D400F00FFA303231
:100D100062556D1EF9D5B3460122084302D0002268
:100D20007F1C04E02078302801D100227F1E002A99
:100D3000099784D01DE0112D07DA00F0F7F9303261
:100D400062556D1C50EA0102F5D1084302D00098AB
:100D5000C8B10EE00021681E05E0235C625C6354AC
:100D60002254401E491C8142F7DBAB46A81B401EA3
:100D70000990002004F80B000B98099AC0F808802D
:100D8000C0E9002B7AE711264FF0000857E72DE95C
:100D9000F04F88460446D21D22F0070191B0D1E9F8
:100DA0000001CDE90A010AF087FD02460B98C00F49
:100DB00001D02D2007E02068810701D52B2002E01B
:100DC000202101EAC000032A099001D0072A05DB8F
:100DD00003464146204600F0EFF90BE120788006FB
:100DE00001D5E06900E00620B8F1650F814606D024
:100DF000B8F1660F18D0B8F1670F70D131E000205C
:100E0000B9F1110F009001DB112301E009F1010399
:100E10000AAA01A90CA8FFF7E2FEDDE90C70002682
:100E200009F10105834647E001204B4600904FF051
:100E300000470AAA01A90CA8FFF7D1FEDDE90DB011
:100E40000C995D46002610B909F101000D18B9EBA7
:100E5000050003D4C0F1FF3609F10105A5EB090037
:100E60002BE0B9F1010F01DA4FF001090020B9F1CF
:100E7000110F0090484601DD112300E003460AAA45
:100E800001A90CA8FFF7ABFEDDE90C704D4600266A
:100E90008346207800070AD4AB4500DA5D4601A8F6
:100EA000012D04DD411911F8011C302907D04F45EF
:100EB00002DA17F1040F04DA012082460FE06D1EFA
:100EC000EEE7002F02DCED1B3E4403E0781CA84255
:100ED00000DD7D1CB81B00F1010A4FF000472078AF
:100EE000000703D4AA4501DB4FF0FF3A0021B7F118
:100EF000004F0DF143088DF8431024D002202B231E
:100F0000002F01DA7F422D230A21021EA0F10100E9
:100F100000DC5FB197FBF1FC97FBF1F201FB1C7C5D
:100F200017460CF1300C08F801CDEEE7A8F10100EE
:100F300003702188090501D5452100E06521A0F154
:100F4000010800F8011C09980FA9A1EB0807FF1D73
:100F500000B10120411901EBEA70A1693844081A77
:100F6000401EA0612078C00602D42046FFF7E4FAB4
:100F7000099828B1D4E901219047206A401C2062D9
:100F80002078C00622D52046FFF7D6FA1EE0002EB4
:100F900004DBB34502DD01A8805D00E03020D4E928
:100FA00001219047206A401C2062761CAAF10100B2
:100FB0005FEA000A0AD1FFF7A5FDC0680168405C3E
:100FC000D4E901219047206A401C2062281EA5F127
:100FD0000105DCDC07E0D4E9012118F8010B90479A
:100FE000206A401C2062381EA7F10107F3DC20466E
:100FF000FFF7B8FA032011B041E6000001694A1C6E
:1010000002610878704700B58FB0CDE90131002149
:10101000059105497944CDE9031011466846FFF76B
:1010200043FB0FB000BD0000E5FFFFFF0A6802F8B8
:10103000010B0A607047D1E900239A4202D2531C87
:101040000B601070704710B5436913B1AFF30080A7
:1010500001E0FFF798FA012010BD127800F1240199
:101060000A7000224A700122EDE711684FF0FF324A
:10107000E9E70000074B70B50D467B44FFF7C3FF5F
:101080000446284600F0ECF910B14FF0FF3070BD77
:10109000204670BD0FA401007CB5054600236846BC
:1010A000CDE9003300F036F9694628460AF070FDB4
:1010B0007CBD2DE9F04791460F4680460446002648
:1010C00014F8015B2DB1FFF77DF90068405DC007A2
:1010D000F6D12B2D02D02D2D18D0641E4A4639464C
:1010E000204600F0A9F827B13968A14201D1C7F81C
:1010F00000804FF0020471050BD54042002803DD4B
:10110000FFF704FD0460A007BDE8F08746F48066A1
:10111000E4E70028F8DAFFF7F9FC04606FF000401C
:10112000F2E70000004870479002022030B5B0F1AD
:101130000A024FEA900E71F100034EEA817EB0EB95
:101140000E0061EB91014FEA101E4EEA017E10EB9A
:101150000E0041EB11114FEA102E4EEA016E10EB1A
:101160000E0041EB11214FEA104E4EEA014E10EBFA
:101170000E0041EB1141401841F100014FEAD0004F
:1011800040EA41704FEAD10110EB80054FEA81043B
:1011900044EA907444EB01046D1944EB0404521BBF
:1011A000A3414FF0000348BF0A3200D530BD401CB8
:1011B00041F1000130BD00002DE9F0411F46044619
:1011C00003260168072A01F4006004DB08B116A5B4
:1011D00005E016A503E008B115A500E015A521F06E
:1011E00010002060A069C01EA0610FB1401EA06168
:1011F0002046FFF7A1F94FB1D4E9012138469047C5
:10120000206A401C2062C01C206206E0206AFAE7C7
:10121000D4E9012115F8010B9047761EF8D220463B
:10122000FFF7A0F9BDE8F0814E414E006E616E00FF
:10123000494E4600696E66002DE9F05F824615460C
:101240008B4600270AF10104B9460078302801D006
:101250009DB113E014F8010B0127782803D058281A
:1012600001D045B10AE00DB1102D07D1002714F8C7
:10127000010B102502E0082500E00A250026B046F3
:101280000EE005FB080005FB06F101271FFA80F8B8
:1012900001EB1046B6F5803F00D3B94614F8010BB8
:1012A000294600F00FF90028EBDABBF1000F05D05A
:1012B0000FB1641E00E05446CBF80040B9F1000FB6
:1012C00006D0FFF723FC02210160C81EBDE8F09F95
:1012D00048EA0640FAE700000FB4002300B589B0E1
:1012E0000CA900910B99CB60214B7B440693214BB9
:1012F0007B44079304236FF00042CDE901321E4A7C
:101300007A446B4608920246002042F059FA09B02E
:101310005DF814FB70B506464FF0FF3015460C46DD
:10132000324686B00091CDE9010169460020049063
:1013300004A8FFF7D1FF02460498211825B108B18F
:10134000084600E020462860049800280DD0002AB6
:1013500002DD0098884208D03246081B6946009496
:10136000CDE9010404A8FFF7B7FF06B070BD000087
:10137000F30100000B020000AF0100002DE9F0476F
:10138000814616468AB0354878440DC88DE80D0070
:1013900032487844801C03AC0DC884E80D0041F647
:1013A0009B300844372190FBF1F290FBF1F5A5F159
:1013B000800501FB12041B3C02D56442012000E0C1
:1013C0000020DFF898A080460027FA44AAF1BE0A60
:1013D0000EE0E0070AD03246684607EB47010123DA
:1013E0000AEB810101F048F88DE8070064107F1CCA
:1013F000002CEED1194F7F44AE3F19E0E80715D01D
:1014000007EB04100DF1180A90E80E008AE80E00B0
:10141000C068F04201D1981908903246012306A90C
:1014200003A801F029F803AB83E807006D10641CE2
:10143000002DE3D14FF0010332466946B8F1000FA9
:1014400003A802D000F0EEFF01E001F015F8C9E9B1
:101450000001C9F808200AB0BDE8F08704EE0400D6
:10146000007B00F0800070477546FFF75BFEAE46DC
:1014700005006946534620F00700854618B020B5A0
:10148000FEF78CFFBDE820404FF000064FF000074C
:101490004FF000084FF0000B21F00701AC46ACE81C
:1014A000C009ACE8C009ACE8C009ACE8C0098D4689
:1014B000704710B50446FEF785FF0068005D00F038
:1014C000010010BD3A2800D2303820F02002412A15
:1014D00001D3A2F13700884201D34FF0FF307047AB
:1014E000426842B1016811F8013B23B1521EC0E9C4
:1014F0000012184670470121C160881E704742687B
:101500005AB1C368016843B983688B4205D0491E4C
:10151000521CC0E90012002070474FF0FF307047A6
:1015200010B50446AFF300802046BDE81040FEF73A
:10153000C5BE00002DE9FF4F06468BB00878FF2896
:1015400006D0491C2D2805D000244FF0000908E0E2
:1015500000200CE00124F8E709EB8903491C00EBAB
:1015600043090878FF28F7D114B1C9F1000081467A
:10157000107800252C46AA4629462D2801D02B2874
:1015800004D1521C2D2813D0002082468B4610789F
:10159000FF280FD04FF0000C0A21521CA5FB017848
:1015A00004FB018105FB0C11C5194BEB0104EEE7AF
:1015B0000120EAE7002108464FF00000BAF1000FD1
:1015C00002D000EB80004008C0F38157012F01DDFD
:1015D0004FF0FF370E9955EA040009EB01080BD0D4
:1015E0004FF0020918F5FA7F16DA4FEACA70002F99
:1015F000706008DD012007E04FEACA70C6E900B05C
:101600000FB0BDE8F08F00203060FFF77FFAC0F820
:1016100000901821084616E0B8F5FA7F18DD002F73
:1016200002DAF748784401E0F6487844D0E900103F
:10163000C6E9001040EACA707060FFF767FAC0F8A8
:101640000090142108460FB0BDE8F04F42F053B8A7
:10165000002108464FF00000B8F10001099002DABD
:10166000C7F1000200E03A4601DAC8F1000106A81D
:10167000FFF784FE06AB93E8070003AB83E807009F
:1016800044F23E005BEA04010090584604D144F263
:101690001E012C465D460091210C0904014306D130
:1016A0000099240444EA15442D041039009104F0F3
:1016B0007F41014306D10099240244EA15642D02BA
:1016C0000839009104F07041014306D100992401CA
:1016D00044EA15742D01091F009104F040410143B3
:1016E00006D10099A40044EA9574AD00891E0091CA
:1016F00004F00041084304D100986D196441401E74
:1017000000904FF001033A466846B8F1000FCDE96A
:10171000014503A902DD00F0C4FE01E000F097FEE0
:10172000BAF1000F04460D4601D084F000440021B8
:1017300008464FF00000099940F2FF77484010F04A
:101740000C0F07D124F00040284303D0C4F30A5003
:10175000B84212D1FFF7DAF9C0F80090C4F30A508A
:10176000B8420AD1A8487844D0E90010C6E9001070
:1017700004F000410843706042E7C6E900543FE7C7
:101780002DE9FF4F1F464FF0000A4FF0FF38454646
:1017900091B0D7E90146CDF83CA0FFF7B3F9C06896
:1017A0000168405C1090B96912986D1C8847396ACD
:1017B000814688470028F6D1B9F1FF3F0AD0002EB4
:1017C00024F4D06411DDB9F12B0F08D0B9F12D0F3D
:1017D0000BD102E0404615B013E744F48064B969C8
:1017E00012986D1C8847761E8146600504A901D5B4
:1017F0002D2000E02B20002E01F1010B0DF130080F
:101800008DF810003FDDB9F1690F08D0B9F1490F2B
:1018100005D0B9F16E0F02D0B9F14E0F1CD13B4685
:1018200001A8009580E85002DDE912126FF0020075
:1018300041F0CAFFC11CCED10EE0B96912986D1CEF
:10184000884781461398761E44F4007405600F980B
:10185000401C002E0F9016DDB9F1300FEDD0B9F11C
:10186000780F02D0B9F1580F0DD10F9801280AD185
:101870003B46CDE90054DDE91212001F029641F00B
:10188000A1FFC11CA7D1109989453ED144F0800425
:1018900006E01399681CAAF1010A44F40074086078
:1018A000B9696D1C1298761E884730288146F0D0A1
:1018B0002BE01099894505D1200603D4761E44F00B
:1018C000800418E048460AF094F908B3761E0DF13A
:1018D00023018B4544F4007408D2A9F130000BF8C1
:1018E000010B200607D5AAF1010003E0200602D46F
:1018F0000AF101008246A00502D51399681C086010
:10190000B96912986D1C88478146002ED1DC53E0DE
:10191000002E51DDB9F1650F02D0B9F1450F4BD161
:10192000A00549D5B9696D1C1298761E24F440743F
:101930008847002E81460CDD2B2804D0B9F12D0FED
:1019400007D144F48074B96912986D1C8847761EDB
:101950008146E00501D52D2100E02B2108F8011B6F
:10196000CDF8008021E0761E0DF13901884544F460
:1019700000740CD2A9F1300010F0FF0088F80000CC
:1019800002D10099884509D908F1010806E0E0056F
:1019900001D51E4801E042F20F708246B9691298E3
:1019A0006D1C8847814613980560002E04DD48466B
:1019B0000AF01FF90028D6D1F96912988847FF204C
:1019C00053468BF8000088F8000000200A900B9026
:1019D00004AA0CA90AA8FFF7ADFDA00502D46FF078
:1019E0000100F8E614F0240F12D0E0071CD138688B
:1019F000DDE90A12031D3B600068C0E9001213E034
:101A000060F1040052F1040016F00400F1D8FFFF69
:101A10000AA968460AF0BCF8E00705D13868009AC0
:101A2000011D3960006802602846D4E62DE9FF4FA9
:101A30001F464FF03C0987B04FF00042DDE914101B
:101A400001F10108DDF858A002EA4050039000209F
:101A500005908346054604460490B969461E0898D9
:101A60008847AAF1010A0290BAF1000F3BDD029803
:101A70002E2815D01021FFF725FD00282EDB4FF072
:101A8000010B0599014317D0B9F1000F0BDB4A4652
:101A9000C11700F0F5F905430C43A9F1040905E06D
:101AA000012004900BE008B145F0010501200590EC
:101AB000049820B9361D02E0049800B1361FB969B8
:101AC000089808F101088847BBF1000FAAF1010A44
:101AD0000290C9D00999C1F80080C5E70298702822
:101AE00008D0502806D0F96908988847BBF1000F44
:101AF00014D04FE0002002900120BBF1000F0490B1
:101B000009D0B969089808F101088847AAF10109C4
:101B1000B9F1000F07DCF969089888476FF00100F8
:101B20000BB0BDE8F08F2B2804D02D280CD14FF03E
:101B3000FF300490B969089808F101088847A9F1B5
:101B40000109B9F1000FE6DD411CE4D00A21FFF7DD
:101B5000B9FC0028DFDB029908F1010801EB8101E3
:101B600000EB41000290B969089888470A21FFF705
:101B7000A9FC099AA9F10109B9F1000FC2F8008086
:101B800001DD0028E7DAF969089888470499029886
:101B900000FB016655EA040004D004F0404109004E
:101BA00002D006E0039898E0A40044EA9574AD00E2
:101BB000B61E04F00041080002D16D196441761E82
:101BC000159810F0240F03D04FF00B095C4803E088
:101BD0004FF028096FF07D008246564507DAAAEBE0
:101BE00006018944B9F1410F01DD4FF0410901209F
:101BF0000021A9F1010200F043F9024628400B46FA
:101C00002140084301D0012100E00021501E029133
:101C100043F1FF3128402140084301D0012000E07A
:101C200000200299834651EA0B014FD0002108465B
:101C30004FF00000039900F4400039B100EB800040
:101C40004FF4400100EBD07001EA600080150128DC
:101C500002DD4FF0FF3000E013D0401C36D0029878
:101C600060B3BBF1000F0CD14A460120002100F007
:101C700007F928402140084301D0012000E000205E
:101C8000E0B101204A46002100F0FAF8034640196D
:101C90000A4661412D1A8C4111D3B9F1400F09DD7B
:101CA000159810F0240F02D0AAF1340603E0AAF12F
:101CB000170600E0761C00254FF0004406E05B1E8E
:101CC00042F1FF3220EA030521EA0204CAF10100D1
:101CD000B04206DA1B4903980843019000200090A7
:101CE0000EE0039AC4F3D321E80A0A43164940EAF6
:101CF00044500A433146CDE90002684609F051FFDD
:101D0000159810F0240F0BD01598C00715D138681E
:101D1000DDE90012031D3B600068C0E900120CE021
:101D200002A8694609F034FF1598C00705D1386844
:101D3000029A011D3960006802604046F0E600002A
:101D400002FCFFFF0000F07F0000F03F2DE9FF4F95
:101D500092461D4685B04FF00041DDE9124BDDE9AA
:101D600014727F1E01EA4B50414940F0FF4940EA9E
:101D70000108002122F020004928049102D04E28B9
:101D800028D04CE03BA0012607C88DE80700A969D0
:101D90000698641C88477F1E014606D41DF806007D
:101DA00018B121F0200181420BD0E96906988847DB
:101DB000032E34D0082E32D06FF0010009B0BDE8F8
:101DC000F08F761C032E01D0082EE0D1601CCAF8DB
:101DD0000000DCE7A9690698641C88477F1E2AD4A6
:101DE00020F02000412826D1A9690698641C884764
:101DF0007F1E20D420F020004E281CD1A96906980F
:101E0000641C88477F1E48F4002849F48009CAF8FA
:101E1000004001D4282806D0E969069888475FEA7F
:101E2000CB7012D022E0A9690698641C88477F1EF7
:101E300001D4002803DAE96906988847BCE7292815
:101E4000F1D1641CCAF80040E9E71BF0240F07D069
:101E500028680499031D2B600068C0E9001805E09C
:101E60002868021D2A600068C0F800902046A5E797
:101E70000000F07F494E46494E4954590000000089
:101E8000B2F120030AD5C2F1200301FA02F120FACF
:101E900003F300FA02F041EA0301704700FA03F18C
:101EA0004FF0000070475FEA400C08BF91F0000F50
:101EB0004FEA8C234FEAC12243EA51514FEA1C50AA
:101EC00018BF00F5F0404FEA300018BF41F0004164
:101ED0005FEA6C5C00F02980BCF1FF3F08BF40F076
:101EE00080407047130C06BF12044FF0100C4FF0E7
:101EF000000C130E04BF12020CF1080C130F04BFE8
:101F000012010CF1040C930F04BF92000CF1020CAF
:101F1000D30F04BF52000CF1010C11464FF0000228
:101F2000A0F11F00A0EB0C00704711F0004F08BF9C
:101F3000704731F000413FF4D5AF0B0C06BF0904E8
:101F40004FF0100C4FF0000C0B0E04BF09020CF107
:101F5000080C0B0F04BF09010CF1040C8B0F04BF1C
:101F600089000CF1020CCB0F04BF49000CF1010CED
:101F7000CCF12003A0EB0C0022FA03F302FA0CF2DE
:101F800041EA030100F10100704720F07F4C80EA34
:101F9000030023F07F47ACEB070303F57C5300F00D
:101FA000004003F1FF032DE980494FEA154B09B4C6
:101FB0004FEA144325EA0B4E24EA03480FF20426A5
:101FC00006EB132749083E785FEA320203FB0667F7
:101FD000C7F5000707FB06F64FEA54374FEAD64627
:101FE00006F1020607FB066CCCF1005C4FEA1C47C9
:101FF0002CEA074C07FB06F40CFB06F504EB154630
:102000004FEA961634BF00204FF000404FEAD13718
:1020100006FB07FC4FEA1C4C0CFB0BF7D21B03FB27
:102020000CF761EB07010CFB0EF7B0EB074072EB0E
:1020300017420CFB08F734BFA2EB0742B2EB074292
:1020400061EB17414FEA0C444FEA910706FB07FC8E
:102050004FEA1C4C0CFB0BF7B0EBC74072EB57324E
:1020600003FB0CF734BFA2EBC742B2EBC74261EBF4
:1020700057310CFB0EF7B0EBC70072EB57720CFB3D
:1020800008F734BFA2EBC702B2EBC70261EB57718E
:10209000039F4FEA816141EA921104EBCC044FEABD
:1020A000D1374FEA826206FB07FC42EA90124FEA00
:1020B00080604FEA1C4C0CFB0BF7D21B03FB0CF7A8
:1020C00061EB07010CFB0EF7B0EB074072EB174218
:1020D0000CFB08F734BFA2EB0742B2EB074261EBFF
:1020E00017414FEA8C554FEA910704EB9C2406FBFD
:1020F00007FC4FEA1C4C0CFB0BF7B0EBC74072EB34
:10210000573203FB0CF734BFA2EBC742B2EBC74216
:1021100061EB57310CFB0EF7B0EBC70072EB577257
:102120000CFB08F734BFA2EBC702B2EBC70261EBAE
:10213000577115EB4C254FEA816141EA92114FEA44
:1021400082624FEAD13742EA901206FB07FC44F163
:1021500000044FEA80604FEA1C4C0CFB0BF7D21BCB
:1021600003FB0CF761EB07010CFB0EF7B0EB07402C
:1021700072EB17420CFB08F734BFA2EB0742B2EB3D
:10218000074261EB174115EB1C154FEA813141EA1B
:1021900092414FEA823242EA90424FEA80304FEA5F
:1021A0000C7644F1000448EA03434EEA0B484FF032
:1021B000000EB2EB080C71EB030724BF62463946F0
:1021C0004EEB0E0E4FF0000B0018524149414BEB05
:1021D0000B0BB2EB080C71EB03077BF1000B24BF78
:1021E000624639464EEB0E0E4FF0000B001852417E
:1021F00049414BEB0B0BB2EB080C71EB03077BF186
:10220000000B24BF624639464EEB0E0E51EA020720
:1022100018BF46F0010616EB0E7655F1000254F198
:10222000000103D5BDE88901BDE80088BDE889014A
:10223000BDE80048B619524141EB0101A3F1010389
:10224000704780807F7E7D7C7B7A79787776767523
:102250007473727171706F6E6E6D6C6C6B6A6A699B
:102260006868676666656464636362616160605F35
:102270005F5E5E5D5D5C5C5B5B5A5A5959585857AE
:102280005756565555555454535352525251515016
:1022900050504F4F4F4E4E4D4D4D4C4C4C4B4B4B69
:1022A0004A4A4A49494948484847474747464646AF
:1022B00045454544444444434343434242424241EA
:1022C0004141000046EA0646A3F570534FEA164620
:1022D00046EA42564FEAD22242EA415210B54FEA4C
:1022E000D121A3F1010300F02FF820F0004000F10C
:1022F000020C00F0004701EB00501146BCF5006FE6
:1023000040EA070000D210BDBAF1000F0AD01CB598
:1023100003B44FF004004FF004014FF000000FBC75
:10232000BDE810404FF00001BBF1010FB9BF0448F8
:102330004FF0FF310348002140EA070010BD00BF05
:10234000FFFFEF7F0000F07F002B9C4630D477002A
:102350002BD01CB54FEA370703B44FF010004FF0F5
:102360001001BAF1000F06D0BCF1000FDCBF40F045
:10237000080040F008014FF000000FBCBDE810401D
:102380000BF1010BBBF1010F08BF5FEA170722BF7A
:1023900012F1010211F101014FF0004143F100037C
:1023A00000F0004043EA00007047F9D35708D0E737
:1023B00046EA064613F1400F4FEA16461FDD13F1B9
:1023C000200FDFBF16430A46002120335B42BED0F8
:1023D000C3F1200746EA064602FA07F74FEA164617
:1023E00046EA0706C3F1200722FA03F201FA07F7CB
:1023F00021FA03F14FF0000342EA0702A7E746EA99
:10240000020646EA06464FEA164646EA0106BCBF01
:1024100046EA0646360C4FF000034FF000024FF03C
:10242000000194E72DE9804C9A46934670B491E8F8
:10243000380007C831EA400C48BF34EA430C03D5E2
:10244000FFF7A3FDFFF780FFF0BCBDE8008C2DE98E
:10245000804C9A46934670B491E8380007C831EA38
:10246000400C48BF34EA430C03D5FFF78EFDFFF75D
:1024700029FFF0BCBDE8008C2DE9804C9A469346BC
:1024800070B491E8380007C810F0804F08BF13F00F
:10249000804F03D100F01AF8FFF756FFF0BCBDE8FB
:1024A000008C2DE9804C9A46934670B491E8380030
:1024B00007C810F0804F08BF13F0804F03D100F021
:1024C00005F8FFF7FFFEF0BCBDE8008C20F07F4769
:1024D00080EA030023F07F4C07EB0C03A3F57C5349
:1024E00000F00040A3F1FE0392F0000F00F0B38073
:1024F00095F0000F00F077802DE901494FEA114077
:102500004FEA144621EA004800FB06FC24EA06478D
:1025100008FB06F607FB08F800FB07F718EB064870
:102520004CEB164C4FEA124B18EB07484FEA154696
:102530004CEB174022EA0B4E0BFB06FC25EA064744
:102540000EFB06F607FB0EFE0BFB07F71EEB064E17
:102550004CEB164C4FF000061EEB074E4CEB174BA6
:1025600018EB0B0840F1000018EB0E0B58EB0008BD
:1025700040F100008F1A4FF000013CBFC943661BB9
:1025800014BFB5EB040C00213CBFC943F61B4FEA56
:1025900017444EEA8E0E27EA04454FEA1C4704FB17
:1025A00007622CEA074C05FB07F70CFB05F604FB5A
:1025B0000CFC16EB074642EB174216EB0C4642EBBF
:1025C0001C421BEB060658EB0202414146EA9E06FE
:1025D00001D5BDE80189B619524141EB0101A3F1D2
:1025E0000103BDE801894FEA14454FEA114724EA87
:1025F000054621EA074C05FB07F406FB07F70CFB31
:1026000006F105FB0CFC11EB074144EB17444FEAC4
:10261000124711EB0C4144EB1C4422EA074C05FB2A
:1026200007F206FB07F70CFB06F605FB0CFC16EBA6
:10263000074642EB174216EB0C4642EB1C456A1864
:1026400054F1000148BF7047B619524141EB0101F6
:10265000A3F10103704795F0000F37D04FEA114204
:102660004FEA144721EA024624EA074C02FB07F12D
:1026700006FB07F70CFB06F402FB0CFC14EB07440B
:1026800041EB17414FEA154714EB0C4441EB1C4159
:1026900025EA074C02FB07F506FB07F70CFB06F6DD
:1026A00002FB0CFC16EB074645EB174516EB0C46F8
:1026B00045EB1C42121951F1000148BF7047B61991
:1026C000524141EB0101A3F1010370474FEA144568
:1026D0004FEA114724EA054621EA074C05FB07F1BA
:1026E00006FB07F70CFB06F24FF0000605FB0CFC9F
:1026F00012EB074241EB174112EB0C4251EB1C412C
:1027000048BF7047921841EB0101A3F101037047E4
:1027100010B503F017F910BD70B506460C46154606
:1027200008E03046721C96B200F007F804F8010B7E
:10273000681E85B2002DF4D170BD70B50446002628
:1027400003F0C0F92546E11704EB11610912A0223C
:1027500002EB4101C8B203F081F903F0FFF9E11780
:1027600004EB11610912A4EB0121C8B203F076F960
:1027700003F0F4F903F0A6F9A12003F06FF903F0D8
:10278000EDF9002003F034F9064603F0C1F93046B4
:1027900070BD70B505460C46164606E02178284601
:1027A00000F009F8681C85B2641C301EA6F1010116
:1027B0008EB2F3D170BD70B504460E4603F082F9B7
:1027C0002546E11704EB11610912A02202EB410139
:1027D000C8B203F043F903F0C1F9E11704EB11614A
:1027E0000912A4EB0121C8B203F038F903F0B6F9DD
:1027F000304603F033F903F0B1F903F089F90A2008
:102800000EF048FF70BD00BFFEE710B502200EF0CD
:102810004DFF10BD10B500200A490860FFF7F5FF15
:1028200001200949C1F89802FFF7EFFF002007498E
:102830000860FFF7EAFF01200549C1F88C02FFF7A5
:10284000E4FF10BD8C024442008043429882434220
:102850000000444200B587B000BF002001901B4833
:10286000006840F08000194908600846006800F0E0
:102870008000019000BF00BF00BF0020019008460B
:10288000006840F4807008600846006800F48070BA
:10289000019000BF00BF4020029011200390012052
:1028A00004900320059002A9094801F04BFA082082
:1028B000029002A9074801F045FA01200649086084
:1028C0000649C1F8980207B000BD00003038024048
:1028D000001C0240002002408C024442008043421F
:1028E00010B5012007490860FFF78FFF0120064956
:1028F000C1F89802FFF789FF002004490860FFF73C
:1029000084FF10BD8C0244420080434298824342BF
:1029100070B505460024002613E06006040E012071
:102920000D490860FFF771FF0C48D0F80C0208B1A0
:10293000601CC4B2002008490860FFF766FF701CE5
:10294000C6B2082EE9DB15B9FFF7CAFF01E0FFF7B1
:1029500061FF204670BD000098824342000044425F
:1029600070B50446002511E0E0090B490860FFF747
:102970004CFF01200949C1F89802FFF746FF0020EB
:10298000074908606006040E681CC5B2082DEBDB21
:1029900001200149086070BD8C024442008043421E
:1029A0009882434210B50120094908600949C1F8DD
:1029B0009802FFF72AFF002005490860FFF725FF6E
:1029C00000200449C1F89802FFF71FFF10BD000066
:1029D0008C0244420080434210B500200749086041
:1029E000FFF713FF01200649C1F89802FFF70DFF1A
:1029F000012002490860FFF708FF10BD8C02444225
:102A00000080434270B50024002501201049086071
:102A1000FFF7FBFE01200F49C1F89802FFF7F5FE12
:102A200009E0601CC4B2FA2C03DDFFF7D5FF0125D5
:102A300006E0FFF7EAFE0648803800680028F0D17B
:102A400000BF002004490860FFF7DFFE284670BD84
:102A50008C02444200804342988243427047000007
:102A600070B504461D460023B5F5804F13D154F8C8
:102A700022300C480340D1E9000640EA06108E6877
:102A800040EA06208E8940EA06408E6930430343BF
:102A900044F8223003E06FF0704044F82200002038
:102AA00070BD00000000F0CF10B50246002308689A
:102AB00052F820301B480340D1E901042043CC6880
:102AC00020430C6920434C6920438C692043CC6926
:102AD00020430C6A20434C6A20438C6A2043CC6A12
:102AE0002043CC6B20430C6B20434C6B20430343AF
:102AF0008868082801D143F04003086842F8203074
:102B0000486BB0F5801F0AD1086840B14FF480705F
:102B100008614C6B08692043146820431060002052
:102B200010BD00008000E0FF30B5034614460022CF
:102B3000601C53F8202002F04042D1E9000540EA31
:102B400005108D6840EA05208D8940EA0545088A10
:102B5000401E45EA0055087D801E45EA00608D69EB
:102B600028430243601C43F82020186800F48010BA
:102B700038B1586820F47002088A401E42EA0052B8
:102B80005A60002030BD30B502460023002408689A
:102B9000012816D013686FF30E03D1E9010528430D
:102BA000CD6828430D6928434D6928438D69284322
:102BB000CD6928430D6A28434D6A284303431360B7
:102BC00019E013686FF30E03D1E9070528434D6A36
:102BD0002843034354686FF30E04D1E901052843E9
:102BE000CD6828430D6928434D6928438D692843E2
:102BF000044313605460002030BD0246506940EA2F
:102C00004100506100207047F8B506460C46154655
:102C1000002000900027D4E900010843A168491E64
:102C200040EA4110E16840EA41200090009830619C
:102C300001F0A8F9074609E0681C38B125B101F098
:102C4000A1F9C01BA84201D90320F8BDB06900F06A
:102C500020000028F0D100BFF7E770B50346154605
:102C600000220024012D1FD09A6802F070420868EB
:102C7000401E4E68761E40EA06168868401E46EAE8
:102C80000026C868401E46EA0036088A401E46EA0A
:102C90000046888A401E46EA0056087E401E46EAE4
:102CA000006002439A6022E0DA6802F0704208682D
:102CB000401E4E68761E40EA06168868401E46EAA8
:102CC0000026088A401E46EA0046087E401E46EA64
:102CD000006002439C6804F07044C868401E06030C
:102CE000888A401E46EA00500443DA609C60002057
:102CF00070BD000010B588B0012400BF0020009016
:102D00005548006840F08000534908600846006854
:102D100000F08000009000BF00BF00BF00200090C6
:102D20000846006840F4807008600846006800F4B7
:102D30008070009000BF00BF8020019000200290B2
:102D4000012003900320049001A9444800F0FAFFF9
:102D5000200201900120029001A9414800F0F2FFF9
:102D6000FFF778FD00203F49086014200EF092FC28
:102D700001203D49C1F8A00232200EF08BFC00205A
:102D80008DF81800022206A9A12000F07DF89DF818
:102D90001800302803D19DF81900032807D09DF8AA
:102DA0001900012803D09DF81900022824D19DF8AC
:102DB00019009DF8182000EB02212CA0FDF782FBE2
:102DC000012206A9002000F03FFA012206A9A42052
:102DD00000F03AFA16208DF81800012206A980208A
:102DE00000F032FA0C208DF81800012206A9882084
:102DF00000F02AFA00242BE0042206A948F2401031
:102E000000F01CFB00208DF81C0006A91AA0FDF79D
:102E100059FB1C480699016002208DF81800012218
:102E200006A948F2400000F017FD012206A948F269
:102E3000470000F003FB0A200EF02CFC00208DF868
:102E40001800012206A948F2400000F005FD002408
:102E5000204608B010BD000030380240001C02407F
:102E600000200240A002444200004442435450204B
:102E700049443A25780D0A004354502049443A25E4
:102E8000730D0A00440000202DE9F04106460F466C
:102E90001546FFF787FD7020FFF762FDFFF7B2FDD3
:102EA000F0B2FFF75DFDFFF7ADFDFFF77BFD712091
:102EB000FFF756FDFFF7A6FD00240BE0691EA142B7
:102EC00001D0012100E000210846FFF721FD38551F
:102ED000601CC4B2AC42F1DBFFF77EFDBDE8F081BF
:102EE00071B583B0002001900026CF480078401CC7
:102EF000CD490870084600780A2190FBF1F201FBE9
:102F0000120018B1C84800780A287DDAC7A1C8485D
:102F1000FDF7B4FDD8B9012203A948F24E1000F024
:102F20008DFA9DF80C0000F08000A8B19DF80C000F
:102F300000F00F00BF49097888420DDC00200190A5
:102F4000012201A948F24E1000F086FC04E00122A3
:102F500003A90220FFF798FF9DF80C0000F00F0076
:102F6000002851D09DF80C0000F00F00B1490978FD
:102F7000884249DC9DF80C0000F00F01FF208840DA
:102F8000C4B2AD48858EE04380B240F0C000AA498B
:102F9000888608468289A7480078401E0C3121F8AF
:102FA0001020A548028CA3480078401E143121F857
:102FB000102004200EF06EFB00200190AAE09E4835
:102FC000808E9DF8042001219140084000282FD0D8
:102FD00096A19748FDF752FDE8BB98499DF804205B
:102FE00031F81200042202A900F028FA924890F861
:102FF000440000F00100E0B19DF808009DF80910C0
:1030000000EB012081B200E0C2E08B480C309DF85B
:10301000042020F812109DF80A009DF80B1000EB18
:10302000012081B2844820309DF8042020F812103D
:103030006BE09DF808009DF8091000EB012081B2BB
:103040007D4820309DF8042020F812109DF80A00D9
:103050009DF80B1000E00CE000EB01207849098896
:10306000081A81B274480C309DF8042020F8121020
:103070004BE074499DF8042031F81200042202A9A3
:10308000FFF702FF6C4890F8440000F00100E0B147
:103090009DF809009DF8081001F00F0100EB0120D8
:1030A000654920319DF8042021F812009DF80B009D
:1030B0009DF80A1001F00F0100EB01205E490C3170
:1030C0009DF8042021F812001FE09DF809009DF8EA
:1030D000081001F00F0100EB012059490988081A76
:1030E00081B255480C309DF8042020F812109DF84C
:1030F0000B009DF80A1001F00F0100EB01204E4972
:1031000020319DF8042021F812009DF80400401C95
:10311000C0B201909DF80400464909788842FFF644
:103120004EAF01264448808945490988884205DC1C
:103130004148008C42494988884226DD9DF80C00B0
:1031400000F00F0001280ADD3B48C0893A49888118
:103150000846408C088400203349087018E0354840
:103160000078401E34490C3131F810000C39888148
:1031700030480078401E203131F810002039088492
:10318000802003900846858602E0002026490870CA
:1031900026A12748FDF772FCF0B99DF80C0000F05D
:1031A0008F00802835D1244890F8340000F080004A
:1031B00030B12148808E20F080001F49888628E0A9
:1031C0004FF6FF701C4988810884084690F8340047
:1031D00000F0E00088861CE09DF80C0000F01F0065
:1031E000B8B9154890F8340000F0800030B11248AA
:1031F000808E20F08000104988860AE04FF6FF702C
:103200000D4988810884084690F8340000F0E000F9
:10321000888605480078F02802DD0A2002490870F7
:10322000304604B070BD00004A0000203931310042
:10323000440000204900002050000020567F040870
:10324000C00800204C7F04082DE9F04105460E46D9
:1032500017464FF00008FFF7A5FB7020FFF780FB33
:10326000FFF7D0FBE8B2FFF77BFBFFF7CBFB0024B7
:103270000BE0305DFFF774FBFFF7C4FB8046B8F14D
:10328000000F00D003E0601CC4B2BC42F1DB00BF01
:10329000FFF7A2FB4046BDE8F081000000B589B011
:1032A00000BF002001905148006840F080004F4965
:1032B00008600846006800F08000019000BF00BF71
:1032C00000BF002001900846006840F4807008604C
:1032D0000846006800F48070019000BF00BF8020A5
:1032E000029000200390012004900320059002A981
:1032F0003F4800F027FD4FF48070029001200390BA
:1033000002A93C4800F01EFDFFF7A4FA00203A494C
:1033100008600A200EF0BEF901203849C1F8A00269
:103320000A200EF0B7F9802002900020039004904C
:103330000320059002A92E4800F004FD64200EF041
:10334000A9F9042207A948F2401000F077F80020FC
:103350008DF8200007A92AA0FDF7B4F82BA107A833
:10336000FDF78CFB88B12AA107A8FDF787FB60B1A8
:1033700029A107A8FDF782FB38B129A107A8FDF70D
:103380007DFB10B1012009B000BD21A107A8FDF708
:1033900075FB40BB02208DF81C00012207A948F2F2
:1033A000400000F059FA012207A948F2470000F056
:1033B00045F89DF81C00602807DA9DF81C101AA03B
:1033C000FDF780F8012000F019FA0A200EF062F9EA
:1033D00000208DF81C00012207A948F2400000F0EF
:1033E0003BFA0020CFE70020CDE700003038024054
:1033F000001C024000200240A0024442000044425F
:103400004354502049443A25730D0A0039313100A4
:103410003931343700000000313135380000000008
:10342000393237310000000044656661756C7420E4
:103430005665723A25640D0A000000002DE9F0413E
:1034400005460F461646FFF7ADFA2820FFF788FA23
:10345000FFF7D8FA2812FFF783FAFFF7D3FAE8B29A
:10346000FFF77EFAFFF7CEFAFFF79CFA2920FFF765
:1034700077FAFFF7C7FA00240BE0711EA14201D0D2
:10348000012100E000210846FFF742FA3855601C90
:10349000C4B2B442F1DBFFF79FFABDE8F08100004F
:1034A00071B583B000240026D0480078401CCF4975
:1034B0000870084600780A2190FBF1F201FB120027
:1034C00018B1CA4800780A2871DA012203A948F223
:1034D0004E10FFF7B3FF9DF80C0000F0800068B1BC
:1034E0009DF80C0000F00F00062807DA002001907C
:1034F000012201A948F24E1000F0AEF99DF80C002F
:1035000000F00F00002852D09DF80C0000F00F00D2
:103510000628D9DA9DF80C0000F00F01FF20884042
:10352000C0B20190B24890F834509DF80400C043F6
:1035300080B240F0C000AE49888608468189818209
:10354000018C01850024F9E0A948808E0121A14069
:10355000084000282AD0A74931F81400042202A903
:10356000FFF76CFFA448808845F21051884236D19D
:103570009F4890F8440000F00100C8B19DF8080091
:103580009DF8091000EB012081B29948203020F805
:1035900014109DF80A009DF80B1000EB0120C0F5F7
:1035A000487081B292480C3020F81410C4E0F5E065
:1035B0009DF808009DF8091000EB012081B28C48AD
:1035C0000C3020F814109DF80A009DF80B1000EB49
:1035D000012081B28648203020F81410ACE08648E3
:1035E000808844F24231884235D1814890F84400C5
:1035F00000F00100B0B19DF808009DF8091000EB43
:10360000012081B27A480C3020F814109DF80A008D
:103610009DF80B1000EB012081B27548203020F896
:10362000141089E09DF808009DF8091000EB0120B6
:1036300081B26F48203020F814109DF80A009DF8E0
:103640000B1000EB0120C0F5887081B268480C3087
:1036500020F8141070E06848808844F28431884271
:1036600035D1634890F8440000F00100B0B19DF8F6
:1036700008009DF8091000EB012081B25C480C3075
:1036800020F814109DF80A009DF80B1000EB0120A3
:1036900081B25748203020F814104DE09DF8080002
:1036A0009DF8091000EB012081B25148203020F82C
:1036B00014109DF80A009DF80B1000EB0120C0F5D6
:1036C000F07081B24A480C3020F8141034E04848B9
:1036D00090F8440000F00100C0B19DF808009DF88A
:1036E000091000EB012081B24148203020F814106D
:1036F0009DF80A009DF80B1000EB0120C0F5487002
:1037000081B23B480C3020F8141015E09DF80800F9
:103710009DF8091000EB012081B235480C3020F8EB
:1037200014109DF80A009DF80B1000EB012081B2E7
:103730002F48203020F81410601CC4B2052CFFF66E
:1037400003AF01262A4880892B490988884205DC75
:103750002748008C2849498888421CDD9DF80C00C8
:1037600000F00F0001280ADD2148C0892049888126
:103770000846408C088400201C4908700EE01C4854
:10378000808A1B4988810846008D08848020039028
:103790000846858602E00020144908709DF80C0058
:1037A00000F08F00802817D1114890F8340000F005
:1037B000800030B10E48808E20F080000C49888651
:1037C0000AE04FF6FF700A4988810884084690F89D
:1037D000340000F0E000888604480078F02802DD1C
:1037E0000A2002490870304604B070BD4B0000202A
:1037F0005000002018800408C008002038B5054695
:10380000002400208DF800008DF8015000BF09E071
:103810009DF800000F49095D0844C0B28DF8000012
:10382000601CC4B2B82CF3D39DF80000C043401C08
:10383000C0B28DF80000B822064948F2470000F0F7
:103840000BF80222694648F2FF0000F005F800205C
:1038500038BD0000607F04082DE9F04104460E46A3
:1038600017464FF00008FFF79DF82820FFF778F87B
:10387000FFF7C8F82012FFF773F8FFF7C3F8E0B2BC
:10388000FFF76EF8FFF7BEF800250BE0705DFFF75D
:1038900067F8FFF7B7F88046B8F1000F00D003E0F3
:1038A000681CC5B2BD42F1DB00BFFFF795F840468A
:1038B000BDE8F08100B589B000BF00200190484804
:1038C000006840F08000464908600846006800F043
:1038D0008000019000BF00BF00BF0020019008469B
:1038E000006840F4807008600846006800F480704A
:1038F000019000BF00BF80200290002003900120B3
:1039000004900320059002A9364800F01BFA4FF4FA
:10391000807002900120039002A9334800F012FA4F
:10392000FEF798FF00224FF480712F4800F024FB2F
:103930000A200DF0AFFE012211022B4800F01CFB03
:103940000A200DF0A7FE8020029000200390049032
:103950000320059002A9234800F0F4F964200DF03B
:1039600099FE042207A948F2401000F055F8002003
:103970008DF8200007A91DA0FCF7A4FD1FA107A832
:10398000FDF77CF848BB02208DF81C00012207A936
:1039900048F24000FFF760FF012207A948F2470004
:1039A000FFF74CFD9DF81C00412807DA9DF81C101C
:1039B00014A0FCF787FD012000F068F90A200DF043
:1039C00069FE00208DF81C00012207A948F2400082
:1039D000FFF742FF002009B000BD0120FBE7000017
:1039E00030380240001C0240002002404354502066
:1039F00049443A25730D0A0D0A0000003932373167
:103A00000000000044656661756C74205665723A6A
:103A100025640D0A000000002DE9F04105460F461F
:103A20001646FEF7BFFF2820FEF79AFFFEF7EAFFD3
:103A30002812FEF795FFFEF7E5FFE8B2FEF790FFCC
:103A4000FEF7E0FFFEF7AEFF2920FEF789FFFEF745
:103A5000D9FF00240BE0711EA14201D0012100E03A
:103A600000210846FEF754FF3855601CC4B2B4422A
:103A7000F1DBFEF7B1FFBDE8F081000071B583B066
:103A80000020019000267D480078401C7B4908708A
:103A9000084600780A2190FBF1F201FB120018B1F0
:103AA000764800780A286EDA012203A948F24E10FF
:103AB000FFF7B2FF9DF80C0000F0800068B19DF8A0
:103AC0000C0000F00F000B2807DA00200190012203
:103AD00001A948F24E1000F007F99DF80C0000F023
:103AE0000F0000284FD09DF80C0000F00F000B28AD
:103AF000D9DA9DF80C0000F00F014FF6FF708840F6
:103B000084B25F48858EE04380B240F0C0005C49DB
:103B1000888608468189C183018C418600200190F6
:103B200053E05748808E9DF80420012191400840C1
:103B300040B354499DF8042031F81200062202A92E
:103B4000FFF76AFF4E4890F8440000F00100D8B13A
:103B50009DF80A009DF80B1000EB012081B2484847
:103B600020309DF8042020F812109DF808009DF8E0
:103B7000091000EB012081B241480C309DF804206F
:103B800020F812101CE051E09DF80A009DF80B107F
:103B900000EB0120C0F5487081B239480C309DF827
:103BA000042020F812109DF808009DF8091000EB81
:103BB000012081B2324820309DF8042020F81210F4
:103BC0009DF80400401CC0B201909DF804000A2832
:103BD000A7DB01262A4880892B490988884205DC11
:103BE0002748008C2849498888421CDD9DF80C0034
:103BF00000F00F0001280ADD2148C0892049888192
:103C00000846408C088400201C4908700EE01C48BF
:103C1000C08B1B4988810846408E08848020039011
:103C20000846858602E00020144908709DF80C00C3
:103C300000F08F00802816D1114890F8340000F071
:103C4000800030B10E48808E20F080000C498886BC
:103C500009E04FF6FF700A49888108840846808E83
:103C600000F46040888605480078F02802DD0A20CC
:103C700002490870304604B070BD00004C000020BE
:103C800050000020DC800408C008002038B505463C
:103C9000002400208DF800008DF8015000BF09E0DD
:103CA0009DF800000F49095D0844C0B28DF800007E
:103CB000601CC4B2B82CF3D39DF80000C043401C74
:103CC000C0B28DF80000BA22064948F2470000F061
:103CD0000BF80222694648F2FF0000F005F80020C8
:103CE00038BD0000228004082DE9F04104460E464C
:103CF00017464FF00008FEF755FE2820FEF730FE6D
:103D0000FEF780FE2012FEF72BFEFEF77BFEE0B2F0
:103D1000FEF726FEFEF776FE00250BE0705DFEF74F
:103D20001FFEFEF76FFE8046B8F1000F00D003E0E3
:103D3000681CC5B2BD42F1DB00BFFEF74DFE404638
:103D4000BDE8F081F8B502460B46002500240020AE
:103D50000021E6E0012606FA01F51E6806EA0504E0
:103D6000AC4273D15E68022E02D05E68122E13D16F
:103D7000CF0802F1200656F827004E07F70E0F264F
:103D8000BE40B0434F07FF0E1E69BE403043CF0810
:103D900002F1200646F8270010684F000326BE40B7
:103DA000B0431E7906F003064F00BE40304310605A
:103DB0005E68012E08D05E68022E05D05E68112E66
:103DC00002D05E68122E13D190684F000326BE40C9
:103DD000B0434F00DE68BE4030439060506801261B
:103DE0008E40B0431E79C6F300168E4030435060BB
:103DF000D0684F000326BE40B0434F009E68BE40CF
:103E00003043D0605E6806F08056B6F1805FA8D17E
:103E100000BF00260096454E366846F48046434F64
:103E20003E603E46366806F48046009600BF00BFFE
:103E30003F4E8F0856F827008E07370F0F26BE40DB
:103E4000B0433C4EB24202D100262EE068E03A4E2A
:103E5000B24201D1012628E0384EB24201D10226F9
:103E600023E0374EB24201D103261EE0354EB24266
:103E700001D1042619E0344EB24201D1052614E0E6
:103E8000324EB24201D106260FE0314EB24201D18C
:103E900007260AE02F4EB24201D1082605E02E4E39
:103EA000B24201D1092600E00A268F073F0FBE402B
:103EB00030431F4E8F0846F82700284E3068A04335
:103EC0005E6806F48036B6F5803F00D12043234E6D
:103ED0003060361D3068A0435E6806F40036B6F5E3
:103EE000003F00D120431D4E361D3060361D306826
:103EF000A0435E6806F48016B6F5801F00D120430B
:103F0000164E08363060361D3068A0435E6806F4F1
:103F10000016B6F5001F00D12043104E0C3630605D
:103F2000491C1029FFF416AFF8BD000044380240C8
:103F3000083801400000024000040240000802402E
:103F4000000C024000100240001402400018024021
:103F5000001C02400020024000240240003C0140BE
:103F6000024613690B400BB1012000E000207047AE
:103F700042694A40426170470AB1816101E00B0425
:103F800083617047014800687047000024000020EA
:103F900002480068401C0149086070472400002066
:103FA00010B50D48006840F400700B4908600846E1
:103FB000006840F4806008600846006840F4807043
:103FC0000860052000F04EFA0F2000F007F800F01E
:103FD000F9F9002010BD0000003C024070B5044615
:103FE00000F0B2FD4FF47A71B0FBF1F5284601F014
:103FF000CFF900222146501E00F0F6F9002070BDD6
:1040000070B504460E46154600BF94F8A00001287E
:1040100001D1022070BD012084F8A00000BF022061
:1040200084F8A10005EB850101EBC50204F138011C
:1040300001EB820034223146FCF771FC2A463146FE
:10404000204605F0B5FD01202168486284F8A100F2
:1040500000BF002084F8A00000BF00BFDAE7000026
:1040600070B50446002500260CB9012070BD94F8F7
:10407000A10028B9002084F8A000204600F084F8B0
:10408000022084F8A1002068806920F07040216837
:104090008861D4E901010843E168084321690843C4
:1040A00021688969084321688861206880683549EA
:1040B000084021688860A08A050420688068A1699A
:1040C00029430843216888602068C0682D4908405A
:1040D0002168C860A08B05042068C068216A294354
:1040E00008432168C86020680069264908402168A3
:1040F0000861A08C050420680069A16A294308436F
:1041000021680861206840691E49084021684861AB
:10411000A08D050420684069216B2943084321686C
:10412000486194F83500050294F8360006042068CA
:10413000C06A00F07F402168C86246EA050094F832
:10414000341008432168C96A08432168C86220689E
:10415000406B40F00400216848632068406B40F0E9
:104160000200216848632068806940F001002168EE
:1041700088610020C4F8A400012084F8A100002078
:1041800074E7000000F800F010B586B0044600BFE8
:10419000002000904D48006840F080604B49086066
:1041A0000846006800F08060009000BF00BF00BFBC
:1041B0000020009045481438006840F4000043494E
:1041C000143908600846006800F40000009000BF41
:1041D00000BF00BF002000900846006840F00200C9
:1041E00008600846006800F00200009000BF00BFB1
:1041F00000BF002000900846006840F020000860E2
:104200000846006800F02000009000BF00BF00BF1B
:10421000002000900846006840F040000860084612
:10422000006800F04000009000BF00BF00BF002009
:1042300000900846006840F080000860084600686A
:1042400000F08000009000BF00BF00BF0020009081
:104250000846006840F4807008600846006800F472
:104260008070009000BF00BF2020019001200290CC
:1042700003900320049001A91548FFF763FD4FF454
:10428000806001900220029000200390032004909F
:104290000E20059001A90F48FFF754FD4FF40C6064
:1042A000019001A90C48FFF74DFD4FF47E400190AD
:1042B00001A90A48FFF746FD40F2F760019001A905
:1042C0000748FFF73FFD06B010BD0000443802402C
:1042D000000402400014024000180240001C02408A
:1042E000002002402DE9F04104460E46174698464C
:1042F00000BF94F8A000012802D10220BDE8F0819F
:10430000012084F8A00000BF022084F8A10008EB7F
:10431000880000EBC80104F1380000EB81052E6035
:10432000A86A30446860AF60E86A3844E860424692
:104330002946204605F03CFC01202168486284F8AB
:10434000A10000BF002084F8A00000BF00BFD5E797
:104350002DE9F04105460E461746984600BF95F8F0
:10436000A000012802D10220BDE8F081012085F8DB
:10437000A00000BF022085F8A10008EB880000EB38
:10438000C80105F1380000EB81040020206020689E
:10439000304460600020A060A0683844E060A662FD
:1043A000E76242462146284605F002FC01202968C2
:1043B000486285F8A10000BF002085F8A00000BF7A
:1043C00000BFD1E708B50020009000BF08BD00BFC6
:1043D00000F01F02012191404209920002F1E02207
:1043E000C2F8001100BF70472DE9F05F80460D460E
:1043F0001646002705F0E8FC074639462A463346AC
:1044000001F00700C0F1070ABAF1040F02D94FF01A
:10441000040A01E0C0F1070AD14600F1040ABAF12A
:10442000070F02D24FF0000A01E0A0F1030AD446C0
:104430004FF0010A0AFA09FAAAF1010A0AEA020A85
:104440000AFA0CFA4FF0010B0BFA0CFBABF1010B63
:104450000BEA030B4AEA0B042146404605F0BCFC7C
:10446000BDE8F09F00BF00F00702064B19684FF649
:10447000FF031940044B0B4343EA0221014B19602F
:1044800000BF70470CED00E00000FA0538B50024CD
:1044900000BF002000902348006840F08050214970
:1044A00008600846006800F08050009000BF00BF20
:1044B0000120010491FAA1F1B1FA81F11A4A42F8FE
:1044C0002100FFF75FFD044607E0FFF75BFD001BDF
:1044D000B0F57A7F01D9032038BD1448406800F454
:1044E0008030B0F5803FF0D10120410491FAA1F174
:1044F000B1FA81F10C4A42F82100FFF743FD04466E
:1045000007E0FFF73FFD001BB0F57A7F01D90320DC
:10451000E2E70648406800F40030B0F5003FF0D113
:104520000020D9E74038024000000E4200700040F1
:10453000F8B5044600250026207800F0010020B9D7
:10454000207800F00200022866D10020CC4988665D
:10455000FFF718FD054606E0FFF714FD401B642831
:1045600001D90320F8BDC7480068C0F3C060002827
:10457000F2D1207800F0010098B147F6C07191FAAD
:10458000A1F1B1FA81F1606888404FF0E04292FAFF
:10459000A2F2B2FA82F2A16891400843B94984318B
:1045A0000860207800F00200022821D1B54884304C
:1045B000006800F0E0404FF0E04191FAA1F1B1FA5B
:1045C00081F120FA01F660688101207B41EA0060F8
:1045D00040EA0670AB4984310860AA488C30006814
:1045E00020F01F00E169491E0843A6498C3108608C
:1045F0000120A3498866FFF7C5FC054606E0FFF7E2
:10460000C1FC401B642801D90320ABE79D4800682A
:10461000C0F3C0600028F2D0207800F00400042825
:1046200004D0207800F0080008287DD100209449AB
:104630000867FFF7A7FC054606E0FFF7A3FC401B51
:10464000642801D903208DE78E480068C0F34070CC
:104650000028F2D1207800F00400042834D18948E1
:104660008830006800F0E0404FF0E04191FAA1F19D
:10467000B1FA81F120FA01F647F6C07191FAA1F181
:10468000B1FA81F1206988404FF0706292FAA2F28B
:10469000B2FA82F26169914008434FF0E04191FA29
:1046A000A1F1B1FA81F106FA01F1084375498831A7
:1046B0000860081D006820F4F851206A401E41EA95
:1046C000002070498C310860207800F0080008282C
:1046D00034D16C488830006800F070604FF0706131
:1046E00091FAA1F1B1FA81F120FA01F647F6C07111
:1046F00091FAA1F1B1FA81F1206988404FF070611F
:1047000091FAA1F1B1FA81F106FA01F108434FF0F3
:10471000E04292FAA2F2B2FA82F2A1699140084311
:1047200058498831086000E01CE0081D006820F44A
:104730004030616A084353498C3108600120504978
:104740000867FFF71FFC054606E0FFF71BFC401B50
:10475000642801D9032005E74A480068C0F3407087
:104760000028F2D0207800F0200020287DD100BF62
:104770000020009043484030006840F0805041499C
:10478000403108600846006800F08050009000BF8B
:1047900000BF3D48006840F480703B490860FFF767
:1047A000F1FB054606E0FFF7EDFB401B642801D94D
:1047B0000320D7E63448006800F480700028F2D067
:1047C00030487030006800F44070218D01F4407171
:1047D00088424AD02B487030006820F4407601208F
:1047E0002A4908600020086026487030066006F0FC
:1047F000020098B1FFF7C6FB054608E0FFF7C2FBD1
:10480000401B41F28831884201D90320AAE61D48A5
:1048100070300068C0F340000028EFD000BF208D4A
:1048200000F44070B0F5407F0CD1164808300068A5
:1048300020F4F810164AA16A1140084311490831C2
:10484000086007E00F480830006820F4F8100D49B0
:10485000083108600B4870300068218DC1F30B01EE
:10486000084308497031086000BF207800F010004C
:10487000102803D194F82C0006490860002071E646
:10488000000047420038024000700040400E47429E
:10489000FFFCFF0FE011474270B504460E460025AD
:1048A000A748006800F00F00B0426FD2A4490E7014
:1048B0000846006800F00F00B04201D0012070BD32
:1048C000207800F00200022807D19E48006820F0FE
:1048D000F000A16808439B490860207800F00100BF
:1048E00000283ED06068012807D196480838006843
:1048F000C0F34040B8B90120E1E76068022802D067
:104900006068032807D18F4808380068C0F340600A
:1049100048B90120D3E78B4808380068C0F340004D
:1049200008B90120CBE78748006820F003006168E0
:10493000084384490860FFF725FB054660680128A5
:1049400010D108E0FFF71EFB401B41F2883188427E
:1049500001D90320B3E77B48006800F00C0004286D
:10496000F0D1CDE06068022811D108E0FFF70AFB22
:10497000401B41F28831884201D903209FE77148EA
:10498000006800F00C000828F0D1B9E024E060686D
:10499000032810D108E0FFF7F5FA401B41F28831F7
:1049A000884201D903208AE76648006800F00C00BD
:1049B0000328F0D1A4E008E0FFF7E4FA401B41F23D
:1049C0008831884201D9032079E75E48006800F009
:1049D0000C000028F0D193E0207800F002000228BB
:1049E00007D15848006820F0F000A16808435549F5
:1049F0000860207800F00100002877D06068012866
:104A000007D1504808380068C0F34040B8B90120C9
:104A100055E76068022802D06068032807D149483A
:104A200008380068C0F3406048B9012047E74548AE
:104A300008380068C0F3400008B901203FE741484A
:104A4000006820F00300616808433E490860FFF7F2
:104A500099FA05466068012810D108E0FFF792FA3C
:104A6000401B41F28831884201D9032027E73548AD
:104A7000006800F00C000428F0D137E060680228DC
:104A800010D108E0FFF77EFA401B41F288318842DE
:104A900001D9032013E72B48006800F00C00082818
:104AA000F0D123E06068032810D108E0FFF76AFA2C
:104AB000401B41F28831884201D90320FFE621489A
:104AC000006800F00C000328F0D10FE008E0FFF7C9
:104AD00059FA401B41F28831884201D90320EEE6A1
:104AE0001848006800F00C000028F0D114490E703E
:104AF0000846006800F00F00B04201D00120DEE659
:104B0000207800F00400042807D10E48006820F443
:104B1000E050E16808430B490860207800F0080085
:104B2000082808D10748006820F46040216940EA5D
:104B3000C100044908600F20FFF750FA0020BEE6CC
:104B4000003C02400838024010B500F045F8094921
:104B5000096801F0F001F02292FAA2F2B2FA82F2B0
:104B6000D140054A515CC8400449086008460068C5
:104B700010BD000008380240FC3704080000002087
:104B800010B5FFF7E1FF0749096801F4E0514FF460
:104B9000E05292FAA2F2B2FA82F2D140024A515C99
:104BA000C84010BD08380240FC37040810B5FFF7B4
:104BB000CBFF0749096801F460414FF4604292FA63
:104BC000A2F2B2FA82F2D140024A515CC84010BD52
:104BD00008380240FC37040870B500210022002389
:104BE0000020274C246804F00C0424B1042C04D0C9
:104BF000082C41D103E0234840E023483EE0204C0C
:104C0000241F246804F03F011D4C241F246804F471
:104C1000800484B11C4CB4FBF1F5194C241F2468AA
:104C200047F6C076344096FAA6F6B6FA86F6F44011
:104C300005FB04F20FE0134CB4FBF1F5104C241FFC
:104C4000246847F6C076344096FAA6F6B6FA86F699
:104C5000F44005FB04F20A4C241F246804F4403499
:104C60004FF4403595FAA5F5B5FA85F5EC40641C8E
:104C70006300B2FBF3F001E0024800BF00BF70BD6B
:104C8000083802400024F40040787D0138B504461D
:104C90000025207800F00100002866D0F748006861
:104CA00000F00C0004280DD0F448006800F00C005F
:104CB000082813D1F148001F006800F48000B0F507
:104CC000800F0BD1ED4808380068C0F34040002841
:104CD0004BD06068002848D1012038BD0020E7494A
:104CE000891F0870FFF74EF9054608E0FFF74AF9FB
:104CF000401B41F28831884201D90320EDE7DF48AB
:104D000008380068C0F340400028EFD12079DB4923
:104D1000891F08706068A0B1FFF734F9054608E004
:104D2000FFF730F9401B41F28831884201D9032056
:104D3000D3E7D24808380068C0F340400028EFD0DD
:104D400013E0FFF71FF9054608E0FFF71BF9401BCA
:104D500041F28831884201D90320BEE7C7480838AC
:104D60000068C0F340400028EFD1207800F0020036
:104D7000022869D1C148006800F00C0058B1BF4852
:104D8000006800F00C00082821D1BC48001F006812
:104D900000F48000D8B9B94808380068C0F3400072
:104DA00020B1E068012801D0012096E7B348083817
:104DB000006820F0F800F82292FAA2F2B2FA82F229
:104DC000216991400843AD49083908603CE0E0683A
:104DD00028B30120AA490860FFF7D4F8054606E089
:104DE000FFF7D0F8401B642801D9032075E7A348DA
:104DF00008380068C0F340000028F1D09F48083808
:104E0000006820F0F800F82292FAA2F2B2FA82F2D8
:104E100021699140084399490839086014E000204D
:104E200097490860FFF7AEF8054606E0FFF7AAF8D5
:104E3000401B642801D903204FE7904808380068D8
:104E4000C0F340000028F1D1207800F008000828C5
:104E50002CD16069A8B101208A490860FFF792F857
:104E6000054606E0FFF78EF8401B642801D90320B1
:104E700033E782486C300068C0F340000028F1D06E
:104E800014E000207F490860FFF77CF8054606E043
:104E9000FFF778F8401B642801D903201DE7774805
:104EA0006C300068C0F340000028F1D1207800F099
:104EB000040004286FD100BF002000906F483830F4
:104EC000006840F080506D4938310860084600683D
:104ED00000F08050009000BF00BF6B48006840F4B5
:104EE000807069490860FFF74DF8054606E0FFF756
:104EF00049F8401B642801D90320EEE662480068A7
:104F000000F480700028F2D000205C4968310870FD
:104F1000FFF738F8054608E0FFF734F8401B41F288
:104F20008831884201D90320D7E6544868300068A8
:104F3000C0F340000028EFD1207A50496831087052
:104F4000A068A0B1FFF71EF8054608E0FFF71AF8C1
:104F5000401B41F28831884201D90320BDE6474811
:104F600068300068C0F340000028EFD013E0FFF77E
:104F700009F8054608E0FFF705F8401B41F28831C3
:104F8000884201D90320A8E63C4868300068C0F395
:104F900040000028EFD1A069F0B33848006800F065
:104FA0000C00082872D0A069022850D10020344992
:104FB0000866FEF7E7FF054606E0FEF7E3FF401B45
:104FC000642801D9032088E62C4808380068C0F31B
:104FD00040600028F1D1D4E90701084347F6C072C8
:104FE00092FAA2F2B2FA82F2616A91400843012277
:104FF000A16AC2EB51014FF4403292FAA2F2B2FA26
:1050000082F2914008434FF0706292FAA2F2B2FA33
:1050100082F2E16A914000E03AE008431749091F33
:105020000860012016490866FEF7ACFF054606E059
:10503000FEF7A8FF401B642801D903204DE60F4866
:1050400008380068C0F340600028F1D020E000205C
:105050000B490866FEF796FF054606E0FEF792FF4D
:10506000401B642801D9032037E60448083800684B
:10507000C0F340600028F1D10AE007E008380240A0
:1050800000004742800E474200700040012024E6A5
:10509000002022E670B504460D460CB9012070BD13
:1050A00094F82C0028B9002084F82D00204600F048
:1050B00011F8022084F82C00211D2068FDF763FD03
:1050C0002946D4E90002FDF7C8FD012084F82C0030
:1050D0000020E4E710B586B0044600BF0020009031
:1050E0004348006840F001004149086008460068F4
:1050F00000F00100009000BF00BF00BF0020009042
:105100003B480838006840F0040039490839086015
:105110000846006800F00400009000BF00BF00BF18
:10512000002000900846006840F00800086008462B
:10513000006800F00800009000BF00BF00BF002022
:1051400000900846006840F01000086008460068BB
:1051500000F01000009000BF00BF00BF00200090D2
:105160000846006840F0200008600846006800F02B
:105170002000009000BF00BF00BF00200090084644
:10518000006840F0400008600846006800F04000F9
:10519000009000BF00BF0D2001900220029001206E
:1051A0000390032004900C20059001A91148FEF7FC
:1051B000C9FD4CF20370019001A90F48FEF7C2FD32
:1051C0004FF68370019001A90C48FEF7BBFD4FF626
:1051D0003F00019001A90A48FEF7B4FD48F23710DC
:1051E000019001A90748FEF7ADFD06B010BD000013
:1051F0003838024000080240000C02400010024013
:10520000001402400018024070B504460D4694F8A0
:105210002C00022800D170BD022084F82C00294601
:105220002068FDF7EAFC012084F82C000020F2E75A
:1052300070B504460D46164694F82C00022800D19D
:1052400070BD022084F82C00324629462068FDF704
:10525000DBFC2868022803D1052084F82C0002E03A
:10526000012084F82C000020EAE770B504460E46C1
:1052700015460CB9012070BD94F8490028B90020EA
:1052800084F84800204600F01DF804F10801206869
:10529000FDF70AFC3146A2682068FDF745FC294667
:1052A000236BD4E90102FDF7DBFBA168206850F80D
:1052B000210040F00100A268216841F8220000208E
:1052C000D9E7000010B586B0044600BF002000906A
:1052D0002248006840F00100204908600846006844
:1052E00000F00100009000BF00BF00BF0020009050
:1052F0001A480838006840F0080018490839086062
:105300000846006800F00800009000BF00BF00BF22
:10531000002000900846006840F010000860084631
:10532000006800F01000009000BF00BF4EF2B370A4
:1053300001900220029001200390032004900C2091
:10534000059001A90648FEF7FDFC4FF6807001901C
:1053500001A90448FEF7F6FC06B010BD383802403B
:10536000000C024000100240042808D14FF0E02158
:10537000096941F004014FF0E022116107E04FF0AC
:10538000E021096921F004014FF0E022116170472A
:1053900070B504462546681EB0F1807F01D3012018
:1053A0000FE0681E4FF0E02148610F214FF0FF3001
:1053B00004F012FD00204FF0E02188610720086111
:1053C000002070BD70477047704710B504462068D4
:1053D0000069C0F34000D8B12068C068C0F3400045
:1053E000B0B16FF0020021680861012020762068CA
:1053F000806900F0030018B12046FFF7E5FF05E0E3
:10540000204600F0ADF8204600F0ABF800202076F2
:1054100020680069C0F38000D8B12068C068C0F37C
:105420008000B0B16FF0040021680861022020768E
:105430002068806900F4407018B12046FFF7C4FF6F
:1054400005E0204600F08CF8204600F08AF80020A5
:10545000207620680069C0F3C000D8B12068C06819
:10546000C0F3C000B0B16FF00800216808610420EB
:1054700020762068C06900F0030018B12046FFF7CD
:10548000A3FF05E0204600F06BF8204600F069F825
:105490000020207620680069C0F30010D8B1206891
:1054A000C068C0F30010B0B16FF01000216808614F
:1054B000082020762068C06900F4407018B12046AA
:1054C000FFF782FF05E0204600F04AF8204600F092
:1054D00048F8002020762068006900F0010058B1EB
:1054E0002068C06800F0010030B16FF00100216851
:1054F0000861204600F036F820680069C0F3C0104B
:1055000058B12068C068C0F3C01030B16FF080009F
:10551000216808612046FFF755FF20680069C0F345
:10552000801058B12068C068C0F3801030B16FF0AF
:10553000400021680861204600F015F820680069E5
:10554000C0F3401058B12068C068C0F3401030B1BB
:105550006FF02000216808612046FFF734FF10BD7E
:1055600070477047704770477047014691F839009F
:105570007047F8B50446002500262068006800F052
:1055800001052068C06800F480767DB176B100BF67
:10559000002000902068006800902068406800901B
:1055A00000BF00BFE06B40F00100E06320680068CE
:1055B000C0F340052068406900F001067DB176B176
:1055C00000BF0020009020680068009020684068BC
:1055D000009000BF00BFE06B40F00400E063206873
:1055E0000068C0F380052068406900F001067DB1C5
:1055F00076B100BF0020009020680068009020680D
:105600004068009000BF00BFE06B40F00200E06324
:1056100020680068C0F3C0052068406900F00106FA
:105620007DB176B100BF0020009020680068009036
:1056300020684068009000BF00BFE06B40F00800A9
:10564000E06320680068C0F340152068C06800F07F
:1056500020061DB116B1204605F05CFF20680068E9
:10566000C0F3C0152068C06800F080061DB116B1F7
:10567000204606F0BFF820680068C0F38015206857
:10568000C06800F040061DB116B1204605F02AFFA3
:10569000E06B28B1012084F839002046FFF764FF51
:1056A000F8BD10B504460CB9012010BDA06900B1C9
:1056B00000E000BF94F8390028B9002084F83800D1
:1056C000204600F025F8022084F839002068C068E0
:1056D00020F400502168C860204605F079FF20685A
:1056E000006920F49040216808612068406920F03A
:1056F0002A00216848612068C06840F40050216891
:10570000C8600020E063012084F839000020CCE765
:1057100010B586B004462E492068884255D100BF96
:1057200000BF002000902B48006840F0100029497D
:1057300008600846006800F01000009000BF00BF3D
:1057400000BF00BF00BF002000902248143800684E
:1057500040F001001F49143908600846006800F055
:105760000100009000BF00BF00BF00BF00BF0020CD
:1057700000900846006840F0010008600846006894
:1057800000F00100009000BF00BF00BF481501906D
:10579000022002900120039002200490072005902F
:1057A00001A90D48FEF7CEFA4FF480600190072062
:1057B000059001A90848FEF7C5FA2520FEF707FE67
:1057C000032211462520FEF70FFE06B010BD000093
:1057D00000100140443802400000024030B503464A
:1057E000002493F83940012C01D0122C37D101B19B
:1057F0000AB9012030BD00BF93F83800012801D15B
:105800000220F7E7012083F8380000BF99629A85EB
:10581000DA850020D86393F83900122803D13220AA
:1058200083F8390002E0222083F839001868C06844
:1058300040F480701D68E8601868406940F001001D
:105840001D68686100BF002083F8380000BF186839
:10585000C06840F020001D68E8600020CAE7022010
:10586000C8E700001D4A0168914236D11C490988E9
:1058700001F4004189BB1A49098801F4804171B1E2
:10588000184909780A2903D00021154A118024E01B
:105890001349098841F40041114A11801DE0114962
:1058A00009780D2906D10E49098841F480410C4A36
:1058B000118012E00B490978094A1288C2F30D02DF
:1058C000094B995406490988491C054A118011461B
:1058D0000988C72901DD00211180704700100140AF
:1058E000300000203200002068070020704700BF11
:1058F000FEE7000010B500200F4908600F4800685F
:1059000020F440600D4908600846006840F480605B
:10591000086000200A49C1F8940202200BF0C6FE7C
:1059200001200549086002200BF0C0FE0020044958
:10593000C1F8900210BD000090824342001C02405A
:105940000080434200B587B000BF0020019010489E
:10595000006840F080000E4908600846006800F0CA
:105960008000019000BF00BF302002900120039012
:1059700004900220059002A90648FEF7E3F90120F1
:10598000054908600549C1F8900207B000BD000054
:1059900030380240001C024094824342008043425F
:1059A00010B500200F4908600F48006820F44060DF
:1059B0000D4908600846006840F4806008600120D6
:1059C0000A49C1F8940202200BF070FE012005493B
:1059D000086002200BF06AFE00200449C1F8900222
:1059E00010BD000090824342001C024000804342F0
:1059F00070B5054600241648006820F4406014493C
:105A00000860084600680860002616E0002011497A
:105A1000086002200BF04AFE01200F49C1F89002F5
:105A20006006040E0B487C38006808B1601CC4B2E4
:105A300001200BF03BFE701CC6B2082EE6DB15B948
:105A4000FFF7AEFF01E0FFF755FF204670BD0000F5
:105A5000001C0240908243420080434270B50446DD
:105A60001548006820F44060134908600846006843
:105A700040F480600860002010490860002517E0AD
:105A8000E0090E49091D08606006040E02200BF0B3
:105A90000DFE01200A49C1F8900202200BF006FE1B
:105AA00000200649086002200BF000FE681CC5B209
:105AB000082DE5DB70BD0000001C024090824342CF
:105AC0000080434210B50F48006820F440600D4943
:105AD00008600846006840F48060086001200A49B8
